:020000040800F2
:10000000D09E0020DD0300080F730008FF6B00087E
:100010000D730008393700082D9D0008000000000E
:100020000000000000000000000000001D030008A8
:10003000293C000800000000790300088D7A0008C0
:10004000F7030008F7030008F7030008F7030008A8
:10005000F7030008F7030008F7030008F703000898
:10006000F7030008F7030008F7030008F703000888
:10007000F7030008B1370008F7030008BD37000890
:10008000C9370008D537000891350008F703000884
:10009000F7030008F7030008F7030008F703000858
:1000A000F7030008F7030008F7030008F703000848
:1000B000F7030008F7030008F7030008F703000838
:1000C000F7030008F7030008F7030008F703000828
:1000D000F7030008F703000831810008F703000860
:1000E000F7030008F7030008F7030008F703000808
:1000F000F7030008F7030008F7030008F7030008F8
:10010000F7030008F7030008F7030008F7030008E7
:10011000F7030008F7030008F7030008F7030008D7
:10012000F7030008F7030008F7030008F7030008C7
:10013000F70300080000000000000000F7030008BB
:10014000F7030008F7030008F703000835730008F9
:10015000F7030008F7030008F7030008F703000897
:10016000F7030008F7030008F7030008F703000887
:10017000F7030008F703000800000000000000007B
:10018000F7030008F703000800F002F800F0B6F8E3
:100190000AA090E8000C82448344AAF10107DA45E2
:1001A00001D100F0ABF8AFF2090EBAE80F0013F07E
:1001B000010F18BFFB1A43F001031847482901003B
:1001C000682901000A444FF0000C10F8013B13F0BD
:1001D000070408BF10F8014B1D1108BF10F8015BA0
:1001E000641E05D010F8016B641E01F8016BF9D193
:1001F00013F0080F1EBF10F8014BAD1C0C1B09D1EA
:100200006D1E58BF01F801CBFAD505E014F8016B5B
:1002100001F8016B6D1EF9D59142D6D370470000ED
:100220000023002400250026103A28BF78C1FBD8FF
:10023000520728BF30C148BF0B6070476E2900F0DD
:100240000187702901F05B82662911F09783652987
:1002500011F09483672911F09183612911F0908343
:1002600003681B0A28BF41F08001692900F0608201
:10027000642900F05D82752900F05A826F2901F02F
:10028000E881782901F02782E92901F08381E429B6
:1002900001F08081F52901F07D81EF2901F0E581F0
:1002A000F82901F026820368DB0928BF41F08001AC
:1002B000632901F05787732901F05C87E32901F076
:1002C0006787F32901F06C87002070471FB511F094
:1002D0009DFA9DE8030000F0B9FD01F00BFD04005C
:1002E0000020002110F042FC401C60600020002132
:1002F00010F026FCE0601FBD10B510BD02F0E3F960
:100300001146FFF7E3FF0BF045FC02F04BFC03B492
:10031000FFF7F2FF03BC00F077FD00002C4B1968DB
:100320000868B0E8F04F80F30988BFF36F8F4FF093
:10033000000080F311887047000000000848006842
:10034000006880F308884FF0000080F3148862B6DC
:1003500061B6BFF34F8FBFF36F8F00DF00BF00BFE9
:1003600008ED00E0DFF80C00016841F47001016065
:10037000704700BF88ED00E0EFF30980BFF36F8F97
:10038000134B1A681EF0100F08BF20ED108A20E9E9
:10039000F04F106009B44FF0500080F31188BFF3A4
:1003A0004F8FBFF36F8F0FF0BFFC4FF0000080F353
:1003B000118809BC19680868B0E8F04F1EF0100FEA
:1003C00008BFB0EC108A80F30988BFF36F8F7047C5
:1003D00038000020EFF3058070470000094880478F
:1003E00009480047FEE7FEE7FEE7FEE7FEE7FEE717
:1003F000FEE7FEE7FEE7FEE704480549054A064B2F
:1004000070470000397B000889010008D09800205F
:10041000D09E0020D09A0020D09A00209FED1A1A7A
:10042000F5EE000A40EE010ABDEEE00AF5EEC00A64
:1004300010EE100AF1EE10FA38BF401E00EE100A5E
:100440001349F7EE001AB8EEC00A30EEC00ADFED2D
:100450000F0A20EE200AFCEEC00A10EE900AC0F34C
:10046000080000EE900A01EB8000F8EE600A90EDC3
:10047000011A70EE600A90ED000A71EEE01A21EEAA
:10048000800A00EE810A704783F9223E0000004492
:1004900028200108B5EEC00AF1EE10FA07D2DFED10
:1004A0001E0AB4EEE00AF1EE10FAA8BF7047DFEDC5
:1004B0001B0AB5EEC00A60EE200ABDEEE01A11EE8E
:1004C000100AF1EE10FA38BF401E00EE100A15496E
:1004D000F7EE001AB8EEC00A30EEC00ADFED100ADF
:1004E00060EE200ABCEEE00A10EE100AC0F308002D
:1004F00000EE100A01EB8000B8EE400A90ED011A00
:1005000070EEC00A90ED000A71EEE01A21EE800A4A
:1005100000EE810A70470000CD024CB483F9223E00
:10052000000000442820010870B5064600F072FC67
:10053000056806F10B0020F00704B4429CBF0020C0
:1005400070BD2B466A68BAB11068A04210D304F19E
:10055000080188423CBF5068586007D351681019A1
:1005600041601168091B016058601460101D70BD66
:1005700013465268002AE7D12146284600F052FC73
:100580000028DED170BD70B50446051F00F042FCA6
:100590000068002C14BF446870BD002C18BFAC422A
:1005A0003CBF20466468F8D301680A18AA4218BF05
:1005B000456003D12A680546114401602868411945
:1005C000A1421CBF6C6070BD61686960216808440D
:1005D000286070BD53EA020C00F069802DE9F04BF1
:1005E0004FF00006002B1FBFB3FA83F503FA05F4A2
:1005F00024FA05F65E4012BF1643B2FA82F502FAFB
:1006000005F4C5F120051EBF22FA05FC44EA0C04DE
:10061000203556EA044C4FEA144418BF641C4FF0CE
:1006200000084FF00009904271EB030C39D3002908
:1006300019BFB1FA81F701FA07F6B0FA80F700FAAC
:1006400007F6C7F120071EBF20FA07FC46EA0C0692
:100650002037B6FBF4FCA7EB0507103F07F01F0B94
:10066000CBF120060CFA0BFB2CFA06F644BFB3467E
:100670000026202FA4BF5E464FF0000B5BEA060C5D
:1006800008BF4FF0010B19EB0B09ABFB027C48EBE9
:100690000608C01B06FB02CC0BFB03CC71EB0C0164
:1006A000C1E70B46024641464846BDE8F08B13B50C
:1006B0004FF000004FF00001AFF30080BDE81C4098
:1006C000704700007CB51D4616460C00009001D016
:1006D0002044401E074B7B442A4669460190304621
:1006E00000F0D9FE05461CB10020694600F0E6FE88
:1006F00028467CBDED0D00000FB47CB50C0009AAA6
:10070000009001D02044401E084B7B446946019074
:10071000089800F0C0FE05461CB10020694600F0B4
:10072000CDFE28467CBC5DF814FB0000B90D00002E
:100730002DE9F0410646002410687529314616A5BA
:1007400010D000F0EBFB002802DA404213A507E0CE
:1007500031688A0701D512A502E0490704D511A521
:10076000012401E000F0E3FB00210A2206F1240746
:1007700009E0B0FBF2FCB0FBF2F302FB1C003030EE
:1007800078541846491C0028F3D123462A4630469F
:10079000BDE8F04100F0FDBB000000002D000000AE
:1007A0002B000000200000002DE9F05F8946044680
:1007B0004FF0000ADFF874B1FB44C0F820A02046D7
:1007C000E1688847002874D0252806D0D4E90121A3
:1007D0009047206A401C2062F1E700265F462046D1
:1007E000E16888472028054607DB312D05D27819B6
:1007F00010F8200C08B10643F1E7B00701D526F048
:100800000406C4F81CA00027C4F818A02A2D09D09B
:10081000284609F0A4FD38B304EB8708303DC8F83A
:10082000185019E059F8041B204604EB8702916127
:10083000E1688847012F054618D1E069002820DAD1
:1008400026F020061DE0D8F8180000EB800005EB2C
:1008500040003038C8F818002046E168884705464F
:1008600009F07DFD0028EED1012F0AD02E2D08D1F0
:100870002046E16888477F1C0546022F46F0200687
:10088000C4DBA069002803DA404246F00106A061FB
:10089000F00701D026F010066C2D0BD0682D09D082
:1008A0004C2D39D06A2D35D0742D35D07A2D33D0DA
:1008B00016E038E0E1682F4620468847B8420546F2
:1008C00009D16C2F26D04FF48060E16806432046A2
:1008D0008847054604E06C2F1AD04FF48070064319
:1008E0000DB3A5F14100192802D8203546F4006661
:1008F0004A462946204626604E46FFF79FFC80B1B7
:1009000001280BD0F61D26F0070000F1080956E774
:100910004020E4E78020D8E70020D6E706F104096C
:100920004DE7284652E7206ABDE8F09F702001009D
:100930000FB400B58DB010A9099000910B904FF045
:10094000FF300A9000200C90064878440690064834
:1009500078446A4607900F9909A801F06BF90DB029
:100960005DF814FB071300001F1300002DE9FF5F63
:100970001D464FF0FF3B91464FF000085F46D5E91A
:100980000146A96901987F1C8847296A82468847E1
:100990000028F6D1BAF1FF3F0CD0002E24F4C06439
:1009A00019DD600614D5BAF12B0F09D0BAF12D0F5D
:1009B0000ED103E0584604B0BDE8F09F44F48064D3
:1009C000A96901987F1C8847761E8246002E02DDA9
:1009D000BAF1300F03D0B9F1000F26D032E0A96987
:1009E000761E01987F1C44F400748847002E8246CE
:1009F00005DDBAF1780F06D0BAF1580F03D0B9F17E
:100A0000000F10D01EE0B9F1000F02D0B9F1100FA5
:100A100018D1A969761E01987F1C24F400748847B8
:100A20008246102002E0082000E00A20814609E00A
:100A3000A96908FB0908761E01987F1C44F400741C
:100A400088478246002E05DD4946504600F062FE8A
:100A50000028EDDAE96901988847A00502D46FF013
:100A60000100A8E7E00725D1600613D5600502D58F
:100A7000C8F1000000E0404629680A1D2A600968A4
:100A8000220501D5087015E0220701D5088011E084
:100A900008600FE02868011D29600068210502D563
:100AA00080F8008006E0210702D5A0F8008001E070
:100AB000C0F8008038467EE72DE9FF5F4FF0000860
:100AC0009946144646469169D2E901A7DDF838B047
:100AD00001988847054659EA0B0005D009E0A1694D
:100AE0000198761C88470546216A284688470028D1
:100AF000F5D1681C03D05FEACA7005D015E04FF04D
:100B0000FF3004B0BDE8F09F2068011D2160D0F8DF
:100B100000800AE05FEACA7001D108F8015BA169B0
:100B2000761C01987F1E88470546002F1ADD681C39
:100B300018D0B9F1000F0DD0E81705EBD0604211C5
:100B400020F01F0059F822102A1A0120904001427B
:100B5000E0D107E0BBF1000FDCD12846216A8847CD
:100B60000028D7D0E16901988847BBF1000F07D171
:100B7000002E05DD5FEACA7002D1002188F800105E
:100B8000A068B84203DDBBF1000F03D017B16FF0CE
:100B90000100B6E73046B4E710B5002001F07AF85E
:100BA000FFF7AAFBBDE81040012000F02DB90000BE
:100BB000014A01F077B80000B405002040EA0103C3
:100BC000024630B59B0710D14FF0013400E008C257
:100BD00008C91D1B9D4315EAC41FF8D013F0FF017F
:100BE00002F8011B0DD01B0AF8E711F8013B002B9E
:100BF00002F8013B05D011F8013B002B02F8013B44
:100C0000F3D130BD10B5431C02E010F8011B71B1E7
:100C10008107FAD14FF0013202C88C1A8C4314EAD2
:100C2000C211F9D0C01A0A0603D0C01E10BDC01AE6
:100C300010BD0A0401D0801E10BD0902FCD0401E68
:100C400010BD032A40F2308010F0030C00F0158034
:100C500011F8013BBCF1020F624498BF11F801CBBF
:100C600000F8013B38BF11F8013BA2F1040298BF24
:100C700000F801CB38BF00F8013B11F0030300F08E
:100C80002580083AC0F0088051F8043B083A51F832
:100C900004CBA0E80810F5E7121D5CBF51F8043B37
:100CA00040F8043BAFF30080D20724BF11F8013BAA
:100CB00011F801CB48BF11F8012B24BF00F8013B0C
:100CC00000F801CB48BF00F8012B704710B5203A5F
:100CD000C0F00B80B1E81850203AA0E81850B1E8F5
:100CE0001850A0E81850BFF4F5AF5FEA027C24BFAB
:100CF000B1E81850A0E8185044BF18C918C0BDE8A2
:100D000010405FEA827C24BF51F8043B40F8043B6A
:100D100008BF7047D20728BF31F8023B48BF11F81F
:100D2000012B28BF20F8023B48BF00F8012B704779
:100D30004FF0000200B5134694469646203922BF74
:100D4000A0E80C50A0E80C50B1F12001BFF4F7AFBF
:100D5000090728BFA0E80C5048BF0CC05DF804EBA1
:100D6000890028BF40F8042B08BF704748BF20F80F
:100D7000022B11F0804F18BF00F8012B70470000C4
:100D80004FF0013C50F8042B51F8043B9A4221D11A
:100D9000A2EB0C03934313EACC1317D150F8042BA6
:100DA00051F8043B9A4215D1A2EB0C03934313EA8A
:100DB000CC130BD150F8042B51F8043B9A4209D1C3
:100DC000A2EB0C03934313EACC13DBD04FF00000EB
:100DD000704700BFD01A01BAB1FA81F101F01801D1
:100DE00022FA01F0CB40C1F12001DBB2C0B2C01A3F
:100DF0002CFA01F3D11A914311EAC311E6D17047DD
:100E0000704770477047000001491820ABBEFEE7ED
:100E10002600020000487047749800207047704711
:100E20007047704738B504460A4600206946AFF35C
:100E30000080002808BF38BD02460099204600F017
:100E400061FF012038BD012001F018BCF8B5AFF3F7
:100E50000080054600200C46102000BF0646A81959
:100E6000A0420DD9324669460020AFF3008007004A
:100E700008BF01F003FC0098A04218BF0546C41942
:100E8000FFF7C8FF05600746F01D20F00700461970
:100E9000284600F00AF8B44208BFF8BDA21B31464C
:100EA0003868BDE8F84000F02DBF00210160C0E9BE
:100EB000011070471020704710B500F01FFF006848
:100EC00010BD10B5044600F019FF046010BD70B5E8
:100ED000044685690068C10601D5302600E0202659
:100EE000C00707D070BDD4E9012130469047206A81
:100EF000401C20626D1EF6D570BD70B50446856934
:100F00000078C00707D170BDD4E9012120209047A7
:100F1000206A401C20626D1EF6D570BD09684A0526
:100F200001D540B27047C905FCD500B270470968C9
:100F30004A0501D5C0B27047C905FCD580B27047DB
:100F400070B50C460546012A05D02878800600D5E4
:100F5000EA69002302E0012305E05B1C934202D210
:100F6000E05C0028F9D1A869E618C01AA861286ACF
:100F7000184428622846FFF7AAFF04E0D5E90121BA
:100F800014F8010B9047B442F8D32846FFF7B5FF99
:100F900070BD2DE9F0470D4699469246044600F192
:100FA00024080168880604D5E06921F01001216059
:100FB00000E00120A84201DD471B00E00027A169F5
:100FC0007A1902EB0900081AA0612078C00602D441
:100FD0002046FFF77CFF002608E0D4E901211AF83B
:100FE00006009047206A401C761C20624E45F4DBC8
:100FF0002078C0060AD52046FFF769FF06E0D4E94D
:10100000012130209047206A401C2062381EA7F141
:101010000107F4DC07E0D4E9012118F80500904746
:10102000206A401C2062281EA5F10105F3DC204641
:10103000FFF763FF2078000602D50220BDE8F087A5
:101040000120FBE711680268006A530501D50870AA
:101050000AE0D30501D5088006E0130603D5C217C0
:10106000C1E9000200E008600120704770472DE9E7
:10107000FF4F0C461E464FF0FF378BB0D2E9000100
:10108000DDF860800A908A46C1F30A5505B93D46ED
:101090000021084610F062FCBAF1000F00F4400095
:1010A00005DA00EB80004FF4400101EA50004FEAFE
:1010B0009059B9F1010F00DDB9460A9850EA4A008B
:1010C0000ED044F61050A5F2FF3545432F14B8F169
:1010D000000F1ED07542291E1EDDC9F100021CE062
:1010E000B8F1010F4FF0000001D0302103E0F243CE
:1010F00005E02154401CB042FBDB304600220021B9
:1011000021540B99C1F80880C1E900200FB0BDE857
:10111000F08FBD1B6D1CDEE74A4600DA694206A867
:1011200001F0FCF906AB93E8070003AB83E8070086
:1011300050460A9901F0F8FD8DE80700A0F500502F
:101140001F3800900398002D0ADD42F21F014A4625
:101150000844002303A90390684602F0A3F809E0BD
:10116000A0F500504A461F38002303A903906846A3
:1011700002F0C2F88DE807000004000C03D04FF025
:10118000FF30410800E01046B8F1000F03D0002204
:10119000009215461EE0751E05D400F0CDFD3032DC
:1011A00062556D1EF9D5B3460122084302D00022D4
:1011B0007F1C04E02078302801D100227F1E002A05
:1011C000099784D01DE0112D07DA00F0B5FD30320B
:1011D00062556D1C50EA0102F5D1084302D0009817
:1011E000C8B10EE00021681E05E0235C625C635418
:1011F0002254401E491C8142F7DBAB46A81B401E0F
:101200000990002004F80B000B98099AC0F8088098
:10121000C0E9002B7AE711264FF0000857E72DE9C7
:10122000F04F88460446D21D22F0070191B0D1E963
:101230000001CDE90A0108F0F8FE02460B98C00F44
:1012400001D02D2007E02068810701D52B2002E086
:10125000202101EAC000032A099001D0072A05DBFA
:1012600003464146204600F033FF0BE1207880061C
:1012700001D5E06900E00620B8F1650F814606D08F
:10128000B8F1660F18D0B8F1670F70D131E00020C7
:10129000B9F1110F009001DB112301E009F1010305
:1012A0000AAA01A90CA8FFF7E2FEDDE90C700026EE
:1012B00009F10105834647E001204B4600904FF0BD
:1012C00000470AAA01A90CA8FFF7D1FEDDE90DB07D
:1012D0000C995D46002610B909F101000D18B9EB13
:1012E000050003D4C0F1FF3609F10105A5EB0900A3
:1012F0002BE0B9F1010F01DA4FF001090020B9F13B
:10130000110F0090484601DD112300E003460AAAB0
:1013100001A90CA8FFF7ABFEDDE90C704D460026D5
:101320008346207800070AD4AB4500DA5D4601A861
:10133000012D04DD411911F8011C302907D04F455A
:1013400002DA17F1040F04DA012082460FE06D1E65
:10135000EEE7002F02DCED1B3E4403E0781CA842C0
:1013600000DD7D1CB81B00F1010A4FF0004720781A
:10137000000703D4AA4501DB4FF0FF3A0021B7F183
:10138000004F0DF143088DF8431024D002202B2389
:10139000002F01DA7F422D230A21021EA0F1010055
:1013A00000DC5FB197FBF1FC97FBF1F201FB1C7CC9
:1013B00017460CF1300C08F801CDEEE7A8F101005A
:1013C00003702188090501D5452100E06521A0F1C0
:1013D000010800F8011C09980FA9A1EB0807FF1DDF
:1013E00000B10120411901EBEA70A1693844081AE3
:1013F000401EA0612078C00602D42046FFF767FD9A
:10140000099828B1D4E901219047206A401C206244
:101410002078C00622D52046FFF759FD1EE0002E99
:1014200004DBB34502DD01A8805D00E03020D4E993
:1014300001219047206A401C2062761CAAF101001D
:101440005FEA000A0AD100F055FCC0680168405C00
:10145000D4E901219047206A401C2062281EA5F192
:101460000105DCDC07E0D4E9012118F8010B904705
:10147000206A401C2062381EA7F10107F3DC2046D9
:10148000FFF73BFD032011B041E6000001694A1C53
:1014900002610878704700B58FB0CDE901310021B5
:1014A000059105497944CDE9031011466846FFF7D7
:1014B0007BF90FB000BD0000E5FFFFFF0A6802F8EE
:1014C000010B0A607047D1E900239A4202D2531CF3
:1014D0000B601070704700002DE9FF5F15468A46CB
:1014E0000446DFF8AC80F8440027D8E900103E46F7
:1014F000CDE9001010E03AF816106A4602A801F093
:101500007FF8411C07D02178890603D5E269391894
:1015100091420DD80744761C2078800602D5E069F8
:10152000B84205DDAE42E6DB3AF816000028E2D10B
:10153000A069C01BA0612046FFF7C9FCD8E90010D4
:10154000CDE90010002017E03AF818106A4602A80A
:1015500001F056F8B0F1FF3F81460BD000250DF1A8
:10156000080B05E0D4E901211BF8050090476D1C2C
:101570004D45F7D308F10100B0428046E4DB206A14
:10158000384420622046FFF7B8FCBDE8FF9F00000A
:10159000561301002DE9F0418046D21D22F00702CA
:1015A0000025D2E90002F52915A614D0011E72F11A
:1015B000000106DA0023D0EB030063EB020211A660
:1015C00008E0D8F800108B0701D50FA602E0490704
:1015D00001D50EA601251146002408F1240704E0D8
:1015E00000F0AAFB30323A55641C50EA0102F7D1F0
:1015F0002B46324621464046BDE8F041FFF7C9BCC4
:10160000000000002D0000002B0000002000000062
:1016100030B4002100F1240408E002F00705D208EC
:10162000303542EA4372DB086554491C52EA03052F
:10163000F3D10468002310A2250707D5A40600D41F
:1016400021B1C46901230DA2641EC46130BCFFF73F
:10165000A0BC10B5044621461068FFF768FC02469E
:101660002046BDE810400023D2E7D21D22F007013A
:10167000D1E90023CCE700000000000030000000AA
:10168000F0B40D460188090502D5214C7C4402E0E6
:101690001F4C7C440E34002100F1240608E002F0C7
:1016A0000F071209E75D42EA03721B097754491CD0
:1016B00052EA0307F3D102780023120704D5702DF4
:1016C00006D009B1022311342246F0BCFFF761BCF9
:1016D00001231034F8E770B504460D462146106822
:1016E000FFF725FC024629462046BDE8704000234E
:1016F000C6E7D21D22F00703D3E90023C0E7036841
:10170000126843F0200303600823C3610023B7E796
:10171000B81101003A2800D2303820F02002412AC6
:1017200001D3A2F13700884201D34FF0FF30704758
:101730002DE9FF4F06468BB00878FF2806D0491CDC
:101740002D2805D000244FF0000908E000200CE00F
:101750000124F8E709EB8903491C00EB43090878E9
:10176000FF28F7D114B1C9F1000081461078002597
:101770002C46AA4629462D2801D02B2804D1521CDC
:101780002D2813D0002082468B461078FF280FD0DA
:101790004FF0000C0A21521CA5FB017804FB0181CB
:1017A00005FB0C11C5194BEB0104EEE70120EAE73C
:1017B0000021084610F0D2F8BAF1000F02D000EB79
:1017C00080004008C0F38157012F01DD4FF0FF3743
:1017D0000E9955EA040009EB01080BD04FF00209FD
:1017E00018F5FA7F16DA4FEACA70002F706008DD2C
:1017F000012007E04FEACA70C6E900B00FB0BDE8AB
:10180000F08F0020306000F079FAC0F800901821C5
:10181000084616E0B8F5FA7F18DD002F02DAF7481F
:10182000784401E0F6487844D0E90010C6E9001099
:1018300040EACA70706000F061FAC0F800901421AC
:1018400008460FB0BDE8F04F10F088B800210846F8
:1018500010F084F8B8F10001099002DAC7F1000233
:1018600000E03A4601DAC8F1000106A800F056FE91
:1018700006AB93E8070003AB83E8070044F23E00A1
:101880005BEA04010090584604D144F21E012C4644
:101890005D460091210C0904014306D100992404FE
:1018A00044EA15442D041039009104F07F410143AE
:1018B00006D10099240244EA15642D0208390091EA
:1018C00004F07041014306D10099240144EA1574E3
:1018D0002D01091F009104F04041014306D10099F8
:1018E000A40044EA9574AD00891E009104F0004103
:1018F000084304D100986D196441401E00904FF0D8
:1019000001033A466846B8F1000FCDE9014503A945
:1019100002DD01F006FD01E001F0D9FCBAF1000F93
:1019200004460D4601D084F000440021084610F022
:1019300015F8099940F2FF77484010F00C0F07D1D5
:1019400024F00040284303D0C4F30A50B84212D117
:1019500000F0D4F9C0F80090C4F30A50B8420AD19C
:10196000A8487844D0E90010C6E9001004F000410E
:101970000843706042E7C6E900543FE72DE9FF4F96
:101980001F464FF0000A4FF0FF38454691B0D7E9A7
:101990000146CDF83CA000F0ADF9C0680168405C9C
:1019A0001090B96912986D1C8847396A814688473A
:1019B0000028F6D1B9F1FF3F0AD0002E24F4D064FC
:1019C00011DDB9F12B0F08D0B9F12D0F0BD102E0C9
:1019D000404615B013E744F48064B96912986D1C51
:1019E0008847761E8146600504A901D52D2000E0B8
:1019F0002B20002E01F1010B0DF130088DF81000A5
:101A00003FDDB9F1690F08D0B9F1490F05D0B9F13F
:101A10006E0F02D0B9F14E0F1CD13B4601A80095C4
:101A200080E85002DDE912126FF0020010F092F827
:101A3000C11CCED10EE0B96912986D1C8847814651
:101A40001398761E44F4007405600F98401C002E15
:101A50000F9016DDB9F1300FEDD0B9F1780F02D04B
:101A6000B9F1580F0DD10F9801280AD13B46CDE9A5
:101A70000054DDE91212001F029610F069F8C11C33
:101A8000A7D1109989453ED144F0800406E013990E
:101A9000681CAAF1010A44F400740860B9696D1C5D
:101AA0001298761E884730288146F0D02BE0109996
:101AB000894505D1200603D4761E44F0800418E041
:101AC000484608F04CFC08B3761E0DF123018B4507
:101AD00044F4007408D2A9F130000BF8010B200681
:101AE00007D5AAF1010003E0200602D40AF10100A3
:101AF0008246A00502D51399681C0860B96912983E
:101B00006D1C88478146002ED1DC53E0002E51DD4C
:101B1000B9F1650F02D0B9F1450F4BD1A00549D5F8
:101B2000B9696D1C1298761E24F440748847002E03
:101B300081460CDD2B2804D0B9F12D0F07D144F4D8
:101B40008074B96912986D1C8847761E8146E0053D
:101B500001D52D2100E02B2108F8011BCDF80080D4
:101B600021E0761E0DF13901884544F400740CD251
:101B7000A9F1300010F0FF0088F8000002D10099B0
:101B8000884509D908F1010806E0E00501D51E489D
:101B900001E042F20F708246B96912986D1C8847C5
:101BA000814613980560002E04DD484608F0D7FBF7
:101BB0000028D6D1F96912988847FF2053468BF840
:101BC000000088F8000000200A900B9004AA0CA9DD
:101BD0000AA8FFF7ADFDA00502D46FF00100F8E6FA
:101BE00014F0240F12D0E0071CD13868DDE90A1286
:101BF000031D3B600068C0E9001213E008130100F8
:101C0000FA120100BE110100F1D8FFFF0AA96846CF
:101C100008F092FBE00705D13868009A011D396091
:101C2000006802602846D4E6026811441378016017
:101C300018467047D1600549794451610449794497
:101C4000116200211161114600F0AEBAEDFFFFFFF5
:101C500081010000426842B1016811F8013B23B1E3
:101C6000521EC0E90012184670470121C160881E4B
:101C7000704742685AB1C368016843B983688B42B0
:101C800005D0491E521CC0E90012002070474FF0D9
:101C9000FF30704710B500F0D9FCBDE8104000F0EF
:101CA000CFBC00002DE9F04115460E46040002D1DC
:101CB0002C6804B90BA4204600F0F7FC04442078FB
:101CC00070B127463146384600F0DFFC04442078E6
:101CD00010B1002004F8010B38462C60BDE8F081FB
:101CE0000027F9E700000000004870476C980020CA
:101CF00070470000004870478C98002000487047EB
:101D00006C980020034640688C46002818BF884223
:101D10003CBF03464068F8D318681844884207D08F
:101D20000CF1030020F00700001D411A521A014671
:101D3000081D0A60FEF727BC30B5B0F10A024FEA71
:101D4000900E71F100034EEA817EB0EB0E0061EB64
:101D500091014FEA101E4EEA017E10EB0E0041EB9E
:101D600011114FEA102E4EEA016E10EB0E0041EBFE
:101D700011214FEA104E4EEA014E10EB0E0041EBDE
:101D80001141401841F100014FEAD00040EA417092
:101D90004FEAD10110EB80054FEA810444EA9074C8
:101DA00044EB01046D1944EB0404521BA3414FF0B2
:101DB000000348BF0A3200D530BD401C41F100018C
:101DC00030BD10B5044600F0A3FC0068005D00F0D3
:101DD000010010BD2DE9F04F04460D46D21D22F042
:101DE000070089B0D0E900974846394608F01DF948
:101DF0000246F80F01D02D2307E02068810701D5A6
:101E00002B2302E0202101EAC0038DF820300BB122
:101E1000012000E00020032A824601D0072A04DBCB
:101E20002946204600F054F93FE12078800601D48D
:101E30000D2500E0E569C7F30A560D2D49DA0021AA
:101E40004FEA175B08460FF089FD002F00F44000B1
:101E500007DA00EB80004FF4400100EBD07001EA9C
:101E600060008115012901DD4FF0FF3100224FEAAA
:101E7000850CBCF1180F06D31346ACF118004FF0D7
:101E80008052C24003E04FF4801323FA0CF30CF1AC
:101E90000C0CBCF1200F04D3ACF1200C09FA0CF0AF
:101EA00001E007FA0CF000294FF0004801DD18B9F5
:101EB0000FE00ED140450CD319EB02095F4121B967
:101EC000404502D19F4329EA0209BBEB175F00D0CE
:101ED000761C2088000502D57B48784402E07A48C9
:101EE0007844193808AA302302F80A30037C0AF132
:101EF0000101002E0AF1020A53546A4602DC4FF037
:101F0000300101E04FF031014FF001088DF8001071
:101F100002D0A6F2FF3603E059EA470100D06B4E2B
:101F2000002D02DC2178090704D54FF002082E218C
:101F30008DF80110C44600210BE0C7F303433F01B5
:101F4000C35C491C6D1E02F80830052908F1010820
:101F500001DA002DF1DC00210CE000EB1973491CC3
:101F60001B786D1E082902F808304FEA091908F19C
:101F7000010801DA002DF0DC21688B0602D516E09D
:101F8000A8F10108E04505DD02EB080313F8013C68
:101F9000302BF5D0B8F1000F09DD02EB080313F880
:101FA000013C2E2B03D1090701D4A8F10108002D13
:101FB00005DD3E2102F808106D1E08F10108407C85
:101FC000002E02F8080008F1010804DA2D207642FC
:101FD00002F8080002E02B2002F808000A214FF462
:101FE0007A70864208F101080BDB96FBF0F3303380
:101FF00002F8083096FBF0F308F1010800FB1366C5
:1020000001E0642E0CDB642096FBF0F3303302F821
:10201000083096FBF0F308F1010800FB136601E0BD
:102020000A2E06DB96FBF1F0303002F8080008F1CA
:10203000010896FBF1F001FB1060303002F8080057
:10204000A16908F1010808EB050202EB0A00081A71
:10205000A0612078C00602D42046FEF738FF216A2E
:1020600008AE01EB0A00206204E0D4E9012116F871
:10207000010B9047BAF1010AF7D22078C00602D5C9
:102080002046FEF724FF6E4609E016F8010B3E28B5
:102090000FD0D4E901219047206A401C2062B8F19A
:1020A0000108F2D22046FEF728FF09B00320BDE860
:1020B000F08F206A2844206203E0D4E90121302017
:1020C00090476D1EEBD3F8E7A509010002FCFFFF66
:1020D0002DE9F0411F46044603260168072A01F452
:1020E000006004DB08B116A505E016A503E008B101
:1020F00015A500E015A521F010002060A069C01E04
:10210000A0610FB1401EA0612046FEF7E0FE4FB176
:10211000D4E9012138469047206A401C2062C01C47
:10212000206206E0206AFAE7D4E9012115F8010BE4
:102130009047761EF8D22046FEF7DFFEBDE8F0811C
:102140004E414E006E616E00494E4600696E66005B
:1021500010B5436913B1AFF3008001E0FEF7F0FE64
:10216000012010BD127800F124010A7000224A708B
:102170000122EDE711684FF0FF32E9E710B543693E
:1021800013B1AFF3008001E0FFF7A6F9012010BD05
:10219000128800F1240182840022C2840122EDE72A
:1021A00011684FF0FF32E9E72DE9F34F4FF0000AD5
:1021B0000C4656468DB001200C9001F10C000B909E
:1021C00062690B9801219047051E2DD0252D2CD03A
:1021D000216A8847C0B162690B9801219047216A42
:1021E00088470028F7D16269411E0B98904700E0AC
:1021F000761CA1690D988847216A88470028F7D185
:10220000E1690D988847DBE7A1690D988847A842E6
:10221000074601D1761CD3E7E1690D9888477F1CFA
:1022200002D1BAF1000F6FD06BE162690B98002701
:102230003D46394690472A2804D162690B9801210E
:1022400090470125DFF8D08262690B980121904701
:10225000A0F130010A290AD24745E5DC07EB8701E6
:1022600000EB4107303FDFD445F01005ECE7E9060D
:1022700001D46FF000476C280AD04C2814D068288D
:1022800015D06A280DD074281CD07A281AD01DE0E9
:1022900062690B98012190476C2802D045F0040533
:1022A00014E045F002050DE045F020050AE0626902
:1022B0000B9801219047682802D045F0080505E0F9
:1022C00045F4006562690B9801219047C4E9015704
:1022D00065283DD019DC58287AD00CDC452837D049
:1022E00004DC252826D041289ED131E046282FD075
:1022F000472899D12CE05B2877D0612828D0632823
:102300007CD0642823D15AE0F6E06F2848D008DC5E
:1023100066281DD067281BD0692821D06E2816D1C9
:1023200027E0702845D0732868D0752847D07828D2
:102330000DD14DE0A1690D988847252805463FF449
:1023400069AFE1690D9888476D1C3FF46AAFD8E02A
:102350000D9923466A466FF001000FF0F7FBC5E0C8
:1023600045F0400023464FF000026060A80736D4D5
:102370003EE0E8077FF447AF2068011D2160006858
:10238000290501D506701BE7290701D5068017E747
:10239000A90703D5F117C0E9006111E706600FE74F
:1023A00045F0400023464FF008026060A80716D4AD
:1023B0001EE040F60E0125EA0100606016E045F0DF
:1023C000400023464FF00A026060A80707D40FE0E0
:1023D00045F040006060A80708D5234610220D99FB
:1023E0006FF00100AFF3008080E007E01022234689
:1023F0000D996FF00100FEF7B9FA77E04FF0000990
:1024000063284F46C8464B46CB4602D05B2806D0D1
:1024100038E0E80601D40120A060012732E06269BB
:10242000D4F80CB00B98012190475E2807D14FF0EB
:10243000010949466269D4F80CB00B9890472169AC
:1024400039B900210A4603AB43F82120491C082969
:10245000FADBD8B3216949B308F1010862690B9826
:10246000012190475D28F4D1B9F1000F09D0002077
:1024700003A951F82020D24341F82020401C08280D
:10248000F7DB03AB2069002820794FEA40701ED0AB
:102490005B462246CDF80080CDE901970D990028D2
:1024A0006FF0010020DAAFF300801FE0C11703AA2C
:1024B00000EBD1614B1121F01F0102EB8302411AA5
:1024C00013680120884003431360C7E719E00D99A2
:1024D000224600286FF00100009702DAAFF3008077
:1024E00004E0FEF7E9FA01E0AFF3008000280ADA21
:1024F000401C06D10C9820B14FF0FF300FB0BDE862
:10250000F08F5046FAE7E90701D10AF1010A0644C3
:1025100000200C9054E60000CCCCCC0C2DE9F04708
:10252000814616468AB0354878440DC88DE80D00BE
:1025300032487844801C03AC0DC884E80D0041F695
:102540009B300844372190FBF1F290FBF1F5A5F1A7
:10255000800501FB12041B3C02D56442012000E00F
:102560000020DFF898A080460027FA44AAF1BE0AAE
:102570000EE0E0070AD03246684607EB4701012328
:102580000AEB810100F0B8FE8DE8070064107F1CA3
:10259000002CEED1194F7F44AE3F19E0E80715D06B
:1025A00007EB04100DF1180A90E80E008AE80E00FF
:1025B000C068F04201D1981908903246012306A95B
:1025C00003A800F099FE03AB83E807006D10641CBC
:1025D000002DE3D14FF0010332466946B8F1000FF8
:1025E00003A802D000F05EFE01E000F085FEC9E91C
:1025F0000001C9F808200AB0BDE8F087E80301002F
:1026000070B516460C46054600F082F8036893F84C
:102610000101012806D0FF2C0FD8185D68B10120F8
:102620002C7070BDD3F807013246214603F2071320
:1026300003442846BDE8704018474FF0FF3070BD96
:10264000002801D0FEF7E0BB7047000010B5002164
:1026500002A000F0B0FA012010BD0000534947412C
:102660004252543A2041626E6F726D616C20746503
:10267000726D696E6174696F6E00000010B500F0D4
:10268000BBFABDE81040FFF7DBBF30B503461D784D
:102690001DB10A4603E0AC4201D1181A30BD12F850
:1026A000014B002CF7D15B1CF1E730B503461D78D8
:1026B0003DB10A4612F8014B1CB1AC42FAD15B1C89
:1026C000F5E7181A30BD7546FFF70EFBAE4605005C
:1026D0006946534620F00700854618B020B5FDF73F
:1026E0008BFEBDE820404FF000064FF000074FF092
:1026F00000084FF0000B21F00701AC46ACE8C00920
:10270000ACE8C009ACE8C009ACE8C0098D46704728
:1027100010B5FFF7EFFA001D10BD00BF51E4000037
:102720001FB584B000200A9C06AB04AA02A900943D
:10273000AFF3008018B1DDE9020108B010BD034815
:10274000204000F051FA00200146F6E70000207C0E
:102750002DE9FF4F1F464FF03C0987B04FF0004274
:10276000DDE9141001F10108DDF858A002EA40503B
:102770000390002005908346054604460490B969FD
:10278000461E08988847AAF1010A0290BAF1000F84
:102790003BDD02982E2815D01021FEF7BBFF002844
:1027A0002EDB4FF0010B0599014317D0B9F1000F53
:1027B0000BDB4A46C11700F04EFA05430C43A9F162
:1027C000040905E0012004900BE008B145F0010583
:1027D00001200590049820B9361D02E0049800B14C
:1027E000361FB969089808F101088847BBF1000F46
:1027F000AAF1010A0290C9D00999C1F80080C5E781
:102800000298702808D0502806D0F969089888479F
:10281000BBF1000F14D04FE0002002900120BBF16B
:10282000000F049009D0B969089808F10108884799
:10283000AAF10109B9F1000F07DCF9690898884786
:102840006FF001000BB0BDE8F08F2B2804D02D28CD
:102850000CD14FF0FF300490B969089808F10108D5
:102860008847A9F10109B9F1000FE6DD411CE4D068
:102870000A21FEF74FFF0028DFDB029908F101086B
:1028800001EB810100EB41000290B969089888478B
:102890000A21FEF73FFF099AA9F10109B9F1000FDA
:1028A000C2F8008001DD0028E7DAF9690898884756
:1028B0000499029800FB016655EA040004D004F074
:1028C0004041090002D006E0039898E0A40044EAE1
:1028D0009574AD00B61E04F00041080002D16D19D8
:1028E0006441761E159810F0240F03D04FF00B09A9
:1028F0005C4803E04FF028096FF07D0082465645A2
:1029000007DAAAEB06018944B9F1410F01DD4FF066
:10291000410901200021A9F1010200F09CF90246C1
:1029200028400B462140084301D0012100E000214E
:10293000501E029143F1FF3128402140084301D04D
:10294000012000E000200299834651EA0B014FD09C
:10295000002108460FF002F8039900F4400039B155
:1029600000EB80004FF4400100EBD07001EA600002
:102970008015012802DD4FF0FF3000E013D0401C2D
:1029800036D0029860B3BBF1000F0CD14A4601204B
:10299000002100F060F928402140084301D00120C7
:1029A00000E00020E0B101204A46002100F053F988
:1029B000034640190A4661412D1A8C4111D3B9F1E1
:1029C000400F09DD159810F0240F02D0AAF134064B
:1029D00003E0AAF1170600E0761C00254FF0004442
:1029E00006E05B1E42F1FF3220EA030521EA020401
:1029F000CAF10100B04206DA1B490398084301906E
:102A0000002000900EE0039AC4F3D321E80A0A43A1
:102A1000164940EA44500A433146CDE9000268466F
:102A200007F093FC159810F0240F0BD01598C007F1
:102A300015D13868DDE90012031D3B600068C0E96C
:102A400000120CE002A8694607F076FC1598C00752
:102A500005D13868029A011D39600068026040465D
:102A6000F0E6000002FCFFFF0000F07F0000F03FF6
:102A70002DE9FF4F92461D4685B04FF00041DDE93C
:102A8000124BDDE914727F1E01EA4B50414940F0C0
:102A9000FF4940EA0108002122F020004928049162
:102AA00002D04E2828D04CE03BA0012607C88DE874
:102AB0000700A9690698641C88477F1E014606D452
:102AC0001DF8060018B121F0200181420BD0E96900
:102AD00006988847032E34D0082E32D06FF00100BC
:102AE00009B0BDE8F08F761C032E01D0082EE0D18E
:102AF000601CCAF80000DCE7A9690698641C8847D6
:102B00007F1E2AD420F02000412826D1A9690698EA
:102B1000641C88477F1E20D420F020004E281CD142
:102B2000A9690698641C88477F1E48F4002849F468
:102B30008009CAF8004001D4282806D0E96906981F
:102B400088475FEACB7012D022E0A9690698641C1E
:102B500088477F1E01D4002803DAE9690698884770
:102B6000BCE72928F1D1641CCAF80040E9E71BF052
:102B7000240F07D028680499031D2B600068C0E962
:102B8000001805E02868021D2A600068C0F800905F
:102B90002046A5E70000F07F494E46494E4954596A
:102BA0000000000010B50446AFF300802046BDE8E9
:102BB0001040FDF7ACBB70B505460C460A2000E09E
:102BC0006D1C00F041F835B128780028F8D102E0FA
:102BD000641C00F039F814B120780028F8D1BDE861
:102BE00070400A2000F030B810B500F047F8BDE89A
:102BF0001040FFF725BD000010B5012805D00021C9
:102C000003A0FFF7D8FF012010BD09A1F8E70000DD
:102C100053494752544D454D3A204F7574206F66C5
:102C20002068656170206D656D6F7279000000002D
:102C30003A2048656170206D656D6F727920636F11
:102C4000727275707465640008B569468DF800008D
:102C50000320ABBE08BDB2F120030AD5C2F12003A8
:102C600001FA02F120FA03F300FA02F041EA03014B
:102C7000704700FA03F14FF00000704710B50228CA
:102C800003D0410103D50DA112E0002010BD0101C8
:102C900001D50FA10CE0C10001D511A108E0810010
:102CA00001D512A104E0400001D513A100E00021EC
:102CB00015A0FFF780FF012010BD0000496E76616E
:102CC0006C6964204F7065726174696F6E000000FA
:102CD000446976696465204279205A65726F000004
:102CE0004F766572666C6F7700000000556E646504
:102CF00072666C6F77000000496E657861637420BE
:102D0000526573756C7400005349474650453A202C
:102D100041726974686D6574696320657863657074
:102D200074696F6E3A2000005FEA400C08BF91F0B2
:102D3000000F4FEA8C234FEAC12243EA51514FEA78
:102D40001C5018BF00F5F0404FEA300018BF41F0AA
:102D500000415FEA6C5C00F02980BCF1FF3F08BFD6
:102D600040F080407047130C06BF12044FF0100C67
:102D70004FF0000C130E04BF12020CF1080C130FDD
:102D800004BF12010CF1040C930F04BF92000CF16C
:102D9000020CD30F04BF52000CF1010C11464FF08E
:102DA0000002A0F11F00A0EB0C00704711F0004FD3
:102DB00008BF704731F000413FF4D5AF0B0C06BFA0
:102DC00009044FF0100C4FF0000C0B0E04BF090269
:102DD0000CF1080C0B0F04BF09010CF1040C8B0F54
:102DE00004BF89000CF1020CCB0F04BF49000CF1A9
:102DF000010CCCF12003A0EB0C0022FA03F302FA41
:102E00000CF241EA030100F10100704720F07F4C11
:102E100080EA030023F07F47ACEB070303F57C5304
:102E200000F0004003F1FF032DE980494FEA154B04
:102E300009B44FEA144325EA0B4E24EA03480FF283
:102E4000042606EB132749083E785FEA320203FBAB
:102E50000667C7F5000707FB06F64FEA54374FEA47
:102E6000D64606F1020607FB066CCCF1005C4FEA81
:102E70001C472CEA074C07FB06F40CFB06F504EB99
:102E800015464FEA961634BF00204FF000404FEA37
:102E9000D13706FB07FC4FEA1C4C0CFB0BF7D21B8F
:102EA00003FB0CF761EB07010CFB0EF7B0EB0740DF
:102EB00072EB17420CFB08F734BFA2EB0742B2EBF0
:102EC000074261EB17414FEA0C444FEA910706FBBA
:102ED00007FC4FEA1C4C0CFB0BF7B0EBC74072EB46
:102EE000573203FB0CF734BFA2EBC742B2EBC74229
:102EF00061EB57310CFB0EF7B0EBC70072EB57726A
:102F00000CFB08F734BFA2EBC702B2EBC70261EBC0
:102F10005771039F4FEA816141EA921104EBCC049F
:102F20004FEAD1374FEA826206FB07FC42EA901271
:102F30004FEA80604FEA1C4C0CFB0BF7D21B03FBE3
:102F40000CF761EB07010CFB0EF7B0EB074072EBDF
:102F500017420CFB08F734BFA2EB0742B2EB074263
:102F600061EB17414FEA8C554FEA910704EB9C2423
:102F700006FB07FC4FEA1C4C0CFB0BF7B0EBC74001
:102F800072EB573203FB0CF734BFA2EBC742B2EB34
:102F9000C74261EB57310CFB0EF7B0EBC70072EB89
:102FA00057720CFB08F734BFA2EBC702B2EBC702A3
:102FB00061EB577115EB4C254FEA816141EA9211A3
:102FC0004FEA82624FEAD13742EA901206FB07FCD1
:102FD00044F100044FEA80604FEA1C4C0CFB0BF7F5
:102FE000D21B03FB0CF761EB07010CFB0EF7B0EBF8
:102FF000074072EB17420CFB08F734BFA2EB074205
:10300000B2EB074261EB174115EB1C154FEA81311A
:1030100041EA92414FEA823242EA90424FEA8030DE
:103020004FEA0C7644F1000448EA03434EEA0B48A9
:103030004FF0000EB2EB080C71EB030724BF6246A1
:1030400039464EEB0E0E4FF0000B0018524149412D
:103050004BEB0B0BB2EB080C71EB03077BF1000B96
:1030600024BF624639464EEB0E0E4FF0000B00189F
:10307000524149414BEB0B0BB2EB080C71EB0307D0
:103080007BF1000B24BF624639464EEB0E0E51EA2F
:10309000020718BF46F0010616EB0E7655F1000246
:1030A00054F1000103D5BDE88901BDE80088BDE801
:1030B0008901BDE80048B619524141EB0101A3F175
:1030C0000103704780807F7E7D7C7B7A797877767C
:1030D00076757473727171706F6E6E6D6C6C6B6AF5
:1030E0006A69686867666665646463636261616093
:1030F000605F5F5E5E5D5D5C5C5B5B5A5A59595810
:103100005857575656555555545453535252525179
:10311000515050504F4F4F4E4E4D4D4D4C4C4C4BCF
:103120004B4B4A4A4A494949484848474747474616
:103130004646454545444444444343434342424252
:103140004241414146EA0646A3F570534FEA16460E
:1031500046EA42564FEAD22242EA415210B54FEABD
:10316000D121A3F1010300F02FF820F0004000F17D
:10317000020C00F0004701EB00501146BCF5006F57
:1031800040EA070000D210BDBAF1000F0AD01CB50A
:1031900003B44FF004004FF004010EF0DFFB0FBC4E
:1031A000BDE810404FF00001BBF1010FB9BF04486A
:1031B0004FF0FF310348002140EA070010BD00BF77
:1031C000FFFFEF7F0000F07F002B9C4630D477009C
:1031D0002BD01CB54FEA370703B44FF010004FF067
:1031E0001001BAF1000F06D0BCF1000FDCBF40F0B7
:1031F000080040F008010EF0B1FB0FBCBDE8104024
:103200000BF1010BBBF1010F08BF5FEA170722BFEB
:1032100012F1010211F101014FF0004143F10003ED
:1032200000F0004043EA00007047F9D35708D0E7A8
:1032300046EA064613F1400F4FEA16461FDD13F12A
:10324000200FDFBF16430A46002120335B42BED069
:10325000C3F1200746EA064602FA07F74FEA164688
:1032600046EA0706C3F1200722FA03F201FA07F73C
:1032700021FA03F14FF0000342EA0702A7E746EA0A
:10328000020646EA06464FEA164646EA0106BCBF73
:1032900046EA0646360C4FF000034FF000024FF0AE
:1032A000000194E72DE9804C9A46934670B491E86A
:1032B000380007C831EA400C48BF34EA430C03D554
:1032C000FFF7A4FDFFF780FFF0BCBDE8008C2DE9FF
:1032D000804C9A46934670B491E8380007C831EAAA
:1032E000400C48BF34EA430C03D5FFF78FFDFFF7CE
:1032F00029FFF0BCBDE8008C2DE9804C9A4693462E
:1033000070B491E8380007C810F0804F08BF13F080
:10331000804F03D100F01AF8FFF756FFF0BCBDE86C
:10332000008C2DE9804C9A46934670B491E83800A1
:1033300007C810F0804F08BF13F0804F03D100F092
:1033400005F8FFF7FFFEF0BCBDE8008C20F07F47DA
:1033500080EA030023F07F4C07EB0C03A3F57C53BA
:1033600000F00040A3F1FE0392F0000F00F0B380E4
:1033700095F0000F00F077802DE901494FEA1140E8
:103380004FEA144621EA004800FB06FC24EA0647FF
:1033900008FB06F607FB08F800FB07F718EB0648E2
:1033A0004CEB164C4FEA124B18EB07484FEA154608
:1033B0004CEB174022EA0B4E0BFB06FC25EA0647B6
:1033C0000EFB06F607FB0EFE0BFB07F71EEB064E89
:1033D0004CEB164C4FF000061EEB074E4CEB174B18
:1033E00018EB0B0840F1000018EB0E0B58EB00082F
:1033F00040F100008F1A4FF000013CBFC943661B2B
:1034000014BFB5EB040C00213CBFC943F61B4FEAC7
:1034100017444EEA8E0E27EA04454FEA1C4704FB88
:1034200007622CEA074C05FB07F70CFB05F604FBCB
:103430000CFC16EB074642EB174216EB0C4642EB30
:103440001C421BEB060658EB0202414146EA9E066F
:1034500001D5BDE80189B619524141EB0101A3F143
:103460000103BDE801894FEA14454FEA114724EAF8
:10347000054621EA074C05FB07F406FB07F70CFBA2
:1034800006F105FB0CFC11EB074144EB17444FEA36
:10349000124711EB0C4144EB1C4422EA074C05FB9C
:1034A00007F206FB07F70CFB06F605FB0CFC16EB18
:1034B000074642EB174216EB0C4642EB1C456A18D6
:1034C00054F1000148BF7047B619524141EB010168
:1034D000A3F10103704795F0000F37D04FEA114276
:1034E0004FEA144721EA024624EA074C02FB07F19F
:1034F00006FB07F70CFB06F402FB0CFC14EB07447D
:1035000041EB17414FEA154714EB0C4441EB1C41CA
:1035100025EA074C02FB07F506FB07F70CFB06F64E
:1035200002FB0CFC16EB074645EB174516EB0C4669
:1035300045EB1C42121951F1000148BF7047B61902
:10354000524141EB0101A3F1010370474FEA1445D9
:103550004FEA114724EA054621EA074C05FB07F12B
:1035600006FB07F70CFB06F24FF0000605FB0CFC10
:1035700012EB074241EB174112EB0C4251EB1C419D
:1035800048BF7047921841EB0101A3F10103704756
:1035900010B50749074800F015F80749074800F03B
:1035A00011F8BDE810400449054800F00BB80000D0
:1035B00085FD0008B805002009D30008000600209A
:1035C0004806002070B50D46016804460868496841
:1035D000C0F38000C1F3C01138B131B101212046E0
:1035E000A84721686FF00C000860216808684968E6
:1035F000C0F34000C1F34011002808D0002906D0D4
:1036000000212046A84721686FF01200086070BDB5
:10361000464910B54A6822F440324A604A68436815
:103620001A434A6001684A6822F480724A6001685D
:103630004A68036942EA03224A6001684A6822F044
:1036400040724A6001684A6883681A434A600168A8
:103650008A6822F400628A6001688A68C3681A4333
:103660008A60816A6FF07062D14201688A6822F0D4
:1036700070628A6001688A680CD0836A1A438A6023
:1036800001688A6822F040528A6001688A68C36AC9
:103690001A4301E022F040528A6001688A6822F0F1
:1036A00002028A6001688A68037E42EA43028A60F5
:1036B00090F82010002901684A680FD042F4006297
:1036C0004A6001684A6822F460424A6001684A68B8
:1036D000174C436A04EB43331A4301E022F40062BF
:1036E0004A600168CA6A22F47002CA620168CA6A42
:1036F000838B104C04EB03531A43CA6201688A6837
:1037000022F400728A6001688A6890F8303042EAD8
:1037100043228A6001688A6822F480628A600168B4
:103720008A68406942EA8020886010BD0023014019
:1037300000E0FFFF0000F0FFFEE7002070470020E0
:103740007047000010B500220449054804F0F0FE5F
:103750000449034804F0DFFE002010BD2857002074
:103760004C4A0020284F002010B50146034804F0C1
:10377000D2FE024804F0A8FE002010BD4C4A0020F2
:1037800000207047094A10B5D2F8BC22D2F81422A2
:103790000AB1012010BD0A460146044804F0C8FEE3
:1037A000BDE81040014804F03DBF00004C4A002035
:1037B000014800F091BE000048090020014800F0D7
:1037C0008BBE0000A8090020014800F085BE000063
:1037D000080A0020014800F07FBE0000680A0020AF
:1037E00001681823CAB2103AB2FBF3F2054B6FF32B
:1037F0000901032A9B5CC36500D9091D8165084640
:10380000704700009C1C010810B5014600208B6920
:103810008A6A4FF0C07453B1B3F5005F15D072B12E
:10382000012A0CD0022A0AD0032A09D104E01AB1D5
:10383000012A06D0022A03D1C96AC90100D5012094
:1038400010BDC96AA142FAD010BD002AF7D0012AE2
:10385000F2D0022AF3D0032AF3D010BD30B50468A9
:10386000256825F480252560046863608368402B03
:10387000036803D099600068C26030BD9A60006838
:10388000C16030BDF8B5044601894068002201F0EE
:10389000A4F8052009F020F821890122606801F0D0
:1038A0009CF80A2009F018F80020ADF8000009F093
:1038B0001FF805464FF4FA7605E000BF09F018F846
:1038C000401BB04207D80021204600F07DF8ADF83B
:1038D00000004005F2D4BDE8F840012008F0FCBF2C
:1038E00070B500240546214600F06EF841050BD561
:1038F0004405640D08D14FF40061284600F064F8D7
:10390000000601D54FF48064204670BD70B50546B1
:10391000C87E0C46002856D00021284600F054F8F6
:10392000C0F380212170C0F340216170C0F30021F9
:10393000A170C0F3C011E170C0F380112171C0F318
:1039400040116171C0F30011A171C0F3C001E171B8
:10395000C0F380012172C0F34001617200F00100E8
:10396000A0724FF40061284600F02EF8C0F3C01199
:10397000217300F00F00E0814FF48051284600F0E1
:1039800023F800F00301217400F00401617400F0D9
:103990000801A17400F03001E17400F4F860A08225
:1039A0004FF4C051284600F00FF800F00301A17554
:1039B00000F00C01E17500F03001217600F04000CC
:1039C00060760020E07670BD7FB50D460446018A22
:1039D000C068002201F001F8012008F07DFF0020FE
:1039E000ADF8080045F400404BF6EF65ADF80C006B
:1039F000ADF804504FF47A763346012203A92068CB
:103A000002F018F9218A0122E06800F0E6FF0120A7
:103A100008F062FF218A0022E06800F0DEFF01204A
:103A200008F05AFF0096012301AA02A9206802F0BB
:103A3000B4F9012008F050FF218A0122E06800F06B
:103A4000CCFF012008F048FFBDF80400A84201D1D6
:103A5000FDF7A2F804B0C0F30A0070BD70B50446CB
:103A60007430064604F18805FFF70CFF29463046FE
:103A700000F034F81020E8744FF4B860A8820820F1
:103A80009FED130AE87584ED2B0ADFED120A94ED21
:103A90002A1ADFED111A60EE810A21EE811A21EE59
:103AA000000AF4EEC00AF1EE10FA01D2B0EE600A9C
:103AB00084ED360A0124AC762946304600F06DF8D4
:103AC000EC7629463046BDE87040FFF71FBF000086
:103AD000CDCCCC3C713D8A3EEB51B83F70B5002651
:103AE00005468E760C46CE76012008F0F5FE31466E
:103AF0002846FFF769FFC0F380212170C0F3402101
:103B00006170C0F30021A170C0F3C011E170C0F377
:103B100080112171C0F340116171C0F30011A171D6
:103B2000C0F3C001E171C0F380012172C0F3400114
:103B3000617200F00100A0724FF400612846FFF7A7
:103B400043FFC0F3C011217300F00F00E0814FF478
:103B500080512846FFF738FF00F00301217400F080
:103B60000401617400F00801A17400F03001E174F7
:103B700000F4F860A0824FF4C0512846FFF724FFFC
:103B800000F00301A17500F00C01E17500F03001B7
:103B9000217600F04000607670BD70B50546887EE5
:103BA0000C4600281BD0227C607CE37C0243A07C76
:103BB0004FF4805118430243A08A0243284600F084
:103BC0000FF8A27DE07D637E0243207E4FF4C0515A
:103BD00018430243284600F003F80020A07670BD89
:103BE000F8B50C4616460546018AC068002200F06A
:103BF000F4FE012008F070FEC6F30A000443ADF89D
:103C000000404FF47A7301226946286802F012F8E6
:103C1000012008F061FE298A0122E86800F0DDFE3B
:103C2000012008F059FEF8BD704772B6FEE70000AB
:103C300070B505462DED0A8BB0EE608AB0EE40BA45
:103C400000F1B00480ED348AD0ED190A90ED1A0A23
:103C5000B1EE601A71EE408A30EEC00ADFED4F0A15
:103C600020EE20AA07F0ACFEB0EE409AFCF7D6FB9F
:103C7000F0EE409AB0EE490AFCF70CFC69EEA8AAF7
:103C8000B0EE409A464849EE0AAA29EE8AAA09EE01
:103C900068AA7BEE6ABA84ED09AAC4ED0BAA38EED5
:103CA0004ACA94ED011AD4ED030A94ED040A4BEECE
:103CB000810A0CEE010A90ED001ADFED3A1A21EEAE
:103CC00021BAF7EE001A81EE8B1A61EE208A21EEFE
:103CD000008A28EEA80A08EE080A06F0EDFA9FED21
:103CE000321AC1EE000A10EE900AB0F17E5F12DACD
:103CF00068EEA08A28EE208AD4ED030A9FED2B0AF5
:103D000060EE800AC4ED030AD4ED040A20EE800AB6
:103D100084ED040A15E094ED021A9FED250AD4ED16
:103D2000030A21EE001A4BEE810AC4ED030A94ED5A
:103D3000021AD4ED040A21EE000A4CEE000AC4ED8A
:103D4000040A28EEAA0A69EE880A284608EE0A0A3A
:103D500049EE280A84ED050A29EEA80A09EE480A68
:103D60002BEE001A84ED061A2BEE201A84ED071AAA
:103D700009F088FB0A21284606F0C0FCA5F860007F
:103D8000B5F85E10884205D30B2028730020BDECE7
:103D90000A8B70BD0BF0E0FB0120F8E73ACD133F32
:103DA000BC010020ABAA2A3FAC5C313FA4707D3F30
:103DB0005674FE3810B504462DED048BB0EE608AC3
:103DC000F0EE408A07F0FCFDF0EE409AFCF726FB8F
:103DD000B0EE401AB0EE690AB0EE419AFCF75AFB19
:103DE00069EE281A69EE080A204640EE481A40EEAD
:103DF000280AB0EE610A09F06DFB0921204606F0A1
:103E00007DFCB4F85E10884205D30E20207300209C
:103E1000BDEC048B10BD0120FAE7000070B590F8EE
:103E20003C20694D012A19D0012280F83C200A6803
:103E300007230468092A13D9E6680A3A02EB42020A
:103E400093409E43E6600A788B680A3A02EB42028E
:103E500093400268D4682343D36010E0022070BD11
:103E6000266902EB420293409E4326610A788B68E2
:103E700002EB420293400268146923431361026813
:103E8000936B23F4401393630268936B0C8A4F4E39
:103E900006EB0454234393630A790B7CD21AD21C99
:103EA00002EB82021F2393400268946B9C4394634D
:103EB0000A790B7CD21AD21C02EB82030A8892B2D6
:103EC0009A4003689C6B22439A638A69AA420268FB
:103ED000936823F470239360026893680CD08C6914
:103EE000234393600268936823F44013936002684D
:103EF0009368CC69234301E023F4401393604A7D27
:103F0000002A0268536802D043F4806301E023F47E
:103F1000806353600A7D002A0268536802D043F42C
:103F2000805301E023F4805353604A68012A16D07D
:103F3000022A1FD0032A026827D0136A6FF30B03EB
:103F400013620268136ACC6823431362214B04682E
:103F50001F4A9C4227D10C68122C20D023E0026813
:103F600053696FF30B03536102685369CC682343B1
:103F70005361EBE7026893696FF30B039361026887
:103F80009369CC6823439361E0E7D3696FF30B0334
:103F9000D3610268D369CC682343D361D6E7546800
:103FA00044F48004546004689C4208D109681029D4
:103FB00001D0112903D1516841F400015160002161
:103FC00080F83C10084670BD01000F000000F0FFB3
:103FD000002301400020014008B500220092036840
:103FE000521F1A60012911D002290CD0032906D0D2
:103FF000042901D0009808BD0068806C01E00068C9
:10400000406C009008BD0068006CFAE70068C06B67
:10401000F7E7000078B50024009490F83C20012ACE
:1040200019D0012280F83C200A6807230568092A74
:1040300013D9EE680A3A02EB420293409E43EE60C7
:104040000B788A680A3B03EB43039A400368DD68F8
:104050002A43DA6010E0022078BD2E6902EB4202AA
:1040600093409E432E610B788A6803EB43039A408A
:1040700003681D692A431A614A681F23072A13D25D
:1040800005686E6B521E02EB820293409E436E6384
:104090000B790A885B1E92B203EB83039A40036894
:1040A0005D6B2A435A6327E005680D2A12D22E6BF6
:1040B000D21F02EB820293409E432E630B790A8843
:1040C000DB1F92B203EB83039A4003681D6B2A4304
:1040D0001A6311E0EE6A0D3A02EB820293409E43AE
:1040E000EE620B790A880D3B92B203EB83039A4090
:1040F0000368DD6A2A43DA62164B0568144A9D425A
:1041000006D10D68122D03D1556845F48005556020
:1041100005689D4218D10B68102B01D0112B13D1CB
:10412000536843F400035360096810290CD10A490D
:104130000A4A0968B1FBF2F101EB8101490000E094
:10414000491E00910029FBD180F83C40002078BD39
:1041500000230140002001403400002040420F00B5
:104160000068C06C704770B504004FF0000503D0C4
:10417000206C002610B107E0012070BD204600F041
:104180001DF8666484F83C60206CC00610D4206C76
:1041900020F4885040F0020020642046FFF738FAEF
:1041A0006664206C20F0020040F00100206400E012
:1041B000012584F83C60284670BD000070B586B0CB
:1041C000044614216846FCF7B3FD3649344E236893
:1041D0000024344A143903253348B34225D11368E7
:1041E00043F480731360126802F4807205920A68C7
:1041F00042F004020A600A6802F0040205920A68AA
:1042000042F001020A600968029401F0010105917F
:104210003F21CDE90015694600F0E2FA7020CDE9B2
:10422000000569460294214814E0214EB3421DD195
:10423000136843F400731360126802F4007205926D
:104240000A6842F004020A60096801F0040105915D
:1042500009211FE000F0C4FA00220521122000F01D
:1042600043FC122000F033FC06B070BD114EB34287
:10427000FAD1136843F480631360126802F4806219
:1042800005920A6842F004020A60096801F004011C
:1042900005910621CDE9001502946946DAE7000090
:1042A0000020014044380240000802400000024063
:1042B000002101400022014070B5040003D094F8B1
:1042C000200010B104E0012070BD204600F082F80B
:1042D0002068016841F00101016000F083FB0546A0
:1042E000052604E000F07EFB401B0A2811D8206858
:1042F0004068C007F6D02068016821F00201016023
:1043000000F070FB05460BE000F06CFB401B0A2838
:1043100006D9606A40F40030606284F82060D2E719
:10432000206840688007EFD4207E0128206801685B
:104330003DD021F080010160607E01282068016885
:1043400038D021F040010160A07E0128206801687A
:1043500033D021F020010160E07E0128206801684F
:104360002ED041F010010160207F012820680168F3
:1043700029D021F008010160607F012820680168D0
:1043800024D021F004010160D4E902010843D4E9FA
:104390000412114308436168491E08432168C8613B
:1043A00000206062012084F82000002070BD41F0F0
:1043B0008001C0E741F04001C5E741F02001CAE7B4
:1043C00021F01001CFE741F00801D4E741F00401EA
:1043D000D9E7000010B586B0044614216846FCF702
:1043E000A7FC14492068884221D1134800210268A3
:1043F00042F000720260006800F0007005900E4804
:104400001038026842F002020260006800F0020008
:1044100005904FF4407000900220CDE90101032087
:104420000390092004906946044800F0D9F906B0C9
:1044300010BD00000064004040380240000402400B
:104440002DE9F0410446876D00F0CCFA064694F859
:1044500035000025022806D08020606584F834509D
:104460000120BDE8F0812068016821F0160101609B
:104470002068416921F080014161206C08B9A06C7D
:1044800020B12068016821F00801016020680168FE
:1044900021F0010101600CE000F0A4FA801B052866
:1044A00007D920206065032084F8350084F8345053
:1044B000D7E720680068C007EED194F85C103F2071
:1044C0008840B860012084F8350084F8345000201A
:1044D000C7E7406D704700002DE9F84304464FF0F0
:1044E0000009CDF8009063484FF41651A56D00689F
:1044F000B0FBF1F72E6894F85C10082000FA01F187
:1045000031420FD021680A6852070BD50A6822F0A1
:1045100004020A6094F85C108840A860606D40F066
:104520000100606594F85C104FF0010808FA01F092
:10453000304208D021684969090604D5A860606D39
:1045400040F00200606594F85C100420884030421E
:1045500008D021680968890704D5A860606D40F01B
:104560000400606594F85C1010208840304218D038
:1045700021680968090714D5A86020680168490303
:1045800004D50068000308D5A16C07E00168C905DF
:1045900003D4016821F008010160216C09B12046B3
:1045A000884794F85C1020208840304231D0216840
:1045B0000968C9062DD5A86094F83500052820683B
:1045C000016806D0490347D5006800031DD4616C1B
:1045D0001CE021F0160101602068416921F0800192
:1045E0004161206C08B9A06C20B12068016821F0FD
:1045F0000801016094F85C103F208840A86084F8AE
:10460000358084F83490216D1FE0E16B09B12046BC
:104610008847606D00282BD0606DC00714D005203E
:1046200084F835002068016821F0010101600098DC
:10463000401C0090B84203D820680068C007F6D13B
:1046400084F8358084F83490E16C002910D001B0F2
:104650002046BDE8F04308470168C905D5D4016884
:1046600021F01001016084F8358084F83490CCE7A3
:10467000BDE8F883340000202DE9F041044600F045
:10468000B1F906465CB1022084F83500002584F8B3
:1046900034502068016821F0010101600DE0012023
:1046A000BDE8F08100F09EF9801B052805D9202087
:1046B0006065032084F83500F2E720680068C007D1
:1046C000F0D12268116820480140D4E90103184361
:1046D000D4E903363343184363691843A369184385
:1046E000E3691843236A18430843616A042903D124
:1046F000D4E90B1319430843106020684069666AC7
:1047000020F0070130460E43012704280CD1A06A8F
:104710000643E06A40B12046FFF776F820B140201A
:10472000606584F83570BAE7206846612046FFF777
:1047300057F894F85C203F2191408160656584F8CA
:1047400035700020ACE700003F8010F02DE9F0410B
:104750000446866D90F83400002501280DD0012014
:1047600084F8340094F835700020012F07D084F8C5
:10477000340002252846BDE8F0810220FBE702272D
:1047800084F8357060652046FFF768F894F85C108F
:104790003F208840B0602068016841F01601016048
:1047A000206C20B12068016841F008010160206898
:1047B000016841F001010160DCE7000070B50446CA
:1047C00000F010F90546601C02D00448007804444B
:1047D00000F008F9401BA042FAD370BD2800002069
:1047E0002DE9F84FDFF8BCA10022012503264FF088
:1047F0000F090AF1040BAAF1040E00BF0B6805FAB9
:1048000002F42340A34270D10F7907F00307012F70
:1048100001D0022F16D187684FEA420806FA08FC39
:1048200027EA0C07D1F80CC00CFA08FC4CEA070C7C
:10483000C0F808C04768A7430C79C4F3001494403B
:104840003C4344600C79E443A4070AD0C4684FEAAF
:10485000420C06FA0CF7BC438F6807FA0CF72743A3
:10486000C7600C7904F00304022C12D1D40800EBC9
:10487000840CDCF820405707FF0E09FA07F824EAF9
:104880000804D1F8108008FA07F848EA0408CCF8C0
:10489000208004684FEA420C06FA0CF7BC430F79FB
:1048A00007F0030707FA0CF7274307604C6814F476
:1048B000403F70D03C4C276847F48047276024680D
:1048C00022F0030704F480440094384C07EB040CF6
:1048D000DCF8084897074FEA177809FA08F7BC434D
:1048E000334FB84202D1002724E054E0314FB842A0
:1048F00001D101271EE0304FB84201D1022719E053
:104900002E4FB84201D1032714E02D4FB84201D1F8
:1049100004270FE02B4FB84201D105270AE02A4FA8
:10492000B84201D1062705E0284FB84201D1072738
:1049300000E0082707FA08F72743CCF80878DAF8E8
:1049400000405746D1F804C09C435FEACC2C00D508
:104950001C433C60DBF800405F46D1F804C09C4338
:104960005FEA8C2C00D51C433C60DEF800407746A3
:10497000D1F804C09C435FEA8C3C00D51C433C60EA
:10498000084F083F3C68D1F804C09C435FEACC3C28
:1049900000D51C433C60521C102AFFF42FAFBDE829
:1049A000F88F0000083C01404438024000300140CC
:1049B000000002400004024000080240000C0240D7
:1049C000001002400014024000180240001C024087
:1049D0000069084000D0012070470AB1816170472A
:1049E0000904FBE7014880687047000028000020A8
:1049F00002488168027811448160704728000020D5
:104A00000B4810B5016841F400710160016841F480
:104A100080610160016841F480710160032000F051
:104A200083F80F2000F006F800F024F8002010BDF5
:104A3000003C024070B50D4D04464FF47A71287861
:104A4000B1FBF0F00A490968B1FBF0F001F096FA09
:104A500048B9102C07D200222146501E00F044F81D
:104A600000206C6070BD012070BD00002800002097
:104A7000340000200C4882B0016841F4804101609C
:104A8000006800F4804000900748001F016841F072
:104A9000805101600068002200F0805000900F21DA
:104AA000901E02B000F020B84438024000280DDB10
:104AB00000F01F02012191404009800000F1E02038
:104AC000C0F88011BFF34F8FBFF36F8F704700287E
:104AD00009DB00F01F02012191404009800000F134
:104AE000E020C0F800117047F0B40E4B1B680C4674
:104AF000C3F30223C3F10705042D00D90425191DB2
:104B0000072901D2002300E0DB1E012606FA05F189
:104B1000491E214099409E40761E16403143F0BC0C
:104B200005F09BBA0CED00E0064900F007020868AA
:104B30004FF6FF03184040EA0220034A1043086082
:104B4000704700000CED00E00000FA0570470068B7
:104B5000416200207047F0B50368586A39B19C6A19
:104B60004FF4827600EB144400204D1E0AE040EA28
:104B7000024098620FE006EB8007DF59401C04EB0F
:104B80001744C0B2A842F6D344EA02404FF4807200
:104B900002EB810158500020F0BDD0F8080503F069
:104BA000C7BF01EBC10200EB8202D0F80805D26C4E
:104BB00003F01CBF01EBC10200EB8202D0F8080534
:104BC000D2F88C2203F06DBFD0F8080503F0B2BF15
:104BD0000A0601F00F0101EBC10100EB810101D5D3
:104BE0003C3101E001F51F71006804F0E7BE70B5CB
:104BF00004460B0601F00F0000EBC00104EB81013D
:104C00004FF001024FF0000503D581F83D203C3103
:104C100003E081F87D5201F51F71087094F8BC041F
:104C2000012808D084F8BC24206804F081FB84F8B3
:104C3000BC54002070BD022070BD70B5044601F068
:104C40000F006268904201D9012070BD0B0601F08F
:104C50000F0101EBC10104EB81014FF001024FF0A4
:104C6000000503D581F83D203C3103E081F87D52F9
:104C700001F51F718D70087094F8BC04012808D0EC
:104C800084F8BC24206804F04FFD84F8BC54002054
:104C900070BD022070BD01F00F0101EBC10100EBFE
:104CA0008100D0F89C0270472DE9F04104460F06C0
:104CB00001F00F0000EBC00104EB81014FF0010691
:104CC0004FF0000503D581F83D603C3103E081F8E9
:104CD0007D5201F51F710870CA600B714A7802B1EC
:104CE0000881022B00D14D7194F8BC04012809D031
:104CF00084F8BC64206804F073FA284684F8BC5435
:104D0000BDE8F0810220FBE770B50C4601F00F050D
:104D100005EBC50100EB8101C1F89432C1F88C228A
:104D20000023C1F89C3281F87D3281F87C520369FE
:104D300001F51F71012B00D14A612207027C006836
:104D400003D004F049FD002070BD04F033FCFAE705
:104D500070B504460D4601F00F006168884201D924
:104D6000012070BD29064FF000064FF0010207D563
:104D700000EBC00104EB810181F83D203C3107E0EC
:104D800005EBC50104EB810181F87D6201F51F711E
:104D90008A70087094F8BC04012807D084F8BC24F9
:104DA000206804F0EDFC280702D007E0022070BD67
:104DB000217C04F2C442206804F08AFC84F8BC64BC
:104DC000002070BD70B50C4601F00F0505EBC50164
:104DD00000EB81014B65CA640023CB65012381F898
:104DE0003D3001F83C5F0369012B00D14A61220785
:104DF000027C006803D004F0EFFC002070BD04F0DA
:104E0000D9FBFAE72DE9FC5F05680446284604F063
:104E100076FE00287DD1206804F09DFE002878D021
:104E2000D5F80808C0F30D20C4F8FC04206804F08D
:104E300092FE800704D52068416901F002014161BA
:104E4000206804F088FEC10604F2C440009034D506
:104E50002068816921F0100181612F6A07F00F003D
:104E600000EBC00004EB8006C7F3434006F51F7655
:104E7000022802D0062811D01AE047F6F070074247
:104E800016D0C7F30A1217462846316904F067FEA8
:104E9000306938443061306A384408E008222846D6
:104EA000009904F05CFE306AC7F30A1108443062CE
:104EB0002068816941F010018161206804F04BFE97
:104EC00000034FF0080B4FF0000A4FF001097CD5AA
:104ED0000026206804F01EFE074674E0F80770D034
:104EE000F1B2206804F02FFE8046C00707D005EB22
:104EF0004611C1F8089B3146204602F027FA5FEAC6
:104F0000087024D505EB4611C1F808BB2068016C78
:104F100000E025E200EB46100191D0F8082BFC4B95
:104F2000994205D9110403D54FF40041C0F8081B7C
:104F3000204600F005FBF6490198884207D9206910
:104F4000012804D120680121009A04F0C1FB5FEA26
:104F5000C86004D505EB46111020C1F8080B5FEAC4
:104F600088701DD56869000605D5D5F8040840F499
:104F70008061C5F8041806EBC60004EB800090F8C9
:104F80007F1200F51F70012905D180F803A0F1B24E
:104F9000204600F0EBF905EB46110220C1F8080BA2
:104FA0005FEA886004D505EB46102021C0F8081B95
:104FB0005FEA884005D505EB46104FF40051C0F874
:104FC000081B7F08761C002F88D1206804F0C3FDE1
:104FD00040036FD5206804F096FD0746002667E081
:104FE000F80763D0F1B2206804F09BFD8046C0074B
:104FF00023D006F00F0209FA02F0D5F834288243D4
:10500000C5F8342805EB4610C0F808992069012836
:105010000FD106EBC60004EB8000D0E91221114449
:10502000C16436B9606D20B920680121009A04F08E
:105030004FFBF1B22046FFF7B4FD5FEA087003D5DD
:1050400005EB4611C1F808B95FEAC86004D505EB65
:1050500046111020C1F808095FEA486004D505EB45
:1050600046104021C0F808195FEA887017D531460C
:10507000284604F017FD06EBC60004EB800090F80C
:105080003F103C30012905D180F803A0F1B2204641
:1050900000F068F905EB46110220C1F808095FEA43
:1050A000086003D53146204602F0B6F97F08761C29
:1050B000002F95D1206804F04EFD002811DAD5F8B4
:1050C000040820F00101C5F8041894F8F40401283C
:1050D0002BD0204600F018FA2068416901F0004109
:1050E0004161206804F037FD00050BD5D5F80808AC
:1050F000C00702D0204600F04BFA2068416901F455
:1051000000614161206804F026FDC00466D5D5F831
:10511000040820F00100C5F804081021206804F0FC
:10512000C1FC00214FF67F321FE084F8F4A4002177
:105130002046FFF70BFDCFE705EB4110C0F808292B
:10514000D0F8003923F40013C0F80039C0F8082B58
:10515000D0F8003B23F40013C0F8003BD0F8003B2C
:1051600043F00063C0F8003B491C60688842E3D804
:10517000D5F81C0840F00111C5F81C18206B002858
:1051800028460DD0D0F8840840F00B01C5F88418EB
:10519000D5F8440840F00B012846C5F844180DE046
:1051A000D0F8140842F22B010843C5F81408D5F8CA
:1051B000100840F00B012846C5F81018D0F8000878
:1051C00020F4FE61C5F80018217C2068009A04F0E4
:1051D0007FFA2068416901F480514161206804F040
:1051E000BAFC800415D5206804F03AF8206804F071
:1051F00079FCE06000F07EFA0146227B206804F032
:105200000DFD204600F06AF92068416901F4005163
:105210004161206804F09FFC000707D5204600F09C
:1052200077F92068416901F008014161206804F0C4
:1052300092FC000616D5A86920F08000A86101261E
:105240000DE000BF06EBC60004EB800090F87F0283
:10525000012803D1F1B22046FFF7BAFC761C606842
:10526000B042EFD8206804F076FCC00221D50126B8
:105270004F4616E005EB4610D0F8001906EBC600C5
:1052800004EB800090F84020012A09D1002907DAB8
:1052900080F83F70F0B240F080012046FFF798FCA4
:1052A000761C6068B042E5D82068416901F480113D
:1052B0004161206804F04FFC800234D501204B4648
:1052C00029E000BF05EB4011D1F8001B00EBC00244
:1052D00004EB820696F88022012A1BD1002919DAF4
:1052E00094F8FC2401F4803102F00102914211D1C2
:1052F00086F87F32A96941F08002AA6169690906CE
:1053000008D4D5F8040840F40070C5F8040805E096
:105310000A30544F401C61688142D3D820684169EB
:1053200001F400114161206804F015FC400007D52C
:105330002046FFF732FC2068416901F0804141615D
:10534000206804F008FC40070AD520684568680713
:1053500002D52046FFF738FC2068416829434160A8
:10536000BDE8FC9FD0F8080503F038BCD0F808056C
:1053700003F048BC2DE9F0418AB0040005D094F850
:10538000BD042668002520B108E001200AB0BDE870
:10539000F08184F8BC54204600F05EF8032084F8C5
:1053A000BD04F06BC00500D42561206804F0FCF852
:1053B00004F11001282288466846FBF787FC94E830
:1053C0000F0003F05BFF0226C8BB0021206804F039
:1053D000E5FB002001270EE000EBC00104EB81019A
:1053E00081F83D7001F83C0F08810D71CD600D61B1
:1053F000401CC0B28D6161688142EDD8002011E08F
:1054000000EBC00104EB810181F87D5281F87C0240
:1054100081F88052C1F88852C1F88C52401CC0B249
:10542000C1F8945261688142EAD828224146684610
:10543000FBF74CFC94E80F0003F0FCFF10B184F87C
:10544000BD64A2E784F8385084F8BD74206803F086
:10545000E3FF00209AE7000010B586B0044614214F
:105460006846FBF765FC2068B0F1A04F2FD11948C2
:105470000021026842F001020260006800F00100B1
:1054800005904FF4C05000900220CDE901010320A7
:1054900003900A20049069460F48FFF7A1F90D48D0
:1054A000001D016841F0800101600A481430016864
:1054B00041F4804101600068002200F480400590C2
:1054C00005214320FFF710FB4320FFF700FB06B048
:1054D00010BD0000303802400000024070B50446A4
:1054E000C068012570B1022801D0FEF79EFB294655
:1054F000D4F8080503F0F4FBD4F80805BDE87040C3
:1055000003F0A9BB0025F2E7D0F8080503F0D1BBF2
:10551000D0F8080503F0D7BB10B5044690F8BC04DA
:1055200001280BD0012084F8BC0484F838102068CE
:1055300004F062FB002084F8BC0410BD022010BD02
:10554000D0F8082500F2C441104603F0D5BB10B5D1
:105550000446006894F8BC14012906D0012184F89F
:10556000BC14A16A012902D008E0022010BDA16983
:10557000012903D0816B41F480318163206804F0FC
:105580006CFA206803F03AFF002084F8BC0410BDD8
:1055900010B50446D0F8080503F0F0FB2068D0F8F9
:1055A000001E41F00101C0F8001E206A002804D04E
:1055B0000248016841F00601016010BD10ED00E0F5
:1055C0002DE9F0470E46050065D0DFF81481D8F8C4
:1055D0000000F7B200F00700B04207D288F8007070
:1055E000D8F8000000F00700B04254D128683D4CC4
:1055F000810712D5400703D5206840F4E0502060B1
:105600002878000703D5206840F4604020602068B7
:10561000A96820F0F000084320602878C0072DD04A
:10562000304968680839012812D0022813D00328AD
:1056300011D00968890700292DDA216821F00301BA
:1056400001432160FFF7CEF9814641F2883A0EE02E
:1056500009688903EFE709688901ECE7FFF7C2F9F8
:10566000A0EB0901514502D90320BDE8F08720686D
:10567000696800F00C00B0EB810FEFD1D8F8001092
:10568000404601F00701B14207D90770006800F0F9
:105690000700B04201D00120E7E72878400705D590
:1056A0002068E96820F4E05008432060287800076B
:1056B00006D52068296920F4604040EAC1002060D6
:1056C00000F03EF82168084AC1F30311515CC8405C
:1056D0000649086006480068FFF7ACF90020C4E7F7
:1056E000003C024008380240A41C0108340000209D
:1056F0002C000020014800687047000034000020A2
:105700000448054900680968044AC1F38221515CD4
:10571000C84070473400002008380240B41C01081B
:105720000448054900680968044AC1F34231515CE4
:10573000C84070473400002008380240B41C0108FB
:10574000154810B5006810F00C02144813D0411031
:10575000042A0FD0082A0ED10F4C241F2268236878
:1057600002F03F025B0207D52068C0F38810A0FB5F
:10577000010106E0084610BD2168C1F38811A1FBB4
:1057800000010023FAF726FF2168C1F30141491CFB
:105790004900B0FBF1F010BD083802400024F400CD
:1057A0002DE9F84F04006ED02078DFF84C93C00745
:1057B000A9F104054AD009F104000168C1F381018F
:1057C000012908D00068C0F3810002280AD1D9F865
:1057D0000000400206D52868800337D5606800289D
:1057E000E1D033E06068B0F5803F10D0B0F5A02F75
:1057F000286810D020F480302860286820F48020A9
:1058000028606068A8B1FFF7EDF806460DE028684B
:1058100040F48030F4E740F480202860F7E700BFD0
:10582000FFF7E0F8801B642873D828688003F7D559
:105830000CE0FFF7D7F8064605E000BFFFF7D2F807
:10584000801B6428F0D828688003F7D42078DFF81C
:10585000AC8280074FF0000A3ED5A748001D0168C2
:1058600011F00C0F08D00068C0F3810002280BD1A2
:10587000D9F80000400207D42868800716D5E068F0
:10588000012800D112E033E1E068B8B10120C8F886
:105890000000FFF7A7F8064605E000BFFFF7A2F8F3
:1058A000801B0228C0D828688007F7D5286821699E
:1058B00020F0F80040EAC10028600DE0C8F800A020
:1058C000FFF790F8064604E0FFF78CF8801B0228EB
:1058D0001FD828688007F7D42078000722D5864F84
:1058E00087486169703771B101210160FFF77AF86B
:1058F000064604E0FFF776F8801B022809D83868CE
:105900008007F7D50EE0C0F800A0FFF76BF8064659
:1059100005E082E0FFF766F8801B02287DD8386832
:105920008007F7D42078400768D5DFF8CCB100278E
:105930000BF13C0BDBF80000C0000BD4DBF80010CF
:1059400041F08051CBF80010DBF80000012700F097
:10595000805000906B4E3068C00510D4306840F421
:1059600080703060FFF73EF8009005E0FFF73AF8EE
:105970000099401A022850D83068C005F6D55E4E0E
:10598000A0686C3601280FD00528306810D020F0B0
:1059900001003060306820F004003060A068B8B1C9
:1059A000FFF720F800900FE0306840F00100F4E7C6
:1059B00040F004003060F7E7FFF714F80099411A4F
:1059C00041F28830814266D830688007F4D50EE015
:1059D000FFF708F8009007E0FFF704F80099411A74
:1059E00041F28830814256D830688007F4D42FB114
:1059F000DBF8001021F08051CBF80010A069C8B38B
:105A00003D49091D0968C1F3810102294AD00228D4
:105A1000504607D0C8F8600000E03CE0FEF7E2FF27
:105A200004463BE04746C8F86000FEF7DBFF064649
:105A300005E000BFFEF7D6FF801B02282BD82868A0
:105A40008001F7D4D4E907010843A16A2E4A490826
:105A500002EB0141626A41EA8211084394F82C107A
:105A600040EA0161C9F8001001203866FEF7BAFF6C
:105A7000044606E03EE000BFFEF7B4FF001B02282C
:105A800009D828688001F7D534E000BFFEF7AAFFE7
:105A9000001B022802D90320BDE8F88F2868800186
:105AA000F4D427E00128F7D0D9F80000E26900F427
:105AB000800191421CD1226A00F03F01914217D12E
:105AC00047F6C071626A0140B1EB821F10D1A26A31
:105AD0004FF0FF3300F4403103EB5202B1EB024FC1
