:020000040800F2
:100000000000022099AC0008013400080534000803
:10001000093400080D340008113400080000000005
:1000200000000000000000000000000001220008A5
:100030001534000800000000A1220008193400084F
:10004000E9AC0008E9AC0008E9AC0008E9AC00083C
:10005000E9AC0008E9AC0008FD340008E9AC000890
:1000600009350008E9AC000815350008E9AC0008BE
:10007000E9AC000821340008E9AC0008313400087C
:10008000E9AC0008E9AC0008C9340008E9AC000894
:10009000E9AC0008E9AC0008E9AC0008E9AC0008EC
:1000A000E9AC0008E9AC0008E9AC0008E9AC0008DC
:1000B000E9AC0008E9AC0008E9AC0008E9AC0008CC
:1000C000E9AC0008E9AC0008E9AC0008E9AC0008BC
:1000D000E9AC0008E9AC0008E9AC0008E9AC0008AC
:1000E000E9AC0008E9AC0008E9AC0008E9AC00089C
:1000F000E9AC000841340008E9AC0008E9AC0008AC
:10010000E9AC0008E9AC0008E9AC0008E9AC00087B
:1001100059340008E9AC0008E9AC0008E9AC000873
:10012000E9AC0008E9AC0008E9AC0008E9AC00085B
:10013000E9AC00080000000000000000E9AC000885
:10014000E9AC0008E9AC0008E9AC00086934000833
:10015000E9AC0008E9AC0008E9AC0008E9AC00082B
:10016000E9AC0008E9AC0008E9AC0008E9AC00081B
:10017000E9AC0008E9AC0008000000000000000045
:08018000E9AC0008E9AC00083D
:1001900010B5054C237833B9044B13B10448AFF3C1
:1001A00000800123237010BDE00500200000000046
:1001B00070FD0008084B10B51BB108490848AFF3A3
:1001C00000800848036803B910BD074B002BFBD023
:1001D000BDE81040184700BF00000000E405002003
:1001E00070FD0008E005002000000000034613F841
:1001F000012B002AFBD1181A0138704700000000BB
:1002000001F0FF01102A2BDB10F0070F08D010F8C7
:10021000013B013A8B422DD010F0070F42B3F6D1CB
:10022000F0B441EA012141EA014122F007047FF0E4
:1002300000070023F0E80256083C85EA010586EA3B
:10024000010685FA47F5A3FA87F586FA47F6A5FA77
:1002500087F68EB9EED1F0BC01F0FF0102F0070283
:1002600032B110F8013B013A83EA010313B1F8D12E
:100270000020704701387047002D06BF354603380F
:10028000073815F0010F07D1013015F4807F02BF48
:10029000013015F4C03F0130F0BC0138704700BF99
:1002A00081F0004102E000BF83F0004330B54FEA27
:1002B00041044FEA430594EA050F08BF90EA020F94
:1002C0001FBF54EA000C55EA020C7FEA645C7FEA27
:1002D000655C00F0E2804FEA5454D4EB5555B8BF4A
:1002E0006D420CDD2C4480EA020281EA030382EABB
:1002F000000083EA010180EA020281EA0303362D4D
:1003000088BF30BD11F0004F4FEA01314FF4801C1F
:100310004CEA113102D0404261EB410113F0004F31
:100320004FEA03334CEA133302D0524263EB4303E8
:1003300094EA050F00F0A780A4F10104D5F1200E86
:100340000DDB02FA0EFC22FA05F2801841F10001E1
:1003500003FA0EF2801843FA05F359410EE0A5F1B5
:1003600020050EF1200E012A03FA0EFC28BF4CF0E6
:10037000020C43FA05F3C01851EBE37101F000459C
:1003800007D54FF0000EDCF1000C7EEB00006EEBA9
:100390000101B1F5801F1BD3B1F5001F0CD3490833
:1003A0005FEA30004FEA3C0C04F101044FEA44528A
:1003B00012F5800F80F09A80BCF1004F08BF5FEA11
:1003C000500C50F1000041EB045141EA050130BDF1
:1003D0005FEA4C0C404141EB010111F4801FA4F194
:1003E0000104E9D191F0000F04BF01460020B1FAE9
:1003F00081F308BF2033A3F10B03B3F120020CDA21
:100400000C3208DD02F1140CC2F10C0201FA0CF0FE
:1004100021FA02F10CE002F11402D8BFC2F1200C63
:1004200001FA02F120FA0CFCDCBF41EA0C01904019
:10043000E41AA2BF01EB0451294330BD6FEA040462
:100440001F3C1CDA0C340EDC04F11404C4F120024D
:1004500020FA04F001FA02F340EA030021FA04F35F
:1004600045EA030130BDC4F10C04C4F1200220FAB6
:1004700002F001FA04F340EA0300294630BD21FAF4
:1004800004F0294630BD94F0000F83F4801306BFBA
:1004900081F480110134013D4EE77FEA645C18BFAE
:1004A0007FEA655C29D094EA050F08BF90EA020F45
:1004B00005D054EA000C04BF1946104630BD91EA3D
:1004C000030F1EBF0021002030BD5FEA545C05D140
:1004D0004000494128BF41F0004130BD14F580047F
:1004E0003CBF01F5801130BD01F0004545F0FE41F3
:1004F00041F470014FF0000030BD7FEA645C1ABF28
:10050000194610467FEA655C1CBF0B46024650EA5E
:10051000013406BF52EA033591EA030F41F400218A
:1005200030BD00BF90F0000F04BF0021704730B510
:100530004FF4806404F132044FF000054FF00001E5
:1005400050E700BF90F0000F04BF0021704730B5A6
:100550004FF4806404F1320410F0004548BF40427B
:100560004FF000013EE700BF42004FEAE2014FEAD0
:1005700031014FEA02701FBF12F07F4393F07F4FAB
:1005800081F06051704792F0000F14BF93F07F4FDD
:10059000704730B54FF4607401F0004521F0004120
:1005A00020E700BF50EA010208BF704730B54FF0A6
:1005B00000050AE050EA010208BF704730B511F0AB
:1005C000004502D5404261EB41014FF4806404F1E3
:1005D00032045FEA915C3FF4DCAE4FF003025FEA65
:1005E000DC0C18BF03325FEADC0C18BF033202EBED
:1005F000DC02C2F1200300FA03FC20FA02F001FA47
:1006000003FE40EA0E0021FA02F11444C1E600BFE5
:1006100070B54FF0FF0C4CF4E06C1CEA11541DBF98
:100620001CEA135594EA0C0F95EA0C0F00F0DEF863
:100630002C4481EA030621EA4C5123EA4C5350EA48
:10064000013518BF52EA033541F4801143F4801399
:1006500038D0A0FB02CE4FF00005E1FB02E506F02A
:100660000042E0FB03E54FF00006E1FB03569CF07F
:10067000000F18BF4EF0010EA4F1FF04B6F5007F85
:1006800064F5407404D25FEA4E0E6D4146EB0606F7
:1006900042EAC62141EA55514FEAC52040EA5E5080
:1006A0004FEACE2EB4F1FD0C88BFBCF5E06F1ED82A
:1006B000BEF1004F08BF5FEA500E50F1000041EB61
:1006C000045170BD06F0004646EA010140EA02000E
:1006D00081EA0301B4EB5C04C2BFD4EB0C0541EA30
:1006E000045170BD41F480114FF0000E013C00F345
:1006F000AB8014F1360FDEBF002001F0004170BD69
:10070000C4F10004203C35DA0C341BDC04F1140481
:10071000C4F1200500FA05F320FA04F001FA05F20D
:1007200040EA020001F0004221F0004110EBD370DA
:1007300021FA04F642EB06015EEA430E08BF20EA06
:10074000D37070BDC4F10C04C4F1200500FA04F3A9
:1007500020FA05F001FA04F240EA020001F000413B
:1007600010EBD37041F100015EEA430E08BF20EAAE
:10077000D37070BDC4F1200500FA05F24EEA020EF6
:1007800020FA04F301FA05F243EA020321FA04F025
:1007900001F0004121FA04F220EA020000EBD370DC
:1007A0005EEA430E08BF20EAD37070BD94F0000FDC
:1007B0000FD101F00046400041EB010111F4801F10
:1007C00008BF013CF7D041EA060195F0000F18BFC1
:1007D000704703F00046520043EB030313F4801FFD
:1007E00008BF013DF7D043EA0603704794EA0C0FB7
:1007F0000CEA135518BF95EA0C0F0CD050EA4106CD
:1008000018BF52EA4306D1D181EA030101F0004149
:100810004FF0000070BD50EA410606BF1046194671
:1008200052EA430619D094EA0C0F02D150EA01367D
:1008300013D195EA0C0F05D152EA03361CBF1046BE
:1008400019460AD181EA030101F0004141F0FE415D
:1008500041F470014FF0000070BD41F0FE4141F4E1
:10086000780170BD70B54FF0FF0C4CF4E06C1CEAE1
:1008700011541DBF1CEA135594EA0C0F95EA0C0F96
:1008800000F0A7F8A4EB050481EA030E52EA033551
:100890004FEA013100F088804FEA03334FF0805572
:1008A00045EA131343EA12634FEA022245EA11159F
:1008B00045EA10654FEA00260EF000419D4208BF50
:1008C000964244F1FD0404F5407402D25B084FEAFD
:1008D0003202B61A65EB03055B084FEA32024FF4A9
:1008E00080104FF4002CB6EB020E75EB030E22BF06
:1008F000B61A754640EA0C005B084FEA3202B6EBC6
:10090000020E75EB030E22BFB61A754640EA5C0074
:100910005B084FEA3202B6EB020E75EB030E22BF04
:10092000B61A754640EA9C005B084FEA3202B6EB05
:10093000020E75EB030E22BFB61A754640EADC00C4
:1009400055EA060E18D04FEA051545EA16754FEA26
:1009500006164FEAC30343EA52734FEAC2025FEA44
:100960001C1CC0D111F4801F0BD141EA00014FF0D3
:1009700000004FF0004CB6E711F4801F04BF0143A4
:100980000020B4F1FD0C88BFBCF5E06F3FF6AFAEC0
:10099000B5EB030C04BFB6EB020C5FEA500C50F150
:1009A000000041EB045170BD0EF0004E4EEA1131D3
:1009B00014EB5C04C2BFD4EB0C0541EA045170BDDA
:1009C00041F480114FF0000E013C90E645EA060E1E
:1009D0008DE60CEA135594EA0C0F08BF95EA0C0F4C
:1009E0003FF43BAF94EA0C0F0AD150EA01347FF494
:1009F00034AF95EA0C0F7FF425AF104619462CE76B
:100A000095EA0C0F06D152EA03353FF4FDAE1046CD
:100A1000194622E750EA410618BF52EA43067FF41E
:100A2000C5AE50EA41047FF40DAF52EA43057FF4AE
:100A3000EBAE12E74FF0FF3C06E000BF4FF0010CB9
:100A400002E000BF4FF0010C4DF804CD4FEA410C1D
:100A50007FEA6C5C4FEA430C18BF7FEA6C5C1BD0EA
:100A600001B050EA410C0CBF52EA430C91EA030F6B
:100A700002BF90EA020F0020704710F1000F91EAC8
:100A8000030F58BF994208BF90422CBFD8176FEA96
:100A9000E37040F0010070474FEA410C7FEA6C5C64
:100AA00002D150EA013C07D14FEA430C7FEA6C5C6B
:100AB000D6D152EA033CD3D05DF8040B704700BF97
:100AC0008446104662468C461946634600E000BFE5
:100AD00001B5FFF7B7FF002848BF10F1000F01BDB7
:100AE0004DF808EDFFF7F4FF0CBF012000205DF882
:100AF00008FB00BF4DF808EDFFF7EAFF34BF012007
:100B000000205DF808FB00BF4DF808EDFFF7E0FF9F
:100B100094BF012000205DF808FB00BF4DF808EDF0
:100B2000FFF7CEFF94BF012000205DF808FB00BF57
:100B30004DF808EDFFF7C4FF34BF012000205DF839
:100B400008FB00BF4FEA410C7FEA6C5C02D150EA1F
:100B5000013C0AD14FEA430C7FEA6C5C02D152EAB5
:100B6000033C02D14FF0000070474FF00100704786
:100B70004FEA410212F5001215D211D56FF47873C5
:100B8000B3EB625212D94FEAC12343F0004343EA68
:100B9000505311F0004F23FA02F018BF4042704743
:100BA0004FF00000704750EA013005D111F00040CD
:100BB00008BF6FF0004070474FF00000704700BF63
:100BC0004A0011D212F5001211D20DD56FF47873CC
:100BD000B3EB62520ED44FEAC12343F0004343EA21
:100BE000505323FA02F070474FF00000704750EA6C
:100BF000013002D14FF0FF3070474FF000007047D6
:100C00004FEA4102B2F1E04324BFB3F5001CDCF12E
:100C1000FE5C0DD901F0004C4FEAC0024CEA507066
:100C2000B2F1004F40EB830008BF20F00100704795
:100C300011F0804F21D113F13872BCBF01F0004098
:100C4000704741F480114FEA5252C2F11802C2F1CA
:100C5000200C10FA0CF320FA02F018BF40F001004B
:100C60004FEAC1234FEAD32303FA0CFC40EA0C00FD
:100C700023FA02F34FEA4303CCE77FEA625307D13A
:100C800050EA01331EBF4FF0FE4040F44000704771
:100C900001F0004040F0FE4040F40000704700BF0B
:100CA00010B5044601F0BEFAA26BE36B9A4201D183
:100CB000012400E0002401F0D7FA204610BD00BF57
:100CC00010B5044601F0AEFAA36B0BB9012400E0A5
:100CD000002401F0C9FA204610BD00BF70B50446DB
:100CE0001646856B026C3AB9036843BB406801F055
:100CF0003DF80023636029E06EB980680AF028F9A6
:100D0000A268236C1344A3606268934219D32368DA
:100D1000A36000201AE0C0680AF01AF9236C5B4255
:100D2000E2681A44E26021688A4202D2626813448F
:100D3000E360022E07D145B1013D002006E000200E
:100D400004E0002002E0002000E000200135A5635F
:100D500070BD00BF026C72B110B50346C468144484
:100D6000C4604068844201D31868D8600846D968D6
:100D70000AF0EEF810BD704738B5054601F052FA9A
:100D800095F8454064B20AE06B6A53B105F124005E
:100D900000F0E0FE08B100F079FF013C64B2002CE5
:100DA000F2DCFF2385F8453001F05EFA01F03AFAF3
:100DB00095F8444064B20AE02B6953B105F1100084
:100DC00000F0C8FE08B100F061FF013C64B2002CE5
:100DD000F2DCFF2385F8443001F046FA38BD00BF4D
:100DE00038B540B94FF0500383F31188BFF36F8FCC
:100DF000BFF34F8FFEE704460D4601F013FA21685A
:100E0000E26B236C03FB021060600020A063A16012
:100E1000013A02FB0313E360FF2384F8443084F8B3
:100E200045307DB92369ABB104F1100000F092FEAA
:100E300080B14FF08052094B1A60BFF34F8FBFF360
:100E40006F8F07E004F1100001F048F904F124006D
:100E500001F044F901F008FA012038BD04ED00E08A
:100E600010B5029B0C4609B91B6000E01A60D863FC
:100E70001C6401211846FFF7B3FF10BD40B94FF0C5
:100E8000500383F31188BFF36F8FBFF34F8FFEE7DB
:100E9000F0B583B0034611B101FB00F000E0002083
:100EA0001D4617460C46483001F05AFB064638B13D
:100EB00000903B4600F1480221462846FFF7D0FF4C
:100EC000304603B0F0BD00BFF0B585B0019240B927
:100ED0004FF0500383F31188BFF36F8FBFF34F8F31
:100EE000FEE7044619B9026C1AB9012202E0012298
:100EF00000E0002242B94FF0500383F31188BFF3A2
:100F00006F8FBFF34F8FFEE7022B03D1E26B012AF5
:100F100002D102E0012200E0002242B94FF050036A
:100F200083F31188BFF36F8FBFF34F8FFEE71D462A
:100F30000E4600F0B7FE18B9019B1BB9012302E071
:100F4000012300E0002343B94FF0500383F31188DD
:100F5000BFF36F8FBFF34F8FFEE7002701F062F9F9
:100F6000A26BE36B9A4201D3022D21D12A4631466E
:100F70002046FFF7B3FE636A6BB104F1240000F072
:100F8000E9FD88B14FF08052324B1A60BFF34F8FAA
:100F9000BFF36F8F08E038B14FF080522D4B1A60CD
:100FA000BFF34F8FBFF36F8F01F05EF901204EE06A
:100FB000019B1BB901F058F9002048E01FB902A8B5
:100FC00000F00EFE012701F04FF900F0E5FB01F003
:100FD00029F994F844305BB2B3F1FF3F02D100230A
:100FE00084F8443094F845305BB2B3F1FF3F02D14E
:100FF000002384F8453001F037F901A902A800F078
:1010000005FEF0B92046FFF74BFEA0B1019904F1AF
:10101000100000F087FD2046FFF7AEFE00F056FC02
:1010200000289BD14FF080520A4B1A60BFF34F8FBC
:10103000BFF36F8F92E72046FFF79EFE00F046FC5D
:101040008CE72046FFF798FE00F040FC002005B03A
:10105000F0BD00BF04ED00E040B94FF0500383F352
:101060001188BFF36F8FBFF34F8FFEE770B5044653
:10107000036C43B14FF0500383F31188BFF36F8FBC
:10108000BFF34F8FFEE703681BB943681BB9012309
:1010900002E0012300E0002343B94FF0500383F343
:1010A0001188BFF36F8FBFF34F8FFEE70E4601F03D
:1010B000CBF9EFF311854FF0500383F31188BFF3A1
:1010C0006F8FBFF34F8FA26BE36B9A4218D294F8E5
:1010D00045305BB20132A263B3F1FF3F0AD1636ACC
:1010E00083B104F1240000F035FD68B176B1012030
:1010F00030600CE001335BB284F84530012006E03B
:10110000002004E0012002E0012000E0012085F33E
:10111000118870BD2DE9F04184B0019240B94FF0C3
:10112000500383F31188BFF36F8FBFF34F8FFEE738
:10113000044619B9026C1AB9012202E0012200E04A
:10114000002242B94FF0500383F31188BFF36F8F31
:10115000BFF34F8FFEE71F46884600F0A3FD18B986
:10116000019B1BB9012302E0012300E0002343B9E6
:101170004FF0500383F31188BFF36F8FBFF34F8F8E
:10118000FEE7002601F04EF8A56B85B3E668414600
:101190002046FFF7DFFDB7B9013DA563236813B90A
:1011A00000F03EFE60602369EBB104F1100000F036
:1011B000D1FCC0B14FF080523D4B1A60BFF34F8F4E
:1011C000BFF36F8F0FE0E660636A63B104F1240040
:1011D00000F0C0FC38B14FF08052354B1A60BFF3BD
:1011E0004F8FBFF36F8F01F03FF801205DE0019B4F
:1011F0001BB901F039F8002057E01EB902A800F031
:10120000EFFC012601F030F800F0C6FA01F00AF810
:1012100094F844305BB2B3F1FF3F02D1002384F86D
:10122000443094F845305BB2B3F1FF3F02D1002364
:1012300084F8453001F018F801A902A800F0E6FC96
:1012400038BB2046FFF73CFDE8B1236833B900F016
:10125000E9FF606800F036FD01F006F8019904F13D
:10126000240000F05FFC2046FFF786FD00F02EFB17
:10127000002887D14FF080520D4B1A60BFF34F8F7B
:10128000BFF36F8F7EE72046FFF776FD00F01EFB71
:1012900078E72046FFF770FD00F018FB2046FFF7C7
:1012A0000FFD00283FF46EAF002004B0BDE8F081D0
:1012B00004ED00E02DE9F84340B94FF0500383F30B
:1012C0001188BFF36F8FBFF34F8FFEE7044619B944
:1012D000036C1BB9012302E0012300E0002343B9A2
:1012E0004FF0500383F31188BFF36F8FBFF34F8F1D
:1012F000FEE71746894601F0A7F8EFF311864FF095
:10130000500383F31188BFF36F8FBFF34F8FD4F86F
:101310003880B8F1000F1DD094F844506DB24946A2
:101320002046FFF717FD08F1FF33A363B5F1FF3F38
:101330000AD1236983B104F1100000F00BFC68B1FD
:1013400077B1012038600CE06B1C5BB284F844304C
:10135000012006E0002004E0012002E0012000E07E
:10136000012086F31188BDE8F88300BF0A4B1B6893
:101370001B680BB9012300E0002323B14FF0FF32BB
:10138000064B1A607047044B1B68DB68DB685A68C1
:10139000024B1A60704700BF00060020DC060020E8
:1013A00010B50446006B01F05DF9204601F05AF9D2
:1013B00010BD00BF2DE9F04780469946089D099F62
:1013C0000A9C236B02F18042013A03EB820626F06D
:1013D0000706002306E0C85CE21882F83400CA5C05
:1013E00012B101330F2BF6D9002384F84330062DB8
:1013F00000D90625E56265644FF0000AC4F848A0EC
:10140000201D00F077FE04F1180000F073FE246147
:10141000C5F10705A5616462C4F84CA084F850A02A
:101420004A464146304600F0D5FE206007B13C6098
:10143000BDE8F08738B5002407E004EB8402930090
:101440000E48184400F04AFE0134062CF5D90C4D24
:10145000284600F043FE0B4C204600F03FFE0A48B1
:1014600000F03CFE094800F039FE094800F036FE65
:10147000084B1D60084B1C6038BD00BF24060020CF
:10148000E4060020F8060020C00600200806002020
:101490000C070020000600201C06002010B50446A2
:1014A00000F0C0FE204A1368013313601F4B1B6815
:1014B0003BB91E4B1C601368012B0DD1FFF7BAFF1F
:1014C0000AE01B4B1B683BB9184B1B68DA6AE36ADE
:1014D0009A4201D8154B1C60164A136801331360F9
:1014E000E36A012202FA03F1134802680A43026028
:1014F00003EB83039A00211D1048104400F0FEFD09
:1015000000F0B2FE0A4B1B686BB1084B1B68DA6A2D
:10151000E36A9A4207D24FF08052094B1A60BFF338
:101520004F8FBFF36F8F10BDB8060020BC060020A0
:1015300004060020E00600202007002024060020EA
:1015400004ED00E070B504460E461D4B1D681D4BB2
:101550001868043000F0F8FD50B91A4B1B68DA6ABD
:10156000012303FA02F218490B6823EA02030B6015
:10157000B4F1FF3F07D136B1124B1968043113485B
:1015800000F0BCFD70BD2C440E4B1B685C60A54296
:1015900007D90F4B18680B4B1968043100F0BAFDDE
:1015A00070BD0C4B1868074B1968043100F0B2FD90
:1015B000094B1B689C4201D2074B1C6070BD00BFE9
:1015C000D8060020BC060020200700200C070020C1
:1015D0001C06002000060020DC0600202DE9F04358
:1015E00085B006460F4615469846900000F0B8FFB5
:1015F00060B18146542000F0B3FF044610B1C0F83A
:10160000309004E0484601F02DF800E000248CB151
:101610000023039302940D9B01930C9B009343467C
:101620002A4639463046FFF7C5FE2046FFF736FF0B
:10163000012001E04FF0FF3005B0BDE8F08300BFAE
:1016400038B5044600F0EEFD0CB92A4B1C68251D88
:10165000284600F079FD70B9E26A02EB82018B0046
:101660002549CB583BB9012303FA02F223490B6801
:1016700023EA02030B60A36A1BB104F1180000F017
:1016800063FD1F4A1368013313601A4B1B689C42A9
:1016900008D129461B4800F031FD1B4A136801336D
:1016A000136008E0194A1368013B13602046FFF7F6
:1016B00077FEFFF75BFE00F0D7FD154B1B68BBB153
:1016C0000C4B1B689C4213D1124B1B6843B14FF06B
:1016D000500383F31188BFF36F8FBFF34F8FFEE783
:1016E0004FF080520C4B1A60BFF34F8FBFF36F8FD8
:1016F00038BD00BFBC0600202406002020070020C3
:10170000E006002008060020B4060020B8060020ED
:1017100004060020B006002004ED00E000B583B010
:10172000174B019300230093802216491648FFF7B8
:1017300055FF012814D14FF0500383F31188BFF3F4
:101740006F8FBFF34F8F4FF0FF32104B1A600122A3
:101750000F4B1A6000220F4B1A6000F0FFFD0BE0E8
:10176000B0F1FF3F08D14FF0500383F31188BFF36E
:101770006F8FBFF34F8FFEE703B05DF804FB00BF30
:10178000D4060020F8FD0008691A0008DC060020D5
:1017900004060020D8060020024A136801331360B3
:1017A000704700BFB0060020F8B53D4B1B68002B0A
:1017B00069D13C4B1D6801351D60C5B93A4B1B68AA
:1017C0001B6843B14FF0500383F31188BFF36F8F51
:1017D000BFF34F8FFEE7344A1168344B186810602E
:1017E0001960334A136801331360FFF7BFFD314BB3
:1017F0001B689D4203D200243AE0012400E000244B
:10180000294B1B681B680BB9012300E0002323B19F
:101810004FF0FF32274B1A602AE0234B1B68DB682E
:10182000DE6873689D4202D2224A136020E0371DB1
:10183000384600F089FCB36A1BB106F1180000F0CD
:1018400083FCF36A012202FA03F11B4802680A438F
:10185000026003EB83039A0039461848104400F0F5
:101860004DFCF26A164B1B68DB6A9A42C5D2C7E789
:10187000134B1B68DB6A03EB83039A000F4B9B58E7
:10188000012B06D806E00F4A1368013313600024C9
:1018900000E001240C4B1B6803B101242046F8BD75
:1018A000B0060020D8060020000600201C060020FC
:1018B000FC050020DC060020200700202406002074
:1018C000BC060020200600202407002038B5344B39
:1018D0001B6843B94FF0500383F31188BFF36F8F38
:1018E000BFF34F8FFEE700F09DFC2D4B1A68013AC5
:1018F0001A601B68002B4CD12A4B1B6833BB002499
:101900004AE0294BDB68DC6804F1180000F01CFC9D
:10191000251D284600F018FCE36A012202FA03F1B3
:10192000224802680A43026003EB83039A002946B7
:101930001F48104400F0E2FBE26A1E4B1B68DB6AA2
:101940009A4204D301221C4B1A6000E00024164B7B
:101950001B68002BD5D10CB1FFF708FD174B1C6895
:1019600054B1FFF721FF10B10122134B1A60013C63
:10197000F7D10022114B1A600F4B1B685BB14FF07F
:1019800080520F4B1A60BFF34F8FBFF36F8F01244C
:1019900002E0002400E0002400F066FC204638BD90
:1019A000B0060020B8060020C00600202007002056
:1019B00024060020BC06002024070020200600206A
:1019C00004ED00E010B5A8B10446104B1B6843B10C
:1019D0004FF0500383F31188BFF36F8FBFF34F8F26
:1019E000FEE7FFF7D9FE00212046FFF7ABFDFFF72A
:1019F0006DFF00E0002038B94FF08052044B1A60B0
:101A0000BFF34F8FBFF36F8F10BD00BFB006002034
:101A100004ED00E010B51BE0FFF7BEFE0F4B1C68A5
:101A2000FFF754FFA4B100F0FDFB0C4BDB68DC6852
:101A3000201D00F089FB0A4A1368013B1360094A24
:101A40001368013B136000F00FFC2046FFF7A8FC71
:101A5000044B1B68002BDFD110BD00BF080600201F
:101A6000B8060020B406002008B5FFF7D3FF064BE8
:101A70001B68012BF9D94FF08052044B1A60BFF359
:101A80004F8FBFF36F8FF0E72406002004ED00E0D6
:101A90001F4B1B681BB101221E4B1A6070470022AE
:101AA0001C4B1A601C4B1B68B3FA83F3DBB2C3F107
:101AB0001F0303EB83018A0018498A5842B94FF08B
:101AC000500383F31188BFF36F8FBFF34F8FFEE78F
:101AD00030B4124D9900CA189000284442685468E6
:101AE000446019448A0008322A44944205D160684F
:101AF00003EB83018A002A44506003EB83039A00BE
:101B0000064B1A445368DA68054B1A6030BC7047BC
:101B1000B006002024070020200700202406002013
:101B2000BC06002040B94FF0500383F31188BFF387
:101B30006F8FBFF34F8FFEE710B50C46044B19684B
:101B4000183100F0E7FA01212046FFF7FBFC10BD39
:101B5000BC06002038B5C368DC6844B94FF05003B8
:101B600083F31188BFF36F8FBFF34F8FFEE704F14C
:101B70001805284600F0E8FA134B1B68A3B9251D89
:101B8000284600F0E1FAE36A012202FA03F10F4865
:101B900002680A43026003EB83039A0029460C485B
:101BA000104400F0ABFA03E029460A4800F0A6FA18
:101BB000E26A094B1B68DB6A9A4203D90120074B92
:101BC000186038BD002038BDB00600202007002076
:101BD00024060020C0060020BC06002024070020A8
:101BE00040B94FF0500383F31188BFF36F8FBFF3F9
:101BF0004F8FFEE7034A12680260034A1268426090
:101C0000704700BFFC050020D806002038B540B959
:101C10004FF0500383F31188BFF36F8FBFF34F8FE3
:101C2000FEE7044641B94FF0500383F31188BFF338
:101C30006F8FBFF34F8FFEE70D4600F0F3FA114BA5
:101C400019682A68B2F1FF3F13D020680E4B1B6859
:101C5000984202D0636899420DD26368C81A8242E2
:101C60000BD95B1A13442B602046FFF7B9FF002401
:101C700004E0002402E0012400E0012400F0F4FA72
:101C8000204638BDD8060020FC0500200122014B6B
:101C90001A60704724070020014B1868704700BF86
:101CA000BC060020054B1B6823B1054B1B681BB904
:101CB0000220704701207047002070470406002072
:101CC000B006002000284AD038B50246C36A24492D
:101CD0000968C96A8B4241D28169002905DB204924
:101CE0000968C96AC1F107018161506903EB830387
:101CF00099001C4B1944884201D1012300E00023C4
:101D000043B31446151D284600F01EFA70B9E36A65
:101D100003EB83018A0013498A583AB9012202FA77
:101D200003F311490A6822EA03030B600C4B1B689A
:101D3000DB6AE362012202FA03F10B4802680A43FC
:101D4000026003EB83039A0029460648104400F022
:101D5000D5F938BD024B1B68DB6AD36238BD7047CA
:101D6000BC060020240600202007002000284BD0BD
:101D700038B50346274A1268904208D04FF0500306
:101D800083F31188BFF36F8FBFF34F8FFEE7826C31
:101D900042B94FF0500383F31188BFF36F8FBFF345
:101DA0004F8FFEE7013A8264C06A596C88422DD099
:101DB00072BB1C461D1D284600F0C6F970B9E26AC8
:101DC00002EB82018B001449CB583BB9012303FA83
:101DD00002F212490B6823EA02030B60636CE362B0
:101DE000C3F10702A261012404FA03F00B490A6857
:101DF00002430A6003EB83039A0029460648104415
:101E000000F07CF9204638BD00207047002038BD26
:101E1000002038BDBC06002024060020200700203A
:101E2000054B1B6823B1044B1A68936C0133936410
:101E3000014B1868704700BFBC060020F8B5074684
:101E40000C4615461E4600F0EDF9204B1B6893F832
:101E50005030DBB2022B16D01C4B1A68D06C20EA33
:101E60000700D0641B68012283F850205EB1114640
:101E70003046FFF767FB4FF08052154B1A60BFF3F7
:101E80004F8FBFF36F8F00F0EFF900F0CBF91DB16A
:101E90000E4B1B68DB6C2B600C4B1B6893F85030AF
:101EA000DBB2012B07D0094B1B68D96C21EA040176
:101EB000D964012400E00024044B1B68002283F84D
:101EC000502000F0D1F92046F8BD00BFBC0600202C
:101ED00004ED00E0F8B540B94FF0500383F31188EA
:101EE000BFF36F8FBFF34F8FFEE704461F461546C3
:101EF0000E4600F097F90FB1E36C3B6094F8503058
:101F0000DBB2022284F850206A1E032A15D8DFE8CB
:101F100002F002070C0FE26C1643E66401250FE0A5
:101F2000E26C0132E26401250AE0E664012507E083
:101F3000022B04D0E664012502E0012500E0002523
:101F4000012B2CD1261D304600F0FEF8E36A012259
:101F500002FA03F1144802680A43026003EB8303A8
:101F60009A0031461148104400F0C8F8A36A43B102
:101F70004FF0500383F31188BFF36F8FBFF34F8F80
:101F8000FEE7E26A0A4B1B68DB6A9A4207D94FF008
:101F90008052084B1A60BFF34F8FBFF36F8F00F072
:101FA00063F92846F8BD00BF200700202406002062
:101FB000BC06002004ED00E02DE9F843089E40B97E
:101FC0004FF0500383F31188BFF36F8FBFF34F8F30
:101FD000FEE7044699461546884600F035FAEFF3C9
:101FE00011874FF0500383F31188BFF36F8FBFF356
:101FF0004F8FB9F1000F02D0E36CC9F8003094F8AC
:102000005030DBB2022284F850206A1E032A18D80E
:10201000DFE802F002080D11E26C42EA0802E26415
:10202000012511E0E26C0132E26401250CE0C4F804
:102030004C80012508E0022B05D0C4F84C80012516
:1020400002E0012500E00025012B35D1A36A43B150
:102050004FF0500383F31188BFF36F8FBFF34F8F9F
:10206000FEE7184B1B68ABB904F10408404600F0CA
:102070006BF8E36A012202FA03F1134802680A438B
:10208000026003EB83039A0041461048104400F0BD
:1020900035F804E004F118010D4800F02FF8E26A69
:1020A0000C4B1B68DB6A9A4206D916B101233360D8
:1020B00002E00122084B1A6087F311882846BDE828
:1020C000F88300BFB006002020070020240600206F
:1020D000C0060020BC0600202407002000F10803F1
:1020E00043604FF0FF328260C360036100230360EE
:1020F000704700BF00230361704700BF43684B6017
:102100009A688A609A68516099600861036801332F
:102110000360704730B40D68B5F1FF3F01D102692B
:1021200007E000F1080200E01A4653681C68A54267
:10213000FAD253684B6099608A6051600861036805
:102140000133036030BC7047036942688168916065
:102150008268416851605A68904201D182685A6031
:102160000022026118680138186070470B4B1B6829
:10217000B3F1FF3F08D04FF0500383F31188BFF352
:102180006F8FBFF34F8FFEE74FF0500383F311883B
:10219000BFF36F8FBFF34F8FFEE700BF000000203B
:1021A00006480068006880F3088862B661B6BFF32D
:1021B0004F8FBFF36F8F00DF00BF000008ED00E01E
:1021C000DFF80C00016841F4700101607047000005
:1021D00088ED00E04FF0807340F8043C21F00101ED
:1021E00040F8081C054B40F80C3C40F8202C6FF0E0
:1021F000020340F8243C4438704700BF6D210008BA
:10220000074B19680868B0E8F04F80F30988BFF3FE
:102210006F8F4FF0000080F311887047AFF300809C
:10222000BC0600204FF0500383F31188BFF36F8F7B
:10223000BFF34F8F0A4A136801331360012B0DD18E
:10224000084B1B6813F0FF0F08D04FF0500383F3C7
:102250001188BFF36F8FBFF34F8FFEE7704700BF4A
:102260000000002004ED00E0094B1B6843B94FF06B
:10227000500383F31188BFF36F8FBFF34F8FFEE7D7
:10228000013B034A13600BB983F31188704700BF09
:10229000000000200000000000000000000000001E
:1022A000EFF30980BFF36F8F154B1A681EF0100F04
:1022B00008BF20ED108A20E9F04F10604DF8043D72
:1022C0004FF0500080F31188BFF34F8FBFF36F8F33
:1022D000FFF7DEFB4FF0000080F3118808BC19689F
:1022E0000868B0E8F04F1EF0100F08BFB0EC108A7D
:1022F00080F30988BFF36F8F704700BFAFF3008092
:10230000BC06002008B54FF0500383F31188BFF3DB
:102310006F8FBFF34F8FFFF747FA18B14FF080521E
:10232000024B1A60002383F3118808BD04ED00E01E
:10233000064B1B68064AA2FB03239B09013B054A87
:1023400013600722044B1A60704700BF140100207D
:10235000D34D621014E000E010E000E0314B1A6849
:10236000314B9A4208D14FF0500383F31188BFF3E9
:102370006F8FBFF34F8FFEE72A4B1A682B4B9A42A1
:1023800008D14FF0500383F31188BFF36F8FBFF371
:102390004F8FFEE700B583B0254B1A78D2B2019279
:1023A000FF221A701B78DBB28DF803309DF80330E2
:1023B00003F050031F4A137007221F4B1A6009E0F5
:1023C0001D4A1368013B13609DF803305B00DBB2CC
:1023D0008DF803309DF8033013F0800FF0D1164ACA
:1023E00013681B0203F4E0631360019BDBB2104A25
:1023F0001370124B1A6842F470021A601A6842F0A5
:1024000070421A60FFF794FF00220D4B1A60FFF72D
:10241000D7FE0C4A136843F040431360FFF7C0FE39
:10242000FFF7A4FE00ED00E071C20F4170C20F4142
:1024300000E400E0280700202C07002020ED00E049
:102440000000002034EF00E0EFF305830F2B0FD9DD
:10245000104A9B5CDBB2104A1278934208D24FF0CC
:10246000500383F31188BFF36F8FBFF34F8FFEE7E5
:102470000A4B1B6803F4E063094A1268934208D9C7
:102480004FF0500383F31188BFF36F8FBFF34F8F6B
:10249000FEE77047F0E300E0280700200CED00E0C5
:1024A0002C070020124A12F0070F07D0D11D21F08F
:1024B0000701C1F5705313440A4601E04FF470530D
:1024C0000C480260002141601344083B23F00703DD
:1024D0000948036059601960991A51601360074BED
:1024E0001960074B19604FF00042064B1A607047A5
:1024F0004007002038070020340700204443002014
:102500003007002040430020134B00E013461A68B8
:102510008242FBD310B45C681919884203D1416828
:10252000214459601846446801198A420CD10B496C
:1025300009688A4206D05268224442601A681268CA
:10254000026002E0016000E00260984200D0186082
:102550005DF8044B704700BF3807002034070020A7
:1025600070B50446FFF718F9394B1B680BB9FFF734
:1025700099FF384B1B681C4253D194B1083414F0B6
:10258000070F0ED024F00704083404F0070343B10A
:102590004FF0500383F31188BFF36F8FBFF34F8F5A
:1025A000FEE7002C3FD02C4B1B689C423DD82B4BA8
:1025B0001D6801E02B4615466A68944202D92A68D4
:1025C000002AF7D1224A1268954230D01E68083698
:1025D0002A681A606B681B1B102B10D9281910F081
:1025E000070F08D04FF0500383F31188BFF36F8FAC
:1025F000BFF34F8FFEE743606C60FFF785FF6A68AB
:1026000015490B689B1A0B60154909688B4201D26A
:1026100013490B600F4B1B681A436A6000232B6041
:1026200006E0002604E0002602E0002600E0002686
:10263000FFF74CF916F0070F08D04FF0500383F363
:102640001188BFF36F8FBFF34F8FFEE7304670BD29
:1026500034070020404300203007002038070020C6
:1026600044430020A0B338B50346A0F1080550F854
:10267000042C1849096812EA010408D14FF05003EC
:1026800083F31188BFF36F8FBFF34F8FFEE750F8CE
:10269000080C40B14FF0500383F31188BFF36F8FE4
:1026A000BFF34F8FFEE794B188B91C4622EA0102BE
:1026B00043F8042CFFF770F854F8043C064A1168FC
:1026C0000B4413602846FFF71FFFFFF7FFF838BDE4
:1026D000704700BF4043002030070020842801D00D
:1026E0000330704700207047EFF30580003018BFBB
:1026F0000120704708B5FFF711F8002008BD00BFA2
:10270000F0B585B00F46446805680669B0F9080061
:10271000FFF7E4FF03AB019300903B46B2B22946BA
:102720002046FEF75BFF012801D1039800E000205E
:1027300005B0F0BD08B5FFF7AFFA08BD08B508B998
:102740000120FFE7FFF73EF9002008BD30B585B056
:1027500004460D46002303930293FFF7C5FFA0B183
:1027600003AB009302AB012229462046FFF724FC6D
:10277000012814D1039B83B14FF080520B4B1A6098
:10278000BFF34F8FBFF36F8F07E002AB01222946E3
:102790002046FFF79FFB012804D1029804E04FF088
:1027A000004001E04FF0004005B030BD04ED00E016
:1027B00070B584B004460E46154600230293B2F16C
:1027C000FF3F02D00AB102B90125FFF78DFF10B11A
:1027D0008223019316E02B4602AA31460020FFF720
:1027E0002DFB012806D015B9002301930AE04023F0
:1027F000019307E0029B002B02DA8623019301E09C
:102800000823019304AB13E9070084E8070020467E
:1028100004B070BD01290ED110B5032200210120A2
:10282000FEF72CFB044640B100231A461946FEF77A
:102830004BFB204610BD0020704710BD30B583B063
:102840000023019338B30C460546B1F1FF3F02D097
:1028500009B101B90124FFF747FF90B101AA002196
:102860002846FEF727FD012817D10198C0B14FF087
:1028700080520C4B1A60BFF34F8FBFF36F8F002055
:102880000EE00023224619462846FEF743FC0128A5
:1028900005D0FF2004E0802002E0FF2000E00020BF
:1028A00003B030BD04ED00E010B582B00446002353
:1028B0000193FFF719FF88B101A92046FEF7CCFB71
:1028C000012815D1019BABB14FF080520C4B1A601F
:1028D000BFF34F8FBFF36F8F00200EE000231A4627
:1028E00019462046FEF7F0FA012805D1002004E041
:1028F000FF2002E0002000E0FF2002B010BD00BF7A
:1029000004ED00E008B5FFF7CDF9012801D0FFF78D
:10291000F9FC08BD98B108B50346D0F8140210B10F
:102920000020C3F8140209B1C3F81012184601239D
:1029300080F8FC31027001F08BFE002008BD0220FF
:10294000704700BF19B1C0F8141200207047022070
:10295000704700BF08B501F0B3FE002008BD00BFFE
:1029600008B5D0F8143223B11B68984718B102207B
:1029700008BD022008BD002008BD00BF08B5D0F882
:1029800014325B689847002008BD00BF38B5044684
:1029900000F50275284600F063F90123C4F8F4310C
:1029A000B4F80E32C4F8F83194F8081201F01F039D
:1029B000012B08D013B1022B0AD00EE02946204685
:1029C00000F0CAFA0EE02946204600F0E9FA09E0D4
:1029D0002946204600F000FB04E001F0800120467B
:1029E00001F0A0FE002038BD10B5044611BB13460F
:1029F000D0F8F421032A28D1D0F80C11D0F81021F6
:102A000091420AD9891AC0F80C118A4228BF0A4695
:102A100092B2194600F0EAF817E0D0F814321B69B8
:102A200023B190F8FC21032A00D19847204600F0FA
:102A3000E5F80AE00A46D0F814329B692BB190F809
:102A4000FC11032901D111469847002010BD00BF99
:102A500010B50446002943D11346D0F8F421022AC8
:102A600036D1C169026A91420CD98A1AC26192B206
:102A7000194600F0A3F800231A461946204601F033
:102A8000A9FE25E08169B1FBF2F302FB131393B9B0
:102A90008A4210D8D0F8F83199420CD2002211465F
:102AA00000F08CF80021C4F8F8110B460A462046C5
:102AB00001F090FE0CE0D4F81432DB682BB194F8EE
:102AC000FC21032A01D120469847204600F0A2F8B5
:102AD00094F80032012B0ED1002384F800320AE072
:102AE0000A46D0F814325B692BB190F8FC11032927
:102AF00001D111469847002010BD00BF38B50446EB
:102B000040230022114601F0EBFD4025C4F810518E
:102B10002B4600228021204601F0E2FD25620123A0
:102B200084F8FC31D4F818322BB1D4F814325B6835
:102B3000217920469847002038BD00BF017400204D
:102B4000704700BF90F8FC3180F8FD31042380F815
:102B5000FC310020704700BF90F8FD3180F8FC3157
:102B60000020704708B590F8FC31032B04D1D0F851
:102B70001432DB6903B19847002008BD002070477C
:102B8000002070470020704708B5012280F8FC2122
:102B9000D0F81422526801799047002008BD00BF88
:102BA00010B513460222C0F8F4218361C3610A46BE
:102BB000002101F0FFFD002010BD00BF08B5134645
:102BC0000A46002101F0F6FD002008BD10B51346AD
:102BD0000322C0F8F421C0F80831C0F80C310A46CD
:102BE000002101F0F7FD002010BD00BF08B513461D
:102BF0000A46002101F0EEFD002008BD08B50423BF
:102C0000C0F8F43100231A46194601F0D3FD002024
:102C100008BD00BF08B50523C0F8F43100231A46EB
:102C2000194601F0D7FD002008BD00BF0346002073
:102C300002E00130C0B201331A78002AF9D170479E
:102C40004B88012B0BD110B50446C0F80432D0F8E4
:102C500014329B6898472046FFF7D0FF10BD70479D
:102C60000B7803704B7843708B78CA7803EB0223A0
:102C700043800B794A7903EB022383808B79CA79ED
:102C800003EB0223C380704710B50446802101F096
:102C900049FD0021204601F045FD10BD30B583B04F
:102CA00004460D464A88130A013B062B79D8DFE813
:102CB00003F0040C2078785C6900D0F810321B68AF
:102CC0000DF10601007C98476FE0037C43B9D0F812
:102CD00014329B6A0DF1060098470223437064E0AA
:102CE000D0F81432DB6A0DF10600984702234370D6
:102CF0005BE0D2B2052A34D8DFE802F0030B131BE5
:102D0000232BD0F810325B680DF10601007C984748
:102D10004BE0D0F810329B680DF10601007C98471B
:102D200043E0D0F81032DB680DF10601007C9847D3
:102D30003BE0D0F810321B690DF10601007C98478A
:102D400033E0D0F810325B690DF10601007C984742
:102D50002BE0D0F810329B690DF10601007C9847FA
:102D600023E02946FFF790FF2DE0037C33B9D0F82C
:102D700014325B6B0DF10600984716E02946FFF709
:102D800083FF20E0037C43B9D0F814321B6B0DF1B4
:102D9000060098470723437007E02946FFF774FFB2
:102DA00011E02946FFF770FF0DE0BDF8063053B182
:102DB000EA8842B19A4228BF1A46ADF80620014679
:102DC0002046FFF7EDFE03B030BD00BF38B5044626
:102DD0008B88E3B9CB88D3B98D7805F07F0590F85F
:102DE000FC31032B02D1FFF74FFF38BD80F8FE51B5
:102DF000294601F0CFFC2046FFF700FF1DB102235A
:102E000084F8FC3138BD012384F8FC3138BD2046FC
:102E1000FFF73AFF38BD00BF38B504460D46897844
:102E2000264B1970012903D92946FFF72DFF38BD1C
:102E300090F8FC31022B02D0032B15D039E081B180
:102E40004160032380F8FC31FFF78AFD022804D19A
:102E500029462046FFF718FF38BD2046FFF7CEFE73
:102E600038BDFFF7CBFE38BD49B9022380F8FC31ED
:102E70004160FFF783FD2046FFF7C0FE38BD436881
:102E8000994213D0D9B2FFF779FD0C4B19786160E4
:102E90002046FFF765FD022804D129462046FFF7AA
:102EA000F3FE38BD2046FFF7A9FE38BDFFF7A6FEAA
:102EB00038BD2946FFF7E8FE38BD00BF4843002073
:102EC00008B5CB88012B02D0FFF7DEFE08BD90F8D5
:102ED000FC31022B02D0032B08D00CE0014600236A
:102EE00041F8083F0122FFF75BFE08BD0122011DEA
:102EF000FFF756FE08BDFFF7C7FE08BD08B590F8FE
:102F0000FC31023B012B0CD80123C360D0F8043202
:102F10000BB10323C360022200F10C01FFF740FE56
:102F200008BDFFF7B1FE08BD10B5044690F8FC31AE
:102F3000023B012B0DD84B88012B0CD10023C0F88C
:102F40000432D0F814329B6898472046FFF756FEAB
:102F500010BDFFF799FE10BD08B54B78092B1BD8A3
:102F6000DFE803F011171A141A08051A0E0BFFF701
:102F700095FE13E0FFF72AFF10E0FFF74DFF0DE08D
:102F8000FFF79EFF0AE0FFF7B9FF07E0FFF758FEE3
:102F900004E0FFF7C9FF01E0FFF776FE002008BD5F
:102FA00038B504460D4690F8FC31032B0FD10B7950
:102FB000012B09D8D0F814329B689847EB8843B9A5
:102FC0002046FFF71BFE04E0FFF75EFE01E0FFF77F
:102FD0005BFE002038BD00BF38B505460C468A8828
:102FE0000B7803F06003202B04D1D0F814329B68D7
:102FF00098477DE0D1B26378012B26D0002B48D0D2
:10300000032B75D190F8FC31022B02D0032B07D093
:1030100017E000296CD080296AD001F083FB67E0BB
:10302000638823B919B1802901D001F07BFBD5F861
:1030300014329B682146284698472846FFF7DEFD54
:1030400056E02146FFF720FE52E090F8FC31022BBB
:1030500002D0032B07D018E0002949D0802947D09F
:1030600001F060FB44E06388002B41D111F07F0F39
:1030700007D001F067FBD5F814329B68214628463B
:1030800098472846FFF7BAFD32E02146FFF7FCFDDE
:103090002EE090F8FC31022B02D0032B06D024E066
:1030A00011F07F0F24D001F03DFB21E012F0800FE2
:1030B00006D001F07F04013400EB0414043405E071
:1030C00001F07F04103400EB04140434284601F0AE
:1030D00049FB10B10123236001E000232360022299
:1030E00021462846FFF75CFD02E02146FFF7CCFDB4
:1030F000002038BDD0B170B50D4616460446FFF726
:1031000095FD0130400080B23080287003236B7041
:10311000022307E05A1CD2B20134E9540233DBB275
:103120000021A95421780029F4D170BD704700BF57
:1031300010B5D0F81842D0F81C325BB194F80002F8
:10314000FF2807D09B6894F8012221469847FF2367
:1031500084F80032002010BD4323038000487047EC
:10316000040000204323038000487047D000002063
:1031700043230380004870478C0000200A2303800B
:10318000004870478000002038B50446D0F8185237
:1031900001F030FBC5F80C02D4F818324BB1D4F86A
:1031A0001C32DB6805F50371D5F80402984700204E
:1031B00038BD022038BD00BFD0F818324BB110B571
:1031C0000024C3F81442044B1868FFF76DFB204637
:1031D00010BD0220704700BF1447002070B505469F
:1031E0000C46D0F818620B7813F0600224D0202A25
:1031F00029D1CA88CAB113F0800F0BD0D0F81C3285
:103200009B68314660789847E28831462846FFF748
:10321000C7FC18E04B7886F80032CB8886F801327C
:10322000CA883146FFF7D2FC0DE0D0F81C329B680B
:1032300000224878984706E04B780A2B03D10122F8
:103240000249FFF7ADFC002070BD00BF49430020DC
:1032500010B50446812101F055FA0121204601F004
:1032600051FA8221204601F04DFAD4F8183253B1B8
:10327000D4F81C325B689847D4F8180207F060FE57
:103280000023C4F81832002010BD00BF38B5044632
:10329000037C6BB94FF400730222812101F020FA04
:1032A0004FF4007302220121204601F019FA0AE0CE
:1032B00040230222812101F013FA4023022201213E
:1032C000204601F00DFA082303228221204601F056
:1032D00007FA4FF4077007F02BFE0546C4F81802F2
:1032E000E8B1D4F81C321B6898470023C5F81432A3
:1032F000C5F81832237C4BB94FF40073D5F804227B
:103300000121204601F066FA002038BD4023D5F89F
:1033100004220121204601F05DFA002038BD012081
:1033200038BD00BF19B1C0F81C1200207047022040
:10333000704700BFD0F81832C3F80812C3F8102243
:1033400000207047D0F81832C3F8041200207047EC
:10335000D0F818227AB108B5D2F814326BB901232B
:10336000C2F81432B2F81032D2F80822812101F0EA
:1033700021FA002008BD02207047012008BD00BFCF
:10338000D0F818229AB108B5037C43B94FF4007302
:10339000D2F80422012101F01DFA002008BD4023CB
:1033A000D2F80422012101F015FA002008BD022004
:1033B000704700BF0F49D1F8883043F47003C1F85B
:1033C00088300D4B1A6842F001021A6000209860A4
:1033D0001A6822F0847222F480321A60074A5A6016
:1033E0001A6822F480221A60D8604FF000638B6064
:1033F000704700BF00ED00E00038024010300024AC
:10340000704700BFFEE700BFFEE700BFFEE700BF5A
:10341000FEE700BF704700BF08B5FFF773FA08BDAD
:1034200008B5024802F06AFE08BD00BFC847002088
:1034300008B5024802F062FE08BD00BF68480020DF
:1034400008B5034803F044F9024803F041F908BD08
:1034500004450020C844002008B5024804F03EFF9F
:1034600008BD00BF2848002008B5432002F086FFB1
:10347000024B1868FFF718FA08BD00BF2847002064
:1034800038B504460D4603681A685B6812F0040FED
:1034900008D003F080032BB10121A84723686FF007
:1034A0000C021A6023681A685B6803F0200312F0AC
:1034B000020F07D033B100212046A84723686FF0E0
:1034C00012021A6038BD00BF10B507490748FFF760
:1034D000D7FF074C21460748FFF7D2FF2146064891
:1034E000FFF7CEFF10BD00BF0DA8000878460020F2
:1034F00035A8000830460020C046002008B501204D
:1035000003F02EFD08BD00BF08B5042003F028FD20
:1035100008BD00BF08B5102003F022FD08BD00BFA4
:1035200008B5032002F0DAFE002211466FF00B000E
:1035300002F0E6FE002211466FF00A0002F0E0FE03
:10354000002211466FF0090002F0DAFE0022114657
:103550006FF0040002F0D4FE002211466FF0030069
:1035600002F0CEFE00220F216FF0010002F0C8FE33
:1035700000220F214FF0FF3002F0C2FE08BD00BF55
:1035800010B588B0002201462D2002F0B9FE2D2092
:1035900002F0E8FE00240194144B1A6C42F480728D
:1035A0001A641B6C03F480730193019B02A903A8A6
:1035B00001F0A0FE01F06EFE40000D4BA3FB0023C6
:1035C0009B0C013B0B480C4A026040F2E732C260A0
:1035D00043600461846003F0C3F918B9054802F040
:1035E000D7FF00E0012008B010BD00BF0038024046
:1035F00083DE1B43C84400200020004000B589B092
:1036000070230193012302930023039304930593F2
:10361000069307930C2201A903F07CFA09B05DF828
:1036200004FB00BF00B58DB01648174B03600023A4
:10363000436083604FF6FF72C2600361032203920E
:10364000049301210591069304220792089309919E
:103650000A930B9203A903F0D7F918B1E8210B489C
:1036600000F058FB00230193029301A9054801F0E3
:1036700081FE18B1EF21054800F04CFB0DB05DF85C
:1036800004FB00BF7C4500200004004018FE000839
:1036900000B58DB01748184B03600023436083606A
:1036A0004FF6FF72C260036103220392049301216B
:1036B0000591069304220792089309910A930B92AD
:1036C00003A903F0A1F920B140F209110B4800F061
:1036D00021FB00230193029301A9064801F04AFE51
:1036E00020B14FF48871054800F014FB0DB05DF86F
:1036F00004FB00BF404500200008004018FE000801
:103700000268094B9A420DD182B000230193074B06
:103710005A6C42F001025A645B6C03F0010301939E
:10372000019B02B0704700BF00000140003802401A
:1037300000B583B00368B3F1804F0CD10023009330
:10374000114B1A6C42F001021A641B6C03F0010366
:103750000093009B15E00D4A934212D10021019184
:10376000094B5A6C42F002025A645B6C03F002038C
:103770000193019B0A462D2002F0C2FD2D2002F08C
:10378000F1FD03B05DF804FB003802400004014085
:1037900000B589B003681D4A934218D100230193F4
:1037A00002F50D32116C41F002011164126C02F04D
:1037B00002020192019A302203920222049205939E
:1037C0000693079203A9124803F0DCFA1AE0114AA3
:1037D000934217D10023029302F50C32116C41F091
:1037E00004011164126C02F004020292029AC022D7
:1037F00003920222049205930693079203A90448B8
:1038000003F0C0FA09B05DF804FB00BF00040040FB
:10381000000402400008004070B586B003682A4AE0
:10382000934219D14FF4604301930226029600247B
:10383000039404940125059501A9244803F0A2FAF4
:103840004FF4E0630193029603940494059501A953
:103850001F4803F097FA35E0B3F1804F0ED14FF4D3
:1038600040630193022302930023039304930123F3
:10387000059301A9154803F085FA23E0154A934200
:1038800020D18023019302260296002403940494FD
:103890000325059501A90E4803F074FA01950296D7
:1038A00003940494059501A9084803F06BFA4FF4BA
:1038B000E0730193029603940494059501A90648C8
:1038C00003F060FA06B070BD000001400004024041
:1038D00000000240000401400008024000B595B01D
:1038E0004648474B0360002343606022826042F2F7
:1038F000D072C2600361436103F032F818B16321F2
:10390000404800F007FA14A94FF4805341F8103DE5
:103910003A4802F04BFE18B169213A4800F0FAF932
:10392000364803F055F818B16E21364800F0F2F928
:10393000324803F031F818B17321324800F0EAF947
:1039400020230E9300230F930EA92C4801F012FDA3
:1039500018B17A212B4800F0DDF97023079300227B
:10396000089209920A920B920C920D9207A9234891
:1039700003F000F918B18621224800F0CBF90422A7
:1039800007A91E4803F0F6F818B18B211D4800F076
:10399000C1F9082207A9194803F0ECF818B19021E1
:1039A000184800F0B7F914A9002341F8343D0C225F
:1039B000124803F0AFF818B19621124800F0AAF9A6
:1039C0004FF4006300934FF480630193002302934C
:1039D0001422039204934FF4005205920693694611
:1039E000064801F0F1FC18B1A221064800F092F956
:1039F0000248FFF711FF15B05DF804FBB845002041
:103A00000000014018FE000800B58BB022484FF0BE
:103A10008043036000234360602282604FF4805241
:103A2000C260036102F0D4FF18B1B5211B4800F059
:103A300071F900230893099308A9174801F09AFC2B
:103A400018B1BC21154800F065F9702301930023DB
:103A50000293022203920593082201A90E4803F063
:103A600089F818B1C5210D4800F054F941F201035D
:103A70000293002303930C2201A9074803F07AF86C
:103A800018B1CC21054800F045F90348FFF7C4FE02
:103A90000BB05DF804FB00BFF445002018FE0008E1
:103AA00000B591B03448354B036000234360602279
:103AB000826042F2D072C2600361436102F088FF0B
:103AC00020B140F223112E4800F024F920230E9358
:103AD00000230F930EA9284801F04CFC20B14FF4AD
:103AE0009571274800F016F9702307930022089279
:103AF00009920A920B920C920D9207A91E4803F0AC
:103B000039F820B14FF49B711D4800F003F90422ED
:103B100007A9194803F02EF820B140F23B111848CC
:103B200000F0F8F8082207A9134803F023F820B1A1
:103B30004FF4A071124800F0EDF84FF400630093C9
:103B40004FF48063019300230293142203920493A1
:103B50004FF40052059206936946074801F034FC81
:103B600020B14FF4A671064800F0D4F80248FFF7E0
:103B700053FE11B05DF804FB044500200004014031
:103B800018FE00082DE9F0478AB000240094524B3B
:103B90001A6B42F004021A631A6B02F004020092DC
:103BA000009A01941A6B42F080021A631A6B02F0B9
:103BB00080020192019A02941A6B42F001021A6388
:103BC0001A6B02F001020292029A03941A6B42F0FD
:103BD00002021A631A6B02F002020392039A04941F
:103BE0001A6B42F008021A631B6B03F0080304937C
:103BF000049B3A4D01224FF4C041284603F0AAF934
:103C000022464FF40241284603F0A4F9DFF8D89089
:103C100022464FF48051484603F09CF94FF462432A
:103C20000593012706970794089405A9284603F0F1
:103C3000A9F805970225069507954FF0030ACDF8D8
:103C400020A008260996DFF8A48005A9404603F0C5
:103C500099F8059506950794CDF820A0099605A931
:103C6000404603F08FF84FF0040ACDF814A01C4B27
:103C70000693079505A9404603F084F848F2080327
:103C800005930694079405A9404603F07BF80C239E
:103C900005930694079405A9484603F073F84FF47A
:103CA0008053059306970794089405A9484603F0A6
:103CB00069F8CDF814A00694079705A9094803F000
:103CC00061F822462146304602F01AFB304602F0E7
:103CD00049FB0AB0BDE8F087003802400008024006
:103CE00000001110000C02400004024000000240DD
:103CF00010F0050F03D008B506F044FD08BD70476D
:103D000008B50268024B9A4201D100F08FFF08BD4E
:103D100000200040FEE700BF00B595B000210191F2
:103D20002B4B1A6C42F080521A641B6C03F08053C8
:103D30000193019B0291274B1A6842F480421A605A
:103D40001B6803F480430293029B012308934FF402
:103D50008033099302230E934FF480020F920422C2
:103D60001092A822119212930723139308A800F02F
:103D70007DFF18B1AE211848FFF7CCFF0F23039346
:103D800002230493002305934FF4A05306934FF4AA
:103D900080530793052103A801F09EF918B1BB21B8
:103DA0000D48FFF7B7FF01F06FFA0C4BA3FB003093
:103DB000800902F0F1FA042002F004FB00220F2136
:103DC0004FF0FF3002F09CFA15B05DF804FB00BF25
:103DD000003802400070004024FE0008D34D6210FD
:103DE00008B500F009FFFFF797FFFFF7CBFE00F0E3
:103DF0006DFB00F023F800F071F800F07BFAFFF79C
:103E00006DFDFFF74DFEFFF70DFCFFF741FC00F0E5
:103E10001FFA00F0B3F8FFF7F7FD00F0B5FA054818
:103E2000FFF7ECFB0448FFF7E9FB00F0CDF9FEF7E4
:103E300061FCFEE7B84500200445002000B58FB0C6
:103E40002248234B03604FF4803343600023836098
:103E5000036183610362C3621E4A8262C3600122FE
:103E6000C2610363426101F0D9FE18B159211A48B9
:103E7000FFF750FF06230A9301230B9300230C93B3
:103E80000AA9124801F0F8FE18B163211248FFF7A1
:103E900041FF06230193012302930593002303931B
:103EA0004FF4801209924FF48032089207930693E0
:103EB000049301A9054803F07FF818B1732106485F
:103EC000FFF728FF0FB05DF804FB00BF7846002025
:103ED000002001400100000F30FE000800B58FB047
:103EE0002348244B03604FF48033436000238360F6
:103EF0000361836103624FF08052C2624FF06062DF
:103F00008262C3600122C2610363426101F086FEE6
:103F100018B18D211848FFF7FDFE0D230A930123E8
:103F20000B9300230C930AA9114801F0A5FE18B1C8
:103F300097211148FFF7EEFE0A2301930123029314
:103F40000593002303934FF4801209924FF48032BB
:103F5000089207930693049301A9054803F02CF8EF
:103F600018B1A7210448FFF7D5FE0FB05DF804FB98
:103F7000304600200021014030FE000800B58FB01F
:103F80002348244B03604FF4803343600023836055
:103F90000361836103624FF08052C2624FF060623E
:103FA0008262C3600122C2610363426101F036FE96
:103FB00018B1C1211848FFF7ADFE0C230A93012365
:103FC0000B9300230C930AA9114801F055FE18B178
:103FD000CB211148FFF79EFE0B230193012302938F
:103FE0000593002303934FF4801209924FF480321B
:103FF000089207930693049301A9054802F0DCFF99
:1040000018B1DB210448FFF785FE0FB05DF804FB13
:10401000C04600200022014030FE000830B589B0C3
:1040200003683A4A934225D100240094384B5A6CD5
:1040300042F480725A645B6C03F480730093009BBB
:104040003F23039303250495059403A9314802F007
:1040500099FE702303930495059403A92E4802F05A
:1040600091FE22460521122002F04AF9122002F0A8
:1040700079F948E0294A934225D100240194244B40
:104080005A6C42F400725A645B6C03F4007301933F
:10409000019B3F23039303250495059403A91D4821
:1040A00002F070FE702303930495059403A91A4847
:1040B00002F068FE22460521122002F021F91220AA
:1040C00002F050F91FE0164A93421CD100240294DA
:1040D0000F4B5A6C42F480625A645B6C03F4806349
:1040E0000293029B0F23039303230493059403A9D4
:1040F000084802F047FE22460521122002F000F98E
:10410000122002F02FF909B030BD00BF002001409D
:104110000038024000080240000002400021014037
:104120000022014070B594B000F0CCFB05F064F9BA
:1041300006F00AFB1D4C0FAD26460FCE0FC53368A7
:104140002B600AAD04F114060FCE0FC533682B6047
:10415000174D29460FA8FEF7D3FA164B186005F540
:10416000AC710AA8FEF7CCFA134B186005AD04F148
:1041700028060FCE0FC533682B60002105A8FEF777
:10418000BFFA0E4B18606D463C340FCC0FC5236848
:104190002B6000216846FEF7B3FA094B1860094B03
:1041A0001868FDF74DFA14B070BD00BF88FD000817
:1041B0006001002020470020184700201047002001
:1041C0001C4700200847002070B58AB000240AA8C8
:1041D00040F8044D0121FEF71DFB174D28602146D4
:1041E000FEF72CFB0AA840F8084D0121FEF712FB50
:1041F000124B18600AA840F80C4D0121FEF70AFB8B
:104200000F4B186021462868FEF718FB0AA840F8F3
:10421000104D0121FEF7FEFA0A4B186001AD0A4E5F
:104220000FCE0FC533682B60214601A8FEF768FA50
:10423000064B18600AB070BD284700200C470020CC
:104240002447002014470020D8FD0008084700201C
:1042500008B51048104B03604FF48273436000238D
:1042600083604FF40062C2600361012242614FF437
:10427000007282611822C2610362436283620A2370
:10428000C36201F02FF918B14F210448FFF742FD36
:1042900008BD00BF2C470020003C004088FE0008FD
:1042A0000268124B9A421FD100B587B000210091DD
:1042B00003F5FE331A6C42F400421A641B6C03F4DB
:1042C00000430093009B4FF4E053019302230293B9
:1042D0000391032304930623059301A9044802F0E4
:1042E00051FD07B05DF804FB704700BF003C004083
:1042F0000008024008B50C480C4B036010234360D3
:1043000000238360C360036143618361C36103620F
:1043100043628362C36201F021FB18B14F2104485C
:10432000FFF7F8FC08BD00BF844700200064004090
:1043300094FE00080268124B9A421FD100B587B064
:104340000021009103F5EA331A6C42F000721A64FE
:104350001B6C03F000730093009B4FF440730193B8
:10436000022302930391032304930923059301A9D4
:10437000044802F007FD07B05DF804FB704700BF7A
:10438000006400400004024008B50B480B4B03607A
:104390004FF4E133436000238360C36003610C2268
:1043A00042618361C36103F0DFFD18B14E2104480F
:1043B000FFF7B0FC08BD00BF28480020004C0040BB
:1043C000A0FE000802683A4B9A4270D12DE9F043F2
:1043D00087B004460025009503F5F6331A6C42F4C5
:1043E00000221A641B6C03F400230093009B01233A
:1043F00001930226029603964FF00309CDF8109020
:104400004FF00808CDF814802A4F01A9384602F071
:10441000B9FC019602960395CDF81090CDF8148062
:1044200001A9384602F0AEFC2348244B03604FF04C
:10443000006343608560C5604FF48063036145613C
:1044400085614FF48073C3610562456201F056FDDA
:1044500018B17F211A48FFF75DFC174B63639C631B
:104460001848194B03604FF000634360402383609A
:104470000023C3604FF48062026143618361C361C2
:104480000362436201F03AFD18B191210C48FFF735
:1044900041FC0C4B23639C6300220521342001F076
:1044A0002FFF342001F05EFF07B0BDE8F0837047B6
:1044B000004C004000000240C8470020406002401D
:1044C000A0FE0008684800207060024010B582B06D
:1044D000002401940D4B1A6B42F400121A631B6BFB
:1044E00003F400130193019B224605210D2001F0E6
:1044F00007FF0D2001F036FF224605210F2001F0B5
:10450000FFFE0F2001F02EFF02B010BD0038024068
:104510000368B3F1A04F29D110B586B04FF4C05352
:1045200001930223029300240394032304930A2398
:10453000059301A90E4802F025FC0E4B5A6B42F080
:1045400080025A6300945A6C42F480425A645B6C55
:1045500003F480430093009B22460521432001F091
:10456000CFFE432001F0FEFE06B010BD704700BF35
:10457000000002400038024008B500F56F71D0F825
:10458000EC03FEF703FA08BD08B5C1EBC1029300C6
:104590000344D3F80422D0F8EC03FEF725FA08BD53
:1045A00008B5C1EBC102930003445A6CD0F8EC0388
:1045B000FEF74EFA08BD00BF08B5D0F8EC03FEF7D1
:1045C000D1FA08BD10B50446C3680BB9002100E05C
:1045D0000121D4F8EC03FEF7B1FAD4F8EC03FEF7AE
:1045E0008DFA10BD10B50446D0F8EC03FEF7AAFA18
:1045F0002268D2F8003E43F00103C2F8003E236A6D
:1046000023B1034A136943F00603136110BD00BFD1
:1046100000ED00E008B5D0F8EC03FEF79DFA08BD08
:1046200008B5D0F8EC03FEF7ABFA08BD08B5D0F832
:10463000EC03FEF7A3FA08BD08B5D0F8EC03FEF7CB
:10464000A1FA08BD08B5D0F8EC03FEF79DFA08BD45
:1046500003787BBB10B503461748C0F8EC33C3F8AA
:1046600020024FF0A0430360042343600222C26093
:104670000023036143618261C36103624362C362D9
:10468000036302F0F1FD20B14FF49A710B48FFF77C
:1046900041FB094C8021204603F07EFA4022002194
:1046A000204603F055FA80220121204603F050FAFB
:1046B000002010BD00207047C8480020ACFE000854
:1046C00008B5D0F8200202F041FE10B1022802D055
:1046D00003E0002008BD012008BD022008BD00BF86
:1046E00010B51C4613462246D0F8200203F014F9F8
:1046F00010B1022802D003E0002010BD012010BD3F
:10470000022010BD08B5D0F8200203F039F910B12D
:10471000022802D003E0002008BD012008BD0220CD
:1047200008BD00BF08B5D0F8200203F0B3F910B1FE
:10473000022802D003E0002008BD012008BD0220AD
:1047400008BD00BF08B5D0F8200203F0D5F910B1BC
:10475000022802D003E0002008BD012008BD02208D
:1047600008BD00BFD0F8202211F0800F08D001F062
:104770007F01C1EBC1018B00134493F83A007047ED
:1047800001F07F01C1EBC1018B00134493F8FA01E2
:10479000704700BF08B5D0F8200203F0ABF810B1A5
:1047A000022802D003E0002008BD012008BD02203D
:1047B00008BD00BF08B5D0F8200203F043F910B1DE
:1047C000022802D003E0002008BD012008BD02201D
:1047D00008BD00BF08B5D0F8200203F0FDF810B105
:1047E000022802D003E0002008BD012008BD0220FD
:1047F00008BD00BF08B5D0F8200203F019F908BDC4
:1048000012230B80004870473801002004230B80DE
:10481000004870473401002008B50A4620B9054910
:104820000548FEF767FC03E002490348FEF762FC17
:10483000004808BDB84C0020BCFE000810B5044C70
:104840000A4621460348FEF755FC204610BD00BF2E
:10485000B84C0020C8FE000808B50A4620B9054932
:104860000548FEF747FC03E002490348FEF742FC17
:10487000004808BDB84C0020D0FE000808B50A4624
:1048800020B905490548FEF735FC03E00249034815
:10489000FEF730FC004808BDB84C0020E0FE0008E0
:1048A00008B50A4620B905490548FEF723FC03E090
:1048B00002490348FEF71EFC004808BDB84C002022
:1048C000ECFE000810B5094C002209492046FEF70D
:1048D00021F808492046FEF735F807492046FEF73B
:1048E00021FD2046FEF736F810BD00BFB84E00206F
:1048F00018010020480000204C01002070B584B051
:1049000004460D460022018AC06802F023FB012004
:10491000FDF714FF0026ADF80E6045F40045ADF834
:104920000C504BF6EF65ADF80A504FF47A73012244
:1049300003A9206800F018FE0122218AE06802F035
:1049400009FB0120FDF7FAFE3246218AE06802F0F9
:1049500001FB0120FDF7F2FE4FF47A73009301236F
:104960000DF10A020DF10E01206800F0D5FE0120C4
:10497000FDF7E4FE0122218AE06802F0EBFA012053
:10498000FDF7DCFEBDF80A00A84206D1054B064A39
:1049900040F26911054806F075FAC0F30A0004B048
:1049A00070BD00BFFCFE00082CFF000810FF0008CF
:1049B00010B5044601220189406802F0CBFA0A20B2
:1049C000FDF7BCFE00212046FFF798FF00F4806051
:1049D00080B20028F6D10120FDF7B0FE10BD00BF67
:1049E00070B582B004460D4616460022018AC068A2
:1049F00002F0B0FA0120FDF7A1FEC6F30A06354326
:104A000002A921F8025D4FF47A730122206800F0B8
:104A1000ABFD0120FDF792FE0122218AE06802F041
:104A200099FA0120FDF78AFE02B070BD8B7EFBB1C2
:104A300070B50C4605460E7C497CA37CE07CA28ABE
:104A400031430B4303431A434FF480512846FFF789
:104A5000C7FFA37DE17D207E627E0B4303431A43A3
:104A60004FF4C0512846FFF7BBFF0023A37670BD6B
:104A7000704700BF38B5CB7E002B59D00C46054699
:104A80000021FFF73BFFC0F380232370C0F34023D6
:104A90006370C0F30023A370C0F3C013E370C0F3CE
:104AA00080132371C0F340136371C0F30013A3712B
:104AB000C0F3C003E371C0F380032372C0F340036B
:104AC000637200F00103A3724FF400612846FFF700
:104AD00015FFC0F3C013237300F00F00E0814FF403
:104AE00080512846FFF70AFFC3B203F00302227485
:104AF00003F00402627403F00802A27403F03003AE
:104B0000E37400F4F860A0824FF4C0512846FFF728
:104B1000F5FEC0B200F00303A37500F00C03E375CB
:104B200000F03003237600F0400060760023E37647
:104B300038BD00BF70B505460C4600268E76CE7691
:104B40000120FDF7FBFD31462846FFF7D7FEC0F3F5
:104B500080232370C0F340236370C0F30023A3704D
:104B6000C0F3C013E370C0F380132371C0F340138C
:104B70006371C0F30013A371C0F3C003E371C0F30A
:104B800080032372C0F34003637200F00100A0723F
:104B90004FF400612846FFF7B1FEC0F3C013237342
:104BA00000F00F00E0814FF480512846FFF7A6FE89
:104BB000C3B203F00302227403F00402627403F030
:104BC0000802A27403F03003E37400F4F860A082DA
:104BD0004FF4C0512846FFF791FEC0B200F0030326
:104BE000A37500F00C03E37500F03003237600F0AA
:104BF0004000607670BD00BF08B50B4B1A6842F4E8
:104C000000721A601A6842F480621A601A6842F4EC
:104C100080721A60032001F061FB0020FEF7B0FCF7
:104C2000FEF77EFC002008BD003C0240024A1368EB
:104C300001331360704700BFDC500020014B18683F
:104C4000704700BFDC50002030B583B00190FFF703
:104C5000F5FF0546019CB4F1FF3F00D00134FFF79A
:104C6000EDFF401BA042FAD303B030BD30B583B096
:104C70000446036813F0010F5AD09F4B9B6803F062
:104C80000C03042B0AD09C4B9B6803F00C03082BED
:104C90000DD1994B5B6813F4800F08D0964B1B68BD
:104CA00013F4003F44D06368002B41D19DE1636859
:104CB000B3F5803F05D1904A136843F48033136005
:104CC00015E0B3F5A02F09D18B4B1A6842F480226E
:104CD0001A601A6842F480321A6008E0864B1A683B
:104CE00022F480321A601A6822F480221A60636803
:104CF0007BB1FFF7A3FF054605E0FFF79FFF401BD1
:104D0000642800F274817C4B1B6813F4003FF4D0DC
:104D10000EE0FFF793FF054605E0FFF78FFF401B0E
:104D2000642800F26681744B1B6813F4003FF4D1D1
:104D3000236813F0020F5AD06F4B9B6813F00C0FCF
:104D40000AD06D4B9B6803F00C03082B1BD16A4BF8
:104D50005B6813F4800F16D1674B1B6813F0020FCA
:104D600003D0E368012B40F046816348036823F0D9
:104D7000F8012369F82292FAA2F2B2FA82F2934081
:104D80000B43036033E0E368FBB101225B4B1A6025
:104D9000FFF754FF054605E0FFF750FF401B0228D0
:104DA00000F22B81544B1B6813F0020FF4D05248D1
:104DB000036823F0F8012369F82292FAA2F2B2FA0A
:104DC00082F293400B43036011E000224B4B1A60C8
:104DD000FFF734FF054605E0FFF730FF401B0228D0
:104DE00000F20D81444B1B6813F0020FF4D12368CD
:104DF00013F0080F26D0636993B10122404B1A606B
:104E0000FFF71CFF054605E0FFF718FF401B0228CF
:104E100000F2F780384B5B6F13F0020FF4D011E013
:104E20000022374B1A60FFF709FF054605E0FFF740
:104E300005FF401B022800F2E6802F4B5B6F13F04A
:104E4000020FF4D1236813F0040F69D000230193FB
:104E5000294B1A6C42F080521A641B6C03F0805389
:104E60000193019B274A136843F480731360FFF793
:104E7000E5FE054605E0FFF7E1FE401B022800F2D3
:104E8000C480204B1B6813F4807FF4D0A368012BEF
:104E900005D1194A136F43F00103136714E0052B82
:104EA00009D1154B1A6F42F004021A671A6F42F0CB
:104EB00001021A6708E0104B1A6F22F001021A670C
:104EC0001A6F22F004021A67A3688BB1FFF7B6FECF
:104ED000054607E0FFF7B2FE401B41F288339842D7
:104EE00000F29580044B1B6F13F0020FF2D017E015
:104EF000FFF7A4FE05460EE00038024000004742DE
:104F0000800E474200700040FFF798FE401B41F2C0
:104F1000883398427DD8454B1B6F13F0020FF3D1B5
:104F2000A369002B77D0414A926802F00C02082A4C
:104F300073D0022B46D100223D4B1A60FFF77EFE54
:104F4000054604E0FFF77AFE401B022867D8374B7E
:104F50001B6813F0007FF5D1E169236A1943636A86
:104F600047F6C07292FAA2F2B2FA82F29340194363
:104F7000A36A5B085A1E4FF4403393FAA3F3B3FAC3
:104F800083F302FA03F30B43E26A4FF0706191FA84
:104F9000A1F1B1FA81F18A401343244A53600122FE
:104FA000234B1A60FFF74AFE044604E0FFF746FE73
:104FB000001B022835D81D4B1B6813F0007FF5D06D
:104FC000002031E000221A4B1A60FFF737FE04463A
:104FD00004E0FFF733FE001B022824D8134B1B68A4
:104FE00013F0007FF5D100201EE001201CE003201B
:104FF0001AE0032018E0012016E0032014E003204B
:1050000012E0032010E003200EE003200CE0032058
:105010000AE0032008E0002006E0012004E003206D
:1050200002E0032000E0032003B030BD003802405E
:1050300060004742254B9B6803F00C03042B3FD0D4
:10504000082B01D02248704710B4204B586800F05C
:105050003F005B6813F4800F10D01E4BB3FBF0F0E1
:105060001A4B5A6847F6C0710A4091FAA1F3B3FA95
:1050700083F322FA03F303FB00F310E0144BB3FBBA
:10508000F0F0124B5A6847F6C07402EA040194FA31
:10509000A4F2B2FA82F221FA02F202FB00F30B4A06
:1050A000506800F440324FF4403090FAA0F0B0FA6B
:1050B00080F022FA00F001304000B3FBF0F001E094
:1050C000044870475DF8044B704700BF0038024049
:1050D0000024F40000127A0070B5674B1B6803F0DF
:1050E0000F038B4208D2CBB2634A1370136803F0EC
:1050F0000F03994240F0AE80036813F0020F06D010
:105100005E4CA36823F0F00283681343A3600D464E
:105110000446036813F0010F60D04268012A05D1EC
:10512000564B1B6813F4003F0FD195E0931E012BE3
:1051300005D8524B1B6813F0007F06D18EE04F4B11
:105140001B6813F0020F00F08B804C498B6823F032
:10515000030313438B60FFF771FD06466368012B61
:105160000ED106E0FFF76AFD801B41F288339842BA
:1051700078D8424B9B6803F00C03042BF2D12DE04E
:10518000022B0ED106E0FFF759FD801B41F2883358
:10519000984269D8394B9B6803F00C03082BF2D175
:1051A0001CE0032B15D106E0FFF748FD801B41F200
:1051B000883398425AD8314B9B6803F00C030C2B70
:1051C000F2D10BE0FFF73AFD801B41F288339842A1
:1051D0004ED82A4B9B6813F00C0FF3D1264B1B685B
:1051E00003F00F039D4207D2EAB2234B1A701B68EB
:1051F00003F00F039D423DD1236813F0040F06D046
:105200001E498B6823F4E052E36813438B602368E4
:1052100013F0080F07D0194A936823F460432169FB
:1052200043EAC1039360FFF705FF144B9B6803F04B
:10523000F002F02393FAA3F3B3FA83F322FA03F311
:105240000F4AD35CD8400F4B18600020FEF798F946
:10525000002070BD012070BD012070BD012070BD17
:10526000012070BD032070BD032070BD032070BD00
:10527000032070BD012070BD003C02400038024098
:1052800000FE000814010020014B1868704700BFA1
:105290001401002008B5FFF7F7FF084B9B6803F4E3
:1052A000E0524FF4E05393FAA3F3B3FA83F322FAF4
:1052B00003F3034AD35CD84008BD00BF0038024066
:1052C00010FE000808B5FFF7DFFF084B9B6803F4EA
:1052D00060424FF4604393FAA3F3B3FA83F322FAE4
:1052E00003F3034AD35CD84008BD00BF0038024036
:1052F00010FE00080F2303600B4B9A6802F00302B4
:1053000042609A6802F0F00282609A6802F4E05209
:10531000C2609B68DB0803F4E0530361034B1B6826
:1053200003F00F030B60704700380240003C02405E
:1053300010B4042303FA01F4036A23EA04030362AA
:10534000036A8A401A4302625DF8044B704700BF4B
:1053500010B5044604220068FFF7EAFF2268536C88
:1053600043F4004353642268136843F0010313605D
:10537000002010BD90F83830012B21D030B401222C
:1053800080F83820022380F839300468636823F0FD
:1053900070036360046865680B682B43636004688E
:1053A000A36823F08003A3600468A5684B682B43BF
:1053B000A36080F83920002380F83830184601E0D7
:1053C0000220704730BC704790F83830012B25D050
:1053D000012380F83830CB6823F440728B68134384
:1053E00023F480624B68134323F400620B68134379
:1053F00023F480520B69134323F400524B69134387
:1054000023F480438A69134323F40043134302685F
:105410005364002380F838301846704702207047E4
:10542000704700BF704700BFF8B505460F461646E7
:105430001C4636E0B4F1FF3F33D02CB1FFF7FEFB42
:10544000069BC01A84422CD82A68536823F0E003D4
:1054500053606B68B3F5827F0BD1AB68B3F5004F37
:1054600002D0B3F5806F04D12A68136823F040039B
:105470001360AB6AB3F5005F0BD12A68136823F49D
:1054800000531B041B0C13602A68136843F4005379
:105490001360012385F85130002385F85030032034
:1054A000F8BD2B689B6837EA030301D1012300E0B4
:1054B0000023B342BED10020F8BD00BF10B582B0BA
:1054C000044600920B4600228021FFF7ADFF034601
:1054D00020B1636D43F0200363650323184602B0D7
:1054E00010BD00BF00283CD010B5044600238362E5
:1054F00090F8513013F0FF0F04D1002380F85030A2
:10550000FEF7CEFE022384F851302268136823F0A0
:105510004003136021686268A3681A43E3681A4372
:1055200023691A4363691A43A36903F4007313439D
:10553000E2691343226A1343A26A1A430A6021688C
:10554000638B03F00402636A13434B602268D369E0
:1055500023F40063D36100206065012384F8513097
:1055600010BD0120704700BF2DE9F04184B01D46F9
:1055700090F85030012B00F0CB8004460E46904648
:10558000012380F85030FFF759FB074694F851305B
:10559000DBB2012B40F0A480002E00F0A380B8F114
:1055A000000F00F0A180032384F8513000236365CD
:1055B0002663A4F83480A4F83680A363A387E38726
:1055C00063642364A368B3F5004F04D122681368B1
:1055D00043F48043136023681A6812F0400F03D12C
:1055E0001A6842F040021A60E368B3F5006F2CD1EC
:1055F00063681BB1E38E9BB2012B21D1236836F87F
:10560000022BDA60E38E9BB2013B9BB2E38617E08C
:1056100023689A6812F0020F08D036F8022BDA607D
:10562000E38E9BB2013B9BB2E38609E0002D5DD087
:10563000B5F1FF3F04D0FFF701FBC01B854257D9EE
:10564000E38E9BB2002BE3D12BE063681BB1E38EAA
:105650009BB2012B21D1236816F8012B1A73E38E1C
:105660009BB2013B9BB2E38617E023689A6812F075
:10567000020F08D016F8012B1A73E38E9BB2013B80
:105680009BB2E38609E0002D34D0B5F1FF3F04D092
:10569000FFF7D4FAC01B85422ED9E38E9BB2002BB4
:1056A000E3D100972B46012202212046FFF7BCFEE2
:1056B00020BB3A4629462046FFF700FF18B12023B9
:1056C000636501201DE0A36833B903932368DA689A
:1056D00003929B680393039B636D8BB9002010E0DA
:1056E00002200EE001200CE001200AE0032008E087
:1056F000032006E0032004E0032002E0032000E092
:105700000120012384F85130002384F8503000E058
:10571000022004B0BDE8F0812DE9F04385B0984641
:105720000C9D90F85030012B00F0148104460F4678
:105730001646012380F85030FFF780FA814694F82E
:105740005130DBB26268012B0AD0B2F5827F40F0A3
:10575000E780A268002A40F0E580042B40F0E48056
:10576000002F00F0E380002E00F0E280B8F1000F7F
:1057700000F0E08094F85130DBB2012B02D1052318
:1057800084F8513000236365A663A4F83E80A4F832
:105790003C802763A4F83680A4F8348023646364D3
:1057A00023681A6812F0400F03D11A6842F04002D1
:1057B0001A60E368B3F5006F4AD163681BB1E38EEA
:1057C0009BB2012B08D1236837F8022BDA60E38EF5
:1057D0009BB2013B9BB2E3864FF001082FE0B8F18A
:1057E000000F11D0E38E9BB273B123689A6812F058
:1057F000020F09D037F8022BDA60E38E9BB2013B2F
:105800009BB2E3864FF00008E38F9BB273B123682D
:105810009A6812F0010F09D0DB6826F8023BE38F8B
:105820009BB2013B9BB2E3874FF00108B5F1FF3F0C
:1058300005D0FFF703FAC9EB000085427CD9E38E5F
:105840009BB2002BCBD1E38F9BB2002BC7D149E099
:1058500063681BB1E38E9BB2012B08D1236817F854
:10586000012B1A73E38E9BB2013B9BB2E3864FF090
:1058700001082FE0B8F1000F11D0E38E9BB273B195
:1058800023689A6812F0020F09D03A781A73E38EEF
:105890009BB2013B9BB2E38601374FF00008E38FD8
:1058A0009BB273B123689A6812F0010F09D0DB68CC
:1058B0003370E38F9BB2013B9BB2E38701364FF01D
:1058C0000108B5F1FF3F05D0FFF7B8F9C9EB0000BB
:1058D000854233D9E38E9BB2002BCBD1E38F9BB2B1
:1058E000002BC7D1CDF800902B4601220221204683
:1058F000FFF79AFD20BB4A4629462046FFF7DEFD0A
:1059000018B12023636501201DE0A368D3B90020EE
:1059100003902368DA6803929B680393039B12E069
:10592000022010E002200EE002200CE001200AE03C
:10593000012008E0012006E0032004E0032002E04B
:10594000032000E00020012384F85130002384F874
:10595000503000E0022005B0BDE8F083002800F0E0
:10596000BF8038B5044690F83C3013F0FF0F04D1E7
:10597000002380F83D30FEF7DDFC022384F83C3044
:105980002268136823F0020313602268136843F04F
:1059900001031360FFF752F905460BE0FFF74EF9DC
:1059A000401B0A2806D9032084F83C00002384F811
:1059B0003D3038BD23685A6812F0010FEED05A68A6
:1059C00012F0010F7DD0A269012A04D11A6842F0B9
:1059D00080021A6003E01A6822F080021A60E3690C
:1059E000012B05D12268136843F04003136004E0E3
:1059F0002268136823F040031360236A012B05D14A
:105A00002268136843F02003136004E022681368DF
:105A100023F020031360636A012B05D12268136809
:105A200043F01003136004E02268136823F01003AE
:105A30001360A36A012B05D12268136843F00803A1
:105A4000136004E02268136823F008031360E36A1C
:105A5000012B05D12268136843F00403136004E0AE
:105A60002268136823F0040313602168A268E368C6
:105A70001A4323691A4363691A436368013B13435A
:105A8000CB612268136823F001031360FFF7D6F897
:105A900005460BE0FFF7D2F8401B0A2806D9032081
:105AA00084F83C00002384F83D3038BD23685A68F0
:105AB00012F0010FEED15B6813F0010F03D0002349
:105AC00002E0002300E001232BB100202064012329
:105AD00084F83C3038BD042384F83C30012038BDC4
