:020000040800F2
:10000000B88C0020B9C00008E3150108530D0108A1
:10001000E1150108EDD100082138010800000000B9
:1000200000000000000000000000000001C0000807
:1000300033D600080000000055C00008011A01086E
:10004000D3C00008D3C00008D3C00008D3C0000844
:10005000D3C00008D3C0000835D60008D3C00008BC
:100060003BD60008D3C0000841D60008D3C0000822
:10007000D3C000088DD20008D3C0000899D2000870
:10008000D3C00008D3C0000865D10008D3C0000861
:10009000D3C00008D3C00008D3C00008D3C00008F4
:1000A000D3C00008D3C00008D3C00008D3C00008E4
:1000B000D3C00008D3C00008D3C00008D3C00008D4
:1000C000D3C00008D3C00008D3C00008D3C00008C4
:1000D000D3C00008D3C00008D3C00008D3C00008B4
:1000E000D3C00008D3C00008D3C00008D3C00008A4
:1000F000D3C00008FD1A0108D3C00008D3C000080F
:10010000D3C00008D3C00008D3C00008D3C0000883
:10011000DD1C0108D3C00008D3C00008D3C000080C
:10012000D3C00008D3C00008D3C00008D3C0000863
:10013000D3C00008D3C00008D3C00008D3C0000853
:10014000D3C00008D3C00008D3C0000809160108B6
:10015000D3C00008D3C00008D3C00008D3C0000833
:10016000D3C00008D3C00008D3C00008D3C0000823
:10017000D3C00008D3C00008D3C00008D3C0000813
:10018000D3C00008D3C00008DFF810D000F008F892
:10019000004800470D590108AFF30080B88C0020DB
:1001A000064C074D06E0E06840F0010394E80700C4
:1001B00098471034AC42F6D3FFF7EAFFE401000899
:1001C0000402000802E008C8121F08C1002AFAD180
:1001D00070477047002001E001C1121F002AFBD1C7
:1001E000704700000402000800000020C405000061
:1001F0000CD10008AC030008C4050020F486000000
:10020000D401000801291324F413F9D11B08F304C5
:100210001AEF04131DD2180B08E12401081125015F
:10022000081D041A39041A59041AC1141AED0417C6
:100230000403090412011402020216400912310DCE
:10024000460201020301874041D7A3F03EA20242C9
:1002500040920743A041258FC2753C4B803F2263EB
:100260009C461A201C391439249119601380072CDC
:1002700020E813020314D02713E40612201404020A
:100280004032101A0808023E208DABAAA644940101
:100290002E19AF19846982CD204160091C1C0AD730
:1002A000A3FC01285A7A88A18DD66EBB3A9C4BC814
:1002B000430401484B803F0461A203424092071A65
:1002C000A07C214808A69BC43A6F1283908C409C66
:1002D000469839443924A9FD1380082C20E81302DC
:1002E0000314B83B13E40612201404024032101A1F
:1002F00008083976013A8DABAAA64494012E19AFAD
:10030000111A40B06940CB60091C052A0AD7A33CEA
:100310005A7A8899448C18CF3A9C4BC843040148B8
:100320004B803F0401721AAA010124130A0632020B
:100330003340011409024313020125C03209041B92
:1003400001020B13052416100105240110090104F4
:100350002402020524061701070582030815100967
:10036000040133020A1D07050102432C070581071A
:100370000938442A40072A8107112B0907440A2219
:1003800004440A16FF44400D89220108F5210108A2
:10039000812301081A31101AA1101AC504C11A715B
:0C03A000181A65041A7D041A5904011093
:020000040800F2
:10C000002A4B19680868B0E8F04F80F30988BFF33D
:10C010006F8F4FF0000080F3118870470000000020
:10C0200006480068006880F3088862B661B6BFF30E
:10C030004F8FBFF36F8F00DF00BF00BF08ED00E040
:10C04000DFF80C00016841F470010160704700BF27
:10C0500088ED00E0EFF30980BFF36F8F134B1A6890
:10C060001EF0100F08BF20ED108A20E9F04F10607D
:10C0700008B44FF0500080F31188BFF34F8FBFF327
:10C080006F8F0CF01FFF4FF0000080F3118808BC89
:10C0900019680868B0E8F04F1EF0100F08BFB0EC48
:10C0A000108A80F30988BFF36F8F70473C0400202B
:10C0B000EFF30580704700000648804706480047B8
:10C0C000FEE7FEE7FEE7FEE7FEE7FEE7FEE7FEE748
:10C0D000FEE7FEE7A51A0108890100082DE9F05FD7
:10C0E0000546002092469B468846064681464024E7
:10C0F0001BE0284641464746224600F07DFB53465A
:10C100005A46C01A914110D311461846224600F0F3
:10C1100064FB2D1A67EB01084F46224601200021DF
:10C1200000F05BFB17EB00094E41201EA4F1010457
:10C13000DFDC484631462A464346BDE8F09F40EAE8
:10C1400001039B0703D009E008C9121F08C0042A95
:10C15000FAD203E011F8013B00F8013B521EF9D27C
:10C16000704710B5002200E0521C835C8C5CA34237
:10C1700001D1002BF8D1D8B2E1B2401A10BD0000B5
:10C1800070B50F4D00B92868002412E00A4602E09D
:10C190009E4203D0521C1378002BF9D1DAB222430D
:10C1A00005D02BB124B1002100F8011B04E00446A6
:10C1B000401C0678002EE9D12860204670BD0000A2
:10C1C000B80500200FB400B58DB010A909900B90F0
:10C1D00000914FF0FF300A9000200C900548069027
:10C1E000054807906A4609A80F9900F029FB0DB091
:10C1F0005DF814FB5DC800087BC800082DE9FF5FEF
:10C200001D464FF0FF3BD5E9014691465F464FF092
:10C210000008A9697F1C01988847296A82468847D7
:10C220000028F6D1BAF1FF3F0CD024F4C064002EF0
:10C2300019DD600614D5BAF12B0F09D0BAF12D0F14
:10C240000ED103E0584604B0BDE8F09F44F480648A
:10C25000A9697F1C01988847761E8246002E02DD60
:10C26000BAF1300F03D0B9F1000F26D032E0A9693E
:10C27000761E44F400747F1C019888478246002E85
:10C2800005DDBAF1780F06D0BAF1580F03D0B9F135
:10C29000000F10D01EE0B9F1000F02D0B9F1100F5D
:10C2A00018D1A969761E24F400747F1C0198884770
:10C2B0008246102002E0082000E00A20814609E0C2
:10C2C00008FB0908A969761E44F400747F1C0198D4
:10C2D00088478246002E05DD4946504600F09CFA0C
:10C2E0000028EDDAE96901988847A00502D46FF0CB
:10C2F0000100A8E7E00725D1600613D5600502D547
:10C30000C8F1000000E0404629680A1D2A6009685B
:10C31000220501D5087015E0220701D5088011E03B
:10C3200008600FE02868011D29600068210502D51A
:10C3300080F8008006E0210702D5A0F8008001E027
:10C34000C0F8008038467EE72DE9FF5FD2E901A7FB
:10C350004FF00008916999461446DDF838B046461A
:10C3600001988847054659EA0B0005D009E0A16904
:10C37000761C019888470546216A28468847002888
:10C38000F5D1681C03D05FEACA7005D015E04FF004
:10C39000FF3004B0BDE8F09F2068011D2160D0F897
:10C3A00000800AE05FEACA7001D108F8015BA16968
:10C3B000761C7F1E019888470546002F1ADD681CF1
:10C3C00018D0B9F1000F0DD0E81705EBD06042117D
:10C3D00020F01F0059F822102A1A01209040014233
:10C3E000E0D107E0BBF1000FDCD1216A2846884785
:10C3F0000028D7D0E16901988847BBF1000F07D129
:10C40000002E05DD5FEACA7002D1002188F8001015
:10C41000A068B84203DDBBF1000F03D017B16FF085
:10C420000100B6E73046B4E72DE9FF4F087883B046
:10C430009946FF2805D0491C2D2804D0002400204F
:10C4400008E000200BE00124F9E700EB800003EB9B
:10C450004000491C0B78FF2BF7D104B14042002368
:10C460000293147819461D462D2C01D02B2C04D193
:10C47000521C2D2C13D000240294AA461478FF2CB1
:10C480000FD00A25A3FB057801FB05814FF0000CB6
:10C4900003FB0C11521CE3194AEB0101EEE70124E6
:10C4A000EAE7814453EA010002D019F5C87F06DAB1
:10C4B00003980021C0E9001107B0BDE8F08F002506
:10C4C000AE4E2F46DFF8B882184600F06FFBCDE97C
:10C4D0000001B9F1000002DAC9F1000400E00446ED
:10C4E0000023A74A1AEB030B42EB045A12E0E007C1
:10C4F00007D02A4633463846414600F076FA0746CA
:10C5000088462A4633461046194600F06EFA05461C
:10C510000E466410002CEAD1DDE90001B9F1000FEC
:10C520005A46534606DA00F0D2FA3A46434600F03D
:10C53000CEFA05E000F059FA3A46434600F055FAC3
:10C54000029A0AB181F00041039AC2E90001B3E7FF
:10C550002DE9FF4F1F468DB0D7E901464FF0FF3858
:10C560002E2045464FF000090B90B9696D1C0E98BE
:10C570008847396A824688470028F6D1BAF1FF3FDA
:10C580000AD024F4D064002E11DDBAF12B0F08D0AC
:10C59000BAF12D0F0BD102E0404611B08DE744F403
:10C5A0008064B9696D1C0E9888478246761E69467C
:10C5B000600501D52D2000E02B208DF8000001F151
:10C5C000010B0DF1200809E0B9696D1C0E98884730
:10C5D00082460F9844F40074761E0560002E02DD3A
:10C5E000BAF1300FF0D00B998A453ED144F0800467
:10C5F00006E00F99681CA9F1010944F40074086071
:10C60000B9696D1C761E0E98884782463028F0D096
:10C610002BE00B998A4505D1200603D444F0800411
:10C62000761E18E0504607F017FA08B30DF1130113
:10C63000761E44F400748B4508D2AAF130000BF842
:10C64000010B200607D5A9F1010003E0200602D462
:10C6500009F101008146A00502D50F99681C086008
:10C66000B9696D1C0E9888478246002ED1DC53E0D4
:10C67000002E51DDBAF1650F02D0BAF1450F4BD152
:10C68000A00549D5B9696D1C24F44074761E0E9836
:10C6900088478246002E0CDD2B2804D0BAF12D0FDE
:10C6A00007D144F48074B9696D1C0E98884782469E
:10C6B000761EE00501D52D2100E02B2108F8011B95
:10C6C000CDF82C8021E00DF12901761E44F4007490
:10C6D00088450CD2AAF1300010F0FF0088F8000065
:10C6E00002D10B99884509D908F1010806E0E00557
:10C6F00001D5244801E042F20F708146B9696D1CF2
:10C700000E98884782460F980560002E04DD50463B
:10C7100007F0A2F90028D6D1F9690E988847FF20C2
:10C720008BF8000088F800000020069007904B4628
:10C730006A4608A906A8FFF777FEA00502D46FF0A5
:10C7400001002AE714F0240F0AD0E00714D1DDE934
:10C7500006123868031D3B600068C0E900120BE058
:10C76000DDE9060100F05EFA0146E00704D1386811
:10C77000021D3A600068016028460EE70000144080
:10C780000000F03FF1D8FFFF00F0004230F0004021
:10C790000AD0C10D01F56071C0F3160042EA0151E3
:10C7A000C20840071143704700200146704730B56A
:10C7B0000B46014600202022012409E021FA02F55F
:10C7C0009D4205D303FA02F5491B04FA02F52844F9
:10C7D000151EA2F10102F1DC30BD202A04DB203A53
:10C7E00000FA02F1002070479140C2F1200320FAC4
:10C7F00003F3194390407047202A04DB203A21FAC2
:10C8000002F00021704721FA02F3D040C2F1200269
:10C8100091400843194670473A2800D2303820F03A
:10C820002002412A01D3A2F13700884201D34FF000
:10C83000FF30704702681144137801601846704752
:10C84000D16004495161044911620021116111460E
:10C8500000F01CBA35C8000881CC0008426842B11B
:10C86000016811F8013B23B1521EC0E900121846BD
:10C8700070470121C160881E704742685AB1C36881
:10C88000016843B983688B4205D0491E521CC0E938
:10C890000012002070474FF0FF3070472DE9FE4F27
:10C8A000804681EA0300C00F0C46009021F0004151
:10C8B00023F00045B8EB0200A94105D240462146CD
:10C8C00090461C460B46024623F00040104347D0DA
:10C8D000270DC7F30A00C3F30A510290401A0190D2
:10C8E00040286BDAC3F3130040F4801B0098924693
:10C8F00020B10023D2EB030A63EB0B0B01985946DE
:10C90000C0F140025046FFF768FF06460D4650460C
:10C910005946019A00F0A2F910EB08006141002489
:10C9200087EA115284EAE7731A4340D0009A62B34F
:10C93000019A012A4FEA075215DC001B61EB020144
:10C940004FF0004202EA0752CDE90042001C41F5D7
:10C95000801132462B4600F077FB03B0BDE8F08F24
:10C9600040462146F9E7001B61EB0201001C41F53E
:10C97000801300185B412018A2F5001747EB030154
:10C9800040EAD570B6196D4111E06D084FEA3606E0
:10C9900045EAC0754FEA0752001B61EB0201001C1B
:10C9A00041F5801149084FEA3000001951413246E3
:10C9B0002B4603B0BDE8F04F00F037BB00980122D2
:10C9C00040000023D0EB020263EBE07300982146A5
:10C9D0004FEAE074B8EB000061EB0401E9E783F093
:10C9E00000435BE781F0004158E72DE9FE4F81EA03
:10C9F000030404F0004421F0004100944FF0000BC8
:10CA000023F0004350EA01045ED052EA03045BD0F5
:10CA1000C3F30A54C1F30A552C44A4F2F33401942D
:10CA2000A0FB0254C1F3130141F48011C3F31303BB
:10CA300043F4801301FB024400FB034E840A970A6F
:10CA400044EA815447EA8357A4FB076802958D0A9C
:10CA500005FB07854FEA932C04FB0C542705029D28
:10CA60004FEA065847EA1637B5EB08056EEB070C98
:10CA7000870E920E47EA811742EA8312A7FB020152
:10CA8000B6EB0B0164EB00042B0D43EA0C335E188C
:10CA900044EB1C50DA465146E7FB0201C5F3130490
:10CAA0004FEA0B3343EA14534FEA0432019C43EA42
:10CAB0000603A4F10C040294009CCDE900B400F03C
:10CAC000C3FA03B0BDE8F08F00200146F9E72DE975
:10CAD000F04D81EA030404F0004B21F000451446B8
:10CAE0004FF0000A23F0004150EA050220D054EA3A
:10CAF00001021DD0C5F30A570246C5F31303C1F363
:10CB00001300C1F30A5640F4801543F48013A7EBD9
:10CB10000608101BD64608F2FD3873EB050002D359
:10CB200008F1010801E092185B41B8F1000F03DA47
:10CB300000200146BDE8F08D00204FF4801106462C
:10CB400084460EE0171B73EB050705D3121B63EB3E
:10CB5000050306434CEA010C49084FEA30009218DD
:10CB60005B4150EA0107EDD152EA030012D082EA9C
:10CB7000040083EA0501084305D0101BAB4106D22F
:10CB80000122002306E000224FF0004302E06FF094
:10CB9000010253101AEB06004CEB085110EB0A008F
:10CBA00041EB0B01BDE8F04D00F03FBA0EB540F28D
:10CBB000334202920022CDE90022134600F044FAEB
:10CBC00003B000BDC1F30A52C1F3130140F2FF33B9
:10CBD00041F480119A4202DA00200146704740F287
:10CBE00033439A42A2F2334202DC5242FFF704BEC0
:10CBF000FFF7F3BD30B5041E71F1000404DB4FF004
:10CC00000044404264EB0101141E73F1000405DB93
:10CC10001C464FF00043524263EB0403994208BFA5
:10CC2000904230BD01F0004330B421F0004150EAA1
:10CC3000010206D00A0DA2F56072C1F31301002AA9
:10CC400002DC30BC00207047440F44EAC104C1003C
:10CC5000E01830BC00EBC25000F0B0B9202A06DB6F
:10CC6000CB17203A41FA02F043EAE07306E041FABA
:10CC700002F3D040C2F120029140084319467047A8
:10CC8000C0B24FF4F05100F02DBA00002DE9F34F7F
:10CC90008BB04FF0000801F10C000C464FF0010B77
:10CCA00046460DF1080A01906269012101989047FA
:10CCB000051E2DD0252D2CD0216A8847C0B1626970
:10CCC000012101989047216A88470028F7D1411E29
:10CCD00062690198904700E0761CA1690B9888472B
:10CCE000216A88470028F7D1E1690B988847DBE77C
:10CCF000A1690B9888470746A84201D1761CD3E763
:10CD0000E1690B9888477F1C02D1B8F1000F6FD002
:10CD100047E1002762693D463946019890472A2835
:10CD200004D162690121019890470125DFF88892BA
:10CD30006269012101989047A0F130010A290AD2C5
:10CD40004F45E5DC07EB870100EB4107303FDFD4BF
:10CD500045F01005ECE7E90601D46FF000476C28B8
:10CD60000AD04C2814D0682815D06A280DD0742811
:10CD70001CD07A281AD01DE06269012101989047E1
:10CD80006C2802D045F0040514E045F002050DE0E2
:10CD900045F020050AE06269012101989047682862
:10CDA00002D045F0080505E045F4006562690121FF
:10CDB00001989047C4E9015765283DD019DC5828EF
:10CDC0007AD00CDC452837D004DC252826D0412831
:10CDD00031D131E046282FD047282CD12CE05B28D8
:10CDE00077D0612828D063287CD0642823D15AE0EA
:10CDF000D1E06F2848D008DC66281DD067281BD0FA
:10CE0000692821D06E2816D127E0702845D07328D4
:10CE100068D0752847D078280DD14DE0A1690B98CE
:10CE20008847054625283FF469AFE1690B98884794
:10CE30006D1C3FF46AAFB4E023466A466FF0010010
:10CE40000B99FFF785FB9FE045F040006060A80765
:10CE500023464FF0000236D43EE0E8077FF447AFA8
:10CE60002068011D21600068290501D506701BE7B7
:10CE7000290701D5068017E7A90703D5F117C0E9EF
:10CE8000006111E706600FE745F040006060A80709
:10CE900023464FF0080216D41EE040F60E0125EAA4
:10CEA0000100606016E045F040006060A80723467E
:10CEB0004FF00A0207D40FE045F040006060A80779
:10CEC00008D5234610226FF001000B99AFF30080C4
:10CED0005AE007E0234610226FF001000B99FFF79C
:10CEE0008DF951E04FF000094F464B46632802D0C0
:10CEF0005B2807D041E02079C00601D40120A06062
:10CF000001273AE062690121019890475E2805D126
:10CF10004FF001096269494601989047216939B982
:10CF200000210A46534643F82120491C0829FADB10
:10CF3000B0B3216969B9C11700EBD16253110AEB93
:10CF4000830122F01F02821A01200B6890400343E4
:10CF50000B6062690121019890475D28E8D1B9F121
:10CF6000000F09D00020514651F82020D24341F84B
:10CF70002020401C0828F7DB02AB224600976FF008
:10CF800001000B99FFF7E0F900280CDA401C08D1EA
:10CF9000BBF1000F05D04FF0FF300DB0BDE8F08FB2
:10CFA000FFE74046F9E7E90701D108F10108064427
:10CFB0004FF0000B78E60000CCCCCC0C0029A8BFC9
:10CFC0007047401C490008BF20F00100704710B4B2
:10CFD000B0FA80FC00FA0CF050EA010404BF10BC67
:10CFE000704749B1CCF1200421FA04F411FA0CF194
:10CFF00018BF012121430843A3EB0C01CB1D4FEACD
:10D0000000614FEA102042BF002010BC704700EBC7
:10D01000C35010440029A4BF10BC7047401C4900F5
:10D0200008BF20F0010010BC704710B5141E73F14A
:10D03000000408DA401C41F1000192185B411A43D8
:10D0400001D120F0010010BD2DE9F04D92469B4624
:10D0500011B1B1FA81F202E0B0FA80F220329046CA
:10D06000FFF7BBFB04460F4640EA0A0041EA0B010A
:10D0700053465A46084313D0114653EA010019D0CB
:10D08000C8F140025046FFF7B7FB05460E46504632
:10D0900059464246FFF7A1FB084305D0012004E0B2
:10D0A00020463946BDE8F08D0020054346EAE0768B
:10D0B0002C4337430A986305E40AA0EB08000022DA
:10D0C000FD0A44EA47540A3002D500200146E9E748
:10D0D000010510196941DDE9084500196941BDE8FC
:10D0E000F04DA2E77F2801D9002208E0064A02EBB2
:10D0F0005002C007127800D1120902F00F0201207D
:10D10000904008407047000080A9010870B58C1855
:10D1100010F8015B15F0070301D110F8013B2A114B
:10D1200006D110F8012B03E010F8016B01F8016B38
:10D130005B1EF9D12B0705D40023521E0DD401F834
:10D14000013BFAE710F8013BCB1A921C03E013F8FD
:10D15000015B01F8015B521EF9D5A142D8D3002032
:10D1600070BD000010B50749074800F015F80749E1
:10D17000074800F011F8BDE810400449054800F0E8
:10D180000BB80000218F0108C405002029660108A2
:10D190000C0600205406002070B5044600680D46B9
:10D1A00001684068C1F38001C0F3C010002918BFB6
:10D1B000002807D04FF001012046A84721686FF0F2
:10D1C0000C000860206801684068C1F34001C0F3AA
:10D1D0004010002914BF002870BD4FF00001204608
:10D1E000A84721686FF01200086070BDFEE70020BC
:10D1F000704700207047000010B500220449054820
:10D2000005F0B5F80449034805F0ABF8002010BD5F
:10D21000340C0020D0090020F40B002010B5096860
:10D220004A1C402A34BF491C40210022431803F8FD
:10D23000012C09F0D7FB0348006808F041FE0020EC
:10D2400010BD000008000020402984BF0220704764
:10D2500010B50C460B49D1F81812D1F81412002958
:10D260001CBF012010BD224601460748FEF767FF9C
:10D2700022460549034805F07AF8BDE81040014808
:10D2800005F0BAB8D0090020340C0020014800F0A5
:10D29000F1BE000008090020014800F0EBBE0000CC
:10D2A0006C09002010B5044601894068012201F094
:10D2B0000EFA0A2008F0E4FD0021204600F081F873
:10D2C00010F4806FF8D1BDE81040012008F0D8BDFF
:10D2D00070B500240546214600F073F810F4806F05
:10D2E0000CD04405640D09D14FF40061284600F0CC
:10D2F00068F810F0800F18BF4FF48064204670BDAE
:10D3000070B5054691F835000C46002808BF70BD81
:10D310000021284600F055F8C0F380212170C0F3A9
:10D3200040216170C0F30021A170C0F3C011E17011
:10D33000C0F380112171C0F340116171C0F300117D
:10D34000A171C0F3C001E171C0F380012172C0F38B
:10D350004001617200F00100A0724FF400612846A4
:10D3600000F02FF8C0F3C011217300F00F00E0812E
:10D370004FF48051284600F024F800F003012161A9
:10D3800000F00401616100F00801A16100F03001CA
:10D3900000F4F860C4E907104FF4C051284600F0CB
:10D3A00010F800F00301616200F00C01A16200F0CE
:10D3B000300100F04000C4E90B10002084F8350073
:10D3C00070BD30B50D460446018A85B0C0680022A4
:10D3D00001F07DF9012008F053FD0020ADF80800B0
:10D3E00045F40040ADF80C004BF6EF60ADF80400DA
:10D3F0004FF47A73012203A9206802F059FB218AB5
:10D400000122E06801F063F9012008F039FD218A6A
:10D410000022E06801F05BF9012008F031FD4FF4D3
:10D420007A700090012301AA02A9206802F005FC8D
:10D43000012008F025FD218A0122E06801F047F96A
:10D44000012008F01DFDBDF8040005B0C0F30A007E
:10D4500030BD000070B5054600F1740600F1880487
:10D460003046FFF71FFF2146304600F035F8102008
:10D47000E0614FF4A86020620820DFED140AA0628A
:10D48000C5ED320A95ED311A9FED110A61EE200AC1
:10D4900021EE000A9FED0F1A60EE810AB4EEE00A59
:10D4A000F1EE10FA28BFB0EE600A85ED3D0A0125C5
:10D4B00084F834502146304600F06FF884F8355037
:10D4C00021463046BDE87040FFF71ABFCDCCCC3CBA
:10D4D000713D8A3EEB51B83F70B50026054681F894
:10D4E00034600C4681F83560012008F0C9FC3146F3
:10D4F0002846FFF766FFC0F380212170C0F340216A
:10D500006170C0F30021A170C0F3C011E170C0F3DD
:10D5100080112171C0F340116171C0F30011A1713C
:10D52000C0F3C001E171C0F380012172C0F340017A
:10D53000617200F00100A0724FF400612846FFF70D
:10D5400040FFC0F3C011217300F00F00E0814FF4E1
:10D5500080512846FFF735FF00F00301216100F0FC
:10D560000401616100F00801A16100F0300100F4E4
:10D57000F860C4E907104FF4C0512846FFF721FFB7
:10D5800000F00301616200F00C01A16200F03001C3
:10D5900000F04000C4E90B1070BD70B5054691F86D
:10D5A00034000C46002808BF70BD4FF48051208A1B
:10D5B000A28AA38B1043228B1A431043228C104360
:10D5C00082B2284600F011F8A08C228D238E1043E1
:10D5D000A28D4FF4C0511A43104382B2284600F086
:10D5E00004F8002084F8340070BDF8B50D461646E6
:10D5F0000446018AC068002201F069F8012008F0A1
:10D600003FFCC6F30A002843ADF800004FF47A73DC
:10D6100001226946206802F04BFA012008F030FC34
:10D62000218A0122E06801F052F8012008F028FC6C
:10D63000F8BD7047012000F027BF042000F024BF90
:10D64000102000F021BF000070B505462DED088BBD
:10D65000F0EE60AAB0EE40BA00F1CC04C0ED3BAAF7
:10D6600090ED190A90ED1A1AF1EE400A30EE410AD7
:10D6700070EEC19ADFED5E0AD0F8000120EE20AA1C
:10D680009FED5C8A002814BF022895ED499A05D0C9
:10D6900001280CBF95ED4E9AB0EE489AB0EE490ABB
:10D6A00006F070FDF0EE408AB0EE490A06F0A6FDE5
:10D6B00068EE8A1A28EEA92A4F4840EE691A00EE51
:10D6C0000A2AC4ED091A84ED0B2AD4ED033A3BEE85
:10D6D000424A7AEEE14AD4ED010AD4ED042AB0EED2
:10D6E000631A04EE201A44EEA02AD0ED000A9FED42
:10D6F000433AB7EE005A20EE833AC5EE030A20EE15
:10D70000811A60EEA20A61EE012A40EEA02AB1EE73
:10D71000E25ADFED3B5AC5EE852A12EE900AB0F1CF
:10D720007E5F10DA21EE221A60EEA20ADFED352AC2
:10D7300063EEA23AC4ED033AD4ED043A63EEA22AB2
:10D74000C4ED042A11E0DFED302A94ED025A24EEF4
:10D75000224A64EEA22A45EE043AC4ED033AD4ED1F
:10D76000043A45EE223AC4ED043A21EE022A284654
:10D7700000EEA12A68EE811A40EE601A68EEA00A57
:10D7800084ED052A40EE010A23EE210A84ED060A03
:10D7900023EE200A84ED070AB0EE610A09F024F8AE
:10D7A0000A21284606F008FFA5F86000B5F85E10CB
:10D7B00088423CBF0020154905D30B20286100207A
:10D7C000BDEC088B70BDC0EBC002C2EB801201EB58
:10D7D000C202401C92ED380A022830EE088AF2D3C9
:10D7E000B1EE480A09F0BCF8BDEC088B012070BD11
:10D7F0003ACD133F0000000070000020ABAA2A3F82
:10D80000AC5C313FA4707D3F5674FE387C00002034
:10D81000C26BDFF8D4C1012A04BF0220704730B4C4
:10D820000122C2630A6807240368092A13D9DD6844
:10D830000A3A02EB420204FA02F225EA0202DA6034
:10D840000A788B680A3A02EB420293400268D46875
:10D850002343D36010E01D6902EB420204FA02F296
:10D8600025EA02021A610A788B6802EB42029340B1
:10D8700002681469234313610268936B23F4401315
:10D8800093630268936B0C8A584D05EB0454234351
:10D8900093630A790B7CD21AD21C02EB82021F23FB
:10D8A00093400268946B24EA030393630A790B7C28
:10D8B000D21A0B88D21C02EB82029BB29340026800
:10D8C000946B23439363CA6962450268936823F4A7
:10D8D000702393600268936808BF23F440130FD04D
:10D8E000D1F81CC043EA0C0393600268936823F4E8
:10D8F0004013936002689368D1F820C043EA0C0398
:10D9000093608A69002A0268536814BF43F48063F5
:10D9100023F4806353604A69002A0268536814BF85
:10D9200043F4805323F4805353604A68012A1BD088
:10D93000022A26D0032A026830D0136A6FF30B0341
:10D9400013620268136AD1F80CC043EA0C03136235
:10D95000284BD0F800C0264A9C4504BFD1F800C02F
:10D96000BCF1120F2CD125E0026853696FF30B0351
:10D97000536102685369D1F80CC043EA0C03536148
:10D98000E6E7026893696FF30B039361026893699A
:10D99000D1F80CC043EA0C039361D9E7D3696FF364
:10D9A0000B03D3610268D369D1F80CC043EA0C03BE
:10D9B000D361CDE7D2F804C04CF4800CC2F804C0A7
:10D9C000D0F800C09C4508D10968102918BF11295A
:10D9D00003D1516841F4000151604FF00001C1636F
:10D9E00030BC08467047000001000F000000F0FF47
:10D9F000002301400020014081B000220092036812
:10DA0000521F1A60012904BF0068C06B11D002299F
:10DA100004BF0068006C0CD0032904BF0068406C90
:10DA200007D0042904BF0068806C02D0009801B0C0
:10DA30007047009001B0704738B44FF0000CCDF83B
:10DA400000C0C26B012A02BF022038BC704701220D
:10DA5000C2630A6807240368092A13D9DD680A3AF1
:10DA600002EB420204FA02F225EA0202DA600A78C4
:10DA70008B680A3A02EB420293400268D46823435F
:10DA8000D36010E01D6902EB420204FA02F225EABB
:10DA900002021A610A788B6802EB42029340026824
:10DAA0001469234313614A681F24072A15D20368A7
:10DAB0005D6B521E02EB820204FA02F225EA0202B8
:10DAC0005A630A8893B20A79521E02EB820293408B
:10DAD0000268546B234353632BE003680D2A14D26E
:10DAE0001D6BD21F02EB820204FA02F225EA020247
:10DAF0001A630A8893B20A79D21F02EB820293401A
:10DB00000268146B2343136313E0DD6A0D3A02EBE2
:10DB1000820204FA02F225EA0202DA620A8893B269
:10DB20000A790D3A02EB820293400268D46A2343D9
:10DB3000D362174B0468154A9C4204BF0C68122C30
:10DB400003D1546844F48004546004689C4218D1A2
:10DB50000B68102B18BF112B13D1536843F400032B
:10DB60005360096810290CD10A490B4A0968B1FBB6
:10DB7000F2F101EB81014900009102D0491E0091B0
:10DB8000FCD1C0F83CC038BC0020704700230140E5
:10DB9000002001402800002040420F000068C06CB7
:10DBA000704700002DE9F04104004FF0000504BF6C
:10DBB0000120BDE8F081574F206C002620B9666433
:10DBC0002046E66300F0ACF8206C10F0100F18BF90
:10DBD000012503D02846E663BDE8F081206C20F4DF
:10DBE000885040F0020020644B48416821F44031E5
:10DBF000416041686268114341602068416821F4D6
:10DC00008071416020684168226941EA02214160D7
:10DC10002068416821F04071416020684168A26835
:10DC2000114341602068816821F4006181602068AF
:10DC30008168E26811438160A06AB8422068816807
:10DC400021F0706181602068816808BF21F0405137
:10DC50000BD0A26A114381602068816821F0405195
:10DC6000816020688168E26A114381602068816870
:10DC700021F00201816020688168A26941EA4201C5
:10DC80008160206A00282068416808BF21F4006193
:10DC900013D041F4006141602068416821F4604183
:10DCA0004160206842684FF46043616A93FAA3F3CD
:10DCB000B3FA83F3491E9940114341602068C16A59
:10DCC00021F47001C1622068C16AA28B134B03EB7F
:10DCD00002521143C1622068816821F400718160A1
:10DCE00020688168226B41EA422181602068816856
:10DCF00021F48061816020688168626941EA822143
:10DD000081606664206C20F0020040F00100206415
:10DD100060E700000100000F002301400000F0FF59
:10DD2000F0B501680025374A3F23032436487026A2
:10DD3000364FA1F1804C87B0BCF5903C22D0DFF883
:10DD4000D0C061453DD1116841F400711160116886
:10DD5000029501F400710591CDE90034694600F0A7
:10DD60009FFB009669463846CDE9014500F098FBD7
:10DD700000220521122000F055FD122000F046FD82
:10DD800007B0F0BD116841F480711160116802950F
:10DD900001F480710591CDE90034694600F080FB03
:10DDA000009669463846CDE9014500F079FB00222E
:10DDB0000521122000F036FD122000F027FD07B0EB
:10DDC000F0BDA1F18043B3F591331CBF07B0F0BDA6
:10DDD000116841F4806111601168029501F480615D
:10DDE00005910F21CDE90014694600F059FB00228E
:10DDF0000521122000F016FD122000F007FD07B0EB
:10DE0000F0BD00004438024000080240000002401B
:10DE1000002101402DE9F04104004FF0000704BF4C
:10DE20000120BDE8F081E06B002618B92046266489
:10DE300000F09AF80220E0632068016821F00201F6
:10DE400001602068016841F00101016000F044FCBC
:10DE50000546206840684FF0030810F0010F09D113
:10DE600000F03AFC401B0A2862D82068406810F095
:10DE7000010FF5D02068416811F0010F68D0A16949
:10DE8000012901680CBF41F0800121F0800101608F
:10DE9000E0690128206801680CBF41F0400121F0D1
:10DEA00040010160206A0128206801680CBF41F030
:10DEB000200121F020010160606A012820680168CA
:10DEC0000CBF41F0100121F010010160A06A01288F
:10DED000206801680CBF41F0080121F008010160D1
:10DEE000E06A0128206801680CBF41F0040121F0BC
:10DEF00004010160D4E902010843D4E9041211438A
:10DF000008436168491E08432168C86120680168A8
:10DF100021F00101016000F0DFFB05462068406848
:10DF200010F0010F0FD000F0D7FB401B0A2805D9D5
:10DF3000C4F83C8003202664BDE8F0812068406876
:10DF400010F0010FEFD12068406810F0010F00D0F1
:10DF50002FB166640120E0630020BDE8F081042059
:10DF6000E0630120BDE8F08100B5006887B0A0F152
:10DF70008041B1F5C8411CBF07B000BD00210C486D
:10DF8000026842F000720260006800F000700590C4
:10DF90004FF4407000900220CDE90101032003906E
:10DFA000092004906946034800F07AFA07B000BDE2
:10DFB00040380240000402402DE9F0410446C66D9D
:10DFC00000F08AFB0546A06B0027022805D08020C0
:10DFD000A06501206763BDE8F0812068016821F039
:10DFE000160101602068416921F080014161606C87
:10DFF000002804BFE06C002804D02068016821F0EC
:10E00000080101602068016821F0010101602068B9
:10E01000006810F0010F10D000F05EFB401B0528D7
:10E0200006D92020A06503206763A063BDE8F081C6
:10E030002068006810F0010FEED194F860003F21D5
:10E0400001FA00F0B06001206763A0630020BDE822
:10E05000F081816B022903D0802181650120704706
:10E06000052181630068016821F001010160002041
:10E07000704700002DE9F84304464FF00008CDF842
:10E08000008070484FF41651E56D0068B0FBF1F761
:10E090002E6894F86000082101FA00F0304211D097
:10E0A0002068026812F0040F0CD0026822F004020B
:10E0B000026094F8600001FA00F0A860A06D40F0E2
:10E0C0000100A06594F860105F488840304209D094
:10E0D0002168496911F0800F04D0A860A06D40F05C
:10E0E0000200A06594F8601058488840304209D07A
:10E0F0002168096811F0020F04D0A860A06D40F0FB
:10E100000400A06594F8601010208840304220D0B0
:10E110002168096811F0080F1BD0A8602068016809
:10E1200011F4802F09D0006810F4002F02D0E16CA8
:10E1300079B10CE0616C51B90BE0016811F4807F9A
:10E1400003D1016821F008010160616C09B120462A
:10E15000884794F860102020884030424FF0010634
:10E1600047D02168096811F0100F42D0A860A06B59
:10E1700005282068016809D011F4802F2AD0006892
:10E1800010F4002F23D0216C19B330E021F01601D8
:10E1900001602068416921F080014161606C0028C4
:10E1A00004BFE06C002804D02068016821F0080159
:10E1B000016094F860004FF03F0101FA00F0A860A0
:10E1C000C4F83480A663616DB9BBBDE8F883A16C67
:10E1D00069B90EE0016811F4807F06D1016821F071
:10E1E00010010160C4F83480A663216C09B1204697
:10E1F0008847A06D002808BFBDE8F883A06D10F027
:10E20000010F15D04FF00500A0632068016821F0D0
:10E2100001010160009800F101000090B84204D8AB
:10E220002068006810F0010FF4D1C4F83480A663B0
:10E23000216D002908BFBDE8F883204601B0BDE884
:10E24000F0430847280000200100800004008000FF
:10E2500070B5044600F040FA0646002C04BF0120C9
:10E2600070BD002502206563A0632068016821F06D
:10E27000010101602068006810F0010F0ED000F06D
:10E280002BFA801B052804D92020A0650320A06359
:10E2900070BD2068006810F0010FF0D12168086897
:10E2A0003C4A1040D4E901231A43D4E9033C43EA31
:10E2B0000C031A4363691A43A3691A43E3691A43B7
:10E2C000236A1A431043626A042A03D1D4E90B2358
:10E2D0001A4310430860266870694FF0010C20F063
:10E2E0000701606A40EA0102042837D1A16AE06AA6
:10E2F0000A4318B3A36953B1B3F5005F14D00029E2
:10E300001CBF0129022921D003291CD026E019B104
:10E31000012905D0022921D110F0807F1ED015E0FF
:10E32000B0F1C07F1AD111E081B1012907D00229D3
:10E330000CD0032908BFB0F1C07F07D00EE010F069
:10E34000807F03D10AE010F0807F07D04FF04000BB
:10E35000A065C4F838C04FF0010070BD726120683C
:10E360000D4AC1B2A1F11001A2FB01210B4A4FEAF3
:10E3700011110329525C22666FF3090088BF001D4A
:10E380003F219140E0658160A565C4F838C0002058
:10E3900070BD00003F8010F0ABAAAAAA78A90108BE
:10E3A00070B4D0F834C00024C56DBCF1010F02BFB9
:10E3B000022070BC70474FF0010CC0F834C0866B6F
:10E3C0004FF0000C012E1CBFC0F834C0022402D054
:10E3D000204670BC704702268663C0F858C0D0F84B
:10E3E00000C0DCF8006026F48026CCF80060D0F88D
:10E3F00000C0CCF804308368402B036803BF9A60E8
:10E400000268D16099601CBF0168CA6090F8601012
:10E410003F2202FA01F1A96001680A6842F016027F
:10E420000A6001684A6942F080024A61416C21B188
:10E4300001680A6842F008020A600068016841F059
:10E4400001010160C4E731B500F046F9009C0546C2
:10E45000B4F1FF3F18BF641C00F03EF9401BA0421E
:10E46000FAD338BD10F0050F01D008F0E3BC10F46A
:10E47000004F02D0002107F047B910F0080F08BF85
:10E480007047012107F040B904490A68024208BFF9
:10E49000704710B50860FFF7E5FF10BD143C014060
:10E4A0002DE9F84FDFF810920022DFF808824FF0D4
:10E4B000010E0F2709F1040A0B680EFA02F52B4032
:10E4C000AB4240F0F080D1F804C0BCF1020F18BF9D
:10E4D000BCF1120F14D14FEAD20C00EB8C04266A67
:10E4E0004FEA427C4FEADC6C07FA0CFB26EA0B068B
:10E4F000D1F810B00BFA0CFC4CEA060CC4F820C0A2
:10E5000006684FEA420C91F804B04FF0030404FA95
:10E510000CF40BF0030B26EA04060BFA0CFB4BEA97
:10E52000060606604E68012E18BF022E03D0112E7B
:10E5300018BF122E14D18668D1F80CB026EA040652
:10E540000BFA0CFB4BEA06068660466826EA0505D0
:10E550000E79C6F3001606FA02F646EA050545608E
:10E56000C56825EA04048D6805FA0CFC4CEA040C25
:10E57000C0F80CC0D1F804C01CF0805F7ED0D8F881
:10E5800000C04CF4804CC8F800C0D8F800C00CF4AF
:10E59000804CCDF800C022F0030C0CF1804404F54F
:10E5A0009834D4F808C84FEA82754FEA157507FA0F
:10E5B00005F62CEA0606A0F1804CBCF5003C38D0EC
:10E5C000A0F1804CBCF5013C08BF4FF0010C30D0ED
:10E5D000A0F1804CBCF5023C08BF4FF0020C28D0E3
:10E5E000A0F1804CBCF5033C08BF4FF0030C20D0D9
:10E5F000A0F1804CBCF5043C08BF4FF0040C18D0CF
:10E60000A0F1804CBCF5053C08BF4FF0050C10D0C4
:10E61000A0F1804CBCF5063C08BF4FF0060C08D0BA
:10E62000A0F1804CBCF5073C0CBF4FF0070C4FF03D
:10E63000080C0CFA05FC4CEA060CC4F808C8D9F81A
:10E6400000C04C682CEA030C14F4803F18BF4CEA5D
:10E65000030CC9F800C0DAF800C04C682CEA030CBF
:10E6600014F4003F18BF4CEA030CCAF800C0134C66
:10E67000D4F800C04D682CEA030C00E013E015F458
:10E68000801F18BF4CEA030CC4F800C00C4CD4F82F
:10E6900000C04D682CEA030C15F4001F18BF4CEAAB
:10E6A000030CC4F800C0521C102AFFF405AFBDE8EB
:10E6B000F88F000044380240003C0140083C014013
:10E6C0000C3C01400069084018BF01207047002A37
:10E6D00008BF090481617047014800687047000065
:10E6E000B405002002480168491C01607047000021
:10E6F000B40500200B4810B5016841F400710160B9
:10E70000016841F480610160016841F48071016039
:10E71000032000F0B9F8002000F006F800F03EF801
:10E72000002010BD003C024010B5014688B0002218
:10E730002D2000F077F82D2000F068F81348002411
:10E74000016841F480710160006805A900F48070DF
:10E750000690684600F0C4FE00F0E8FE0C49400058
:10E76000B0FBF1F0411E0C480A4A026040F2E73269
:10E77000C0E90324C0E9011401F0EAFB00280ABF44
:10E780000548012001F012FC08B010BD40380240DD
:10E7900040420F00002000404007002010B5032039
:10E7A00000F072F8002211466FF00B0000F03AF80A
:10E7B000002211466FF00A0000F034F800221146E2
:10E7C0006FF0090000F02EF800221146501F00F0F3
:10E7D00029F800221146101F00F024F800220F2112
:10E7E000901E00F01FF800220F21BDE81040501EBF
:10E7F00000F018B800F01F01012202FA01F14009EF
:10E80000800000F1E020C0F88011704700F01F0187
:10E81000012202FA01F14009800000F1E020C0F875
:10E8200000117047174B10B41B68C3F30223C3F1E8
:10E83000070CBCF1040F88BF4FF0040C1C1D072C03
:10E8400034BF0023DB1E012404FA0CFCACF1010CE4
:10E850000CEA0101994004FA03F35B1E1A401143CC
:10E8600000284FEA0111A1BF00F1E02080F8001458
:10E8700010BC704700F00F0000F1E02080F8141D7C
:10E8800010BC70470CED00E0074A00F0070011686B
:10E890004FF6FF03194041EA002040F0FD7040F0C0
:10E8A00080601060704700000CED00E0006841627D
:10E8B0000020704770B400680023D0F824C00029FD
:10E8C00004BF4CEA0241816218D0846A0CEB144CFC
:10E8D0004C1E002CC8BF4FF4827508DD05EB830683
:10E8E00086595B1CDBB20CEB164C9C42F6DC4FF4F9
:10E8F000807303EB81014CEA0242425070BC00205D
:10E900007047D0F8F00303F030BFC1EBC10200EB59
:10E910008202D0F8F003526C03F09ABEC1EBC10240
:10E9200000EB8202D0F8F003D2F8042203F0E8BE34
:10E93000D0F8F00303F01BBF10B504460A4611F0EF
:10E94000800F01F07F00C0EBC00104EB810114BF18
:10E95000383101F5FC710870D0094870D4F8B8035B
:10E96000012804BF022010BD0120C4F8B8032068AC
:10E9700004F016FB0020C4F8B80310BD70B50446BF
:10E980000A4611F0800F01F07F0014BFC0EBC001F8
:10E99000C2EBC20104EB810114BF383101F5FC71F7
:10E9A00000258D700870D0094870D4F8B80301288C
:10E9B00004BF022070BD0120C4F8B803206804F031
:10E9C000E7FC0020C4F8B85370BD01F00F01C1EBA3
:10E9D000C10100EB8100B0F8100280B2704770B541
:10E9E00004468C4611F0800F01F07F00C0EBC0019F
:10E9F00004EB810114BF383101F5FC7108705FEA46
:10EA0000DC1C81F801C08A60CB7018BFC88000256B
:10EA1000022B08BF0D71D4F8B803012804BF0220EF
:10EA200070BD0120C4F8B803206804F0EDF9284651
:10EA3000C4F8B85370BD10B50C4601F07F0CCCEB98
:10EA4000CC0100EB8101C1F80C32C1F80422002393
:10EA5000C1F8103281F8F93181F8F8C1036901F584
:10EA6000FC71012B08BF0A6114F07F0F027C006863
:10EA700003D004F0F2FC002010BD04F0C1FBFAE763
:10EA800070B504460D4611F0800F01F07F0014BFF1
:10EA9000C0EBC001C5EBC50104EB810114BF3831E7
:10EAA00001F5FC7101228A700870E8094870D4F8F9
:10EAB000B803012804BF022070BDC4F8B823206841
:10EAC00004F099FC15F07F0F05D1217C04F57072DC
:10EAD000206804F03EFC0020C4F8B80370BD10B5F7
:10EAE0000C4601F07F0CCCEBCC0100EB8101CB6438
:10EAF0004A6400230B65012381F8393001F838CFCF
:10EB00000369012B08BF0A6114F07F0F027C0068C3
:10EB100003D004F0A2FC002010BD04F071FBFAE762
:10EB20002DE9F04F0668044683B00025304604F016
:10EB3000FAFD00281CBF03B0BDE8F08F206804F088
:10EB40001BFE002804BF03B0BDE8F08F206804F06E
:10EB500013FE10F0020F04D02068416901F0020199
:10EB60004161206804F008FE10F4002F4FF00808FF
:10EB70004FF010094FF0010B50D0206804F0DEFD7B
:10EB800007004BD017F0010F44D0E9B2206804F021
:10EB9000EBFD824610F0010F2BD006EB4512C2F8B8
:10EBA00008BB2069012811D1C5EBC50004EB80002A
:10EBB000D2F8102BD0F80012C2F312028A1AC0F851
:10EBC0001022D0F804221144C0F80412E9B2204601
:10EBD000FFF7A4FE2069012802BF002DD4F80C0223
:10EBE000002806D104F570724FF00101206804F08E
:10EBF000B0FB1AF0080F06D0204600F058FB06EBD9
:10EC00004510C0F8088B1AF0100F1CBF06EB45101A
:10EC1000C0F8089B05F101057F08B3D1206804F016
:10EC2000ABFD10F4802F7BD0206804F080FD5FEAFC
:10EC3000000A4FF0000573D01AF0010F71D0E9B24D
:10EC4000206804F082FD074610F0010F29D0012151
:10EC5000D6F8342801FA05F022EA0000C6F8340894
:10EC600006EB4510C0F808192069012807D1C5EB4B
:10EC7000C50004EB8000D0E9102111444164E9B2E1
:10EC80002046FFF742FE2069012802BF002DE06CFC
:10EC9000002806D104F570724FF00101206804F0DD
:10ECA00058FB17F0080F05D006EB45114FF0080090
:10ECB000C1F8080917F0100F05D006EB45114FF009
:10ECC0001000C1F8080917F0400F05D006EB4511F8
:10ECD0004FF04000C1F8080917F0020F05D006EB0D
:10ECE00045114FF00200C1F8080917F0800F4AD013
:10ECF000C5EBC50004EB800000F13807D7E905013A
:10ED0000A0EB0108B868D4F800B0804588BF804601
:10ED100008F103004FEA90090BEB451001901BE04E
:10ED200036E030E0A0EB0108B868404538BF8046C7
:10ED300008F103004FEA9009207C00901FFA88F345
:10ED4000EAB25846F96804F054FDF8684044F860A7
:10ED5000B8694044B8610198D0F8180980B24845B4
:10ED600084BFD7E90501884201D90028DAD1B8F17A
:10ED7000000F08D1012101FA05F0DBF8341821EA6F
:10ED80000000CBF834086D1C5FEA5A0A7FF454AFD8
:10ED9000206804F0F1FC10F0004F0DD0D6F8040804
:10EDA00020F00100C6F80408204600F066FA20684A
:10EDB000416901F000414161206804F0DDFC10F47C
:10EDC000006F0CD0D6F8080810F0010F1CBF2046C9
:10EDD00000F08AFA2068416901F40061416120680D
:10EDE00004F0CAFC10F4805F4FD0D6F8040820F07D
:10EDF0000100C6F804081021206804F063FC616873
:10EE00000020002988BFFF2209D906EB4011C1F874
:10EE10000829C1F8082B6168401C8142F5D84FF0E1
:10EE2000FF30C6F81808D6F81C0840F00110C6F8E4
:10EE30001C08206B60B1D6F8840840F00B00C6F8BF
:10EE40008408D6F8440840F00B00C6F844080BE0EC
:10EE5000D6F8140840F00B00C6F81408D6F81008CD
:10EE600040F00B00C6F81008D6F8000820F4FE6049
:10EE7000C6F80008217C04F57072206804F069FA75
:10EE80002068416901F480514161206804F074FCFC
:10EE900010F4005F38D0206803F0FEFF2068C168DE
:10EEA00021F47051C160206804F020FC78B1032087
:10EEB000E0604020606100F033FB8349834A0144F5
:10EEC00091420FD22068C16841F4705113E00020D4
:10EED000E0604FF4007060612068C16841F4105137
:10EEE000C16009E07A497B4A0144914228D22068F6
:10EEF000C16841F46051C160204600F0ADF920685E
:10EF0000416901F400514161206804F035FC10F0C2
:10EF1000100F75D02068816921F010018161D6F849
:10EF2000208008F00F00C0EBC00004EB800000F56B
:10EF3000FC77C8F34340022850D0062861D06BE02C
:10EF4000A0F57401644AA1F51051914204D22068E1
:10EF5000C16841F45051CEE7A0F183715F4AA1F539
:10EF6000E741914204D22068C16841F44051C2E7B0
:10EF70005B495C4A0144914204D22068C16841F473
:10EF80003051B8E75849594A0144914204D22068A7
:10EF9000C16841F42051AEE75549564A01449142B7
:10EFA00004D22068C16841F41051A4E7A0F1B77100
:10EFB000514AA1F55851914204D22068C16841F4E8
:10EFC000005198E74D4908444D4988422068C1687E
:10EFD00034BF41F4E05141F4C0518CE747F6F07082
:10EFE00018EA000F18D0C8F30A1290463046F968A4
:10EFF00004F0C6FBF8684044F860B86940440AE091
:10F000000FE0082204F57071304604F0B9FBB869CE
:10F01000C8F30A110844B8612068816941F0100101
:10F020008161206804F0A8FB10F0080F07D020468B
:10F0300000F027F92068416901F00801416120686A
:10F0400004F09AFB10F4801F08D0E9B2204600F0CB
:10F0500059F82068416901F480114161206804F089
:10F060008BFB10F4001F08D0E9B2204600F04EF8E8
:10F070002068416901F400114161206804F07CFBC3
:10F0800010F0804F07D02046FFF73BFC2068416915
:10F0900001F080414161206804F06EFB10F0040F24
:10F0A00004BF03B0BDE8F08F2068456815F0040F79
:10F0B0001CBF2046FFF73CFC2068416829434160A3
:10F0C00003B0BDE8F08F0000405327FF00350C006F
:10F0D000401E1BFF40420F00804F120020D613003D
:10F0E00060B6E5FE60E3160000D3CEFE40771B005D
:10F0F000C05BB3FEC091210020753800E05459FE7A
:10F10000E09C4100D0F8F00303F08EBBD0F8F00390
:10F1100003F08CBB2DE9F0418AB004004FF00005EC
:10F1200002BF01200AB0BDE8F0810320C4F8BC038F
:10F13000204600F05BF8206804F05CF81034B4E876
:10F14000CF118DE8CF1174E80C01CDE9080194E8E6
:10F150000F0003F0BBFE0021206804F022FB012613
:10F160000022C5EBC50004EB800080F8396080F810
:10F170003850C58780F83B20026442646D1CC2642D
:10F180000F2DEED300204FF48273C0EBC00104EBCF
:10F19000810103EB800C81F8F92181F8F801C8871F
:10F1A00081F8FB21C1F80022C1F80422C1F80C2229
:10F1B000216841F80C20401C0F28E6D304F1100010
:10F1C00090E8AF118DE8AF11D4E90C01CDE9080149
:10F1D00094E80F0003F062FFC4F8BC63206803F0FA
:10F1E00051FF0AB00020BDE8F081000000B50068C2
:10F1F00087B0B0F1A04F1CBF07B000BD4FF4C050A6
:10F2000000900220019000200290032003900A2029
:10F21000049069460D48FFF743F90D48016841F035
:10F22000800101600B48016841F480410160006881
:10F23000002200F48040059005214320FFF7F2FAF8
:10F240004320FFF7E3FA07B000BD000000000240D2
:10F25000343802404438024010B50446C0680121E9
:10F26000002808BF0021D4F8F00303F036FBD4F8DF
:10F27000F003BDE8104003F0FEBAD0F8F00303F04D
:10F2800019BBD0F8F00303F01BBB10B50446D0F84F
:10F29000B803012804BF022010BD0120C4F8B80340
:10F2A000206804F095FA0020C4F8B80310BDD0F827
:10F2B000F02300F57071104603F022BB10B5044630
:10F2C000D0F8B803012804BF022010BD0120C4F803
:10F2D000B803206803F0CAFE206804F0EDF90020AE
:10F2E000C4F8B80310BD000010B50446D0F8F00310
:10F2F00003F055FB2068D0F8001E41F00101C0F872
:10F30000001E206A002808BF10BD0348016841F0B4
:10F310000601016010BD000010ED00E02DE9F05F76
:10F32000DFF8A89104460E46D9F80000CFB200F0ED
:10F330000F00B04207D289F80070D9F8000000F041
:10F340000F00B04242D12078DFF8848110F0020F24
:10F3500007D0D8F80000A16820F0F0000843C8F8F2
:10F360000000207810F0010F6ED060685949012824
:10F3700028D0022818BF0328096828D011F0020FEE
:10F3800070D0D8F8001021F0030141EA0000C8F85D
:10F390000000FFF7A1F90546606841F2883A0128AC
:10F3A00019D0022829D00328D8F8000037D010F04F
:10F3B0000C0F49D0FFF790F9401B50453FD903206F
:10F3C000BDE8F09F096811F4003FDAD14AE011F07E
:10F3D000007FD6D146E0D8F8000000F00C000428E9
:10F3E00032D0FFF779F9401B5045E8D8D8F8000033
:10F3F00000F00C000428F4D126E0D8F8000000F05A
:10F400000C00082820D0FFF767F9401B5045D6D8DC
:10F41000D8F8000000F00C000828F4D114E04FF0F8
:10F420000C0B3BEA00000FD0FFF756F9401B50458C
:10F43000C5D8D8F800003BEA0000F5D104E0D8F8C0
:10F44000000010F00C0FB5D1D9F8000000F00F004B
:10F4500086420AD289F80070D9F8000000F00F0047
:10F46000B04202D00120BDE8F09F207810F0040FD8
:10F4700007D0D8F80000E16820F4E0500843C8F84D
:10F480000000207810F0080F08D0D8F8000021699B
:10F4900020F4604040EAC100C8F8000000F076F8AF
:10F4A000D8F80010F02292FAA2F201F0F001B2FABC
:10F4B00082F2D140084A515CC840084908600020E7
:10F4C000FFF732F90020BDE8F09F0000003C024049
:10F4D0000838024000380240209E01082800002021
:10F4E0000F2202600C4A136803F0030343601368A1
:10F4F00003F0F0038360136803F4E053C360126801
:10F500004FF4E05303EAD20202610448006800F0BD
:10F510000F0008607047000008380240003C0240BD
:10F520000148006870470000280000200848094989
:10F53000006809684FF4E05292FAA2F201F4E05137
:10F54000B2FA82F2D140044A515CC84070470000D0
:10F550002800002008380240309E01080848094968
:10F56000006809684FF4604292FAA2F201F4604127
:10F57000B2FA82F2D140044A515CC84070470000A0
:10F580002800002008380240309E01081F4800680B
:10F5900010F00C011E4808BF7047DFF878C004293E
:10F5A00004BF60467047082918BF704710B41A4A54
:10F5B0001168136801F03F0113F4800F47F6C07320
:10F5C0000AD0BCFBF1F01168194093FAA3F3B3FA27
:10F5D00083F3D940484309E0B0FBF1F011681940CA
:10F5E00093FAA3F3B3FA83F3D940484311684FF475
:10F5F000403292FAA2F201F44031B2FA82F2D140E2
:10F60000491C4900B0FBF1F010BC704708380240BB
:10F610000024F40000127A00043802402DE9F84F6B
:10F620000446DFF8A8830078A8F1040710F0010F62
:10F63000A7F1040557D0D8F8000000F00C0004280A
:10F6400009D0D8F8000000F00C0008280CD1386868
:10F6500010F4800F08D0286810F4003F43D0606891
:10F66000002800F0B0813EE06068B0F5803F19D01E
:10F67000B0F5A02F28680CBF40F4802020F4803023
:10F68000286028680CBF40F4803020F48020286077
:10F690006068B8B1FFF720F80646286810F4003F0C
:10F6A00005D020E0286840F480302860F0E7FFF7BC
:10F6B00013F8801B642800F23181286810F4003FA1
:10F6C000F5D010E0FFF708F80646286810F4003F70
:10F6D00009D0FFF701F8801B642800F21F81286819
:10F6E00010F4003FF5D12078DFF8E49210F0020F1B
:10F6F0004FF0000650D0D8F800004FF0F80B10F093
:10F700000C0F17D0D8F8000000F00C00082804BF38
:10F71000386810F4800F0DD0E06850B34FF001004E
:10F72000C9F80000FEF7D8FF8246286810F0020FE3
:10F7300009D012E0286810F0020F1CBFE068012811
:10F740000BD000F040B9FEF7C7FFA0EB0A0002287B
:10F750007ED8286810F0020FF5D028689BFAABF22B
:10F760002169B2FA82F220F0F80091400843286043
:10F7700012E0C9F80060FEF7AFFF8246286810F07B
:10F78000020F09D0FEF7A8FFA0EB0A0002285FD8FD
:10F79000286810F0020FF5D1207810F0080F2ED055
:10F7A0008C48DFF834B26169A9B101210160FEF72C
:10F7B00093FF8246DBF8000010F0020F1FD1FEF726
:10F7C0008BFFA0EB0A00022842D8DBF8000010F003
:10F7D000020FF4D013E00660FEF77EFF8246DBF8EE
:10F7E000000010F0020F0AD0FEF776FFA0EB0A002F
:10F7F00002282DD8DBF8000010F0020FF4D1207899
:10F8000010F0040F72D07548016841F0805101601A
:10F810000068DFF8CCB100F080500090DBF8000009
:10F8200040F48070CBF80000FEF756FF8246DBF80C
:10F83000000010F4807F0AD1FEF74EFFA0EB0A0013
:10F8400002286BD8DBF8000010F4807FF4D000E0D1
:10F8500064E0A068DFF88CB101281DD00528DBF832
:10F8600000000CBF40F0040020F00100CBF80000C5
:10F87000DBF800000CBF40F0010020F00400CBF8E2
:10F880000000A068E8B1FEF727FF8246DBF8000021
:10F8900010F0020F07D029E0DBF8000040F0010073
:10F8A000CBF80000EDE7FEF717FFA0EB0A0141F2ED
:10F8B0008830814232D8DBF8000010F0020FF2D01D
:10F8C00014E0FEF709FF8246DBF8000010F0020F9B
:10F8D0000CD0FEF701FFA0EB0A0141F28830814213
:10F8E0001CD8DBF8000010F0020FF2D1A069E8B3D9
:10F8F000D8F8001001F00C01082964D00228C9F8DA
:10F9000060600ED0FEF7E8FE0446286810F0007F25
:10F9100056D0FEF7E1FE001B02284DD90320BDE8BA
:10F92000F88FFEF7D9FE0646286810F0007F08D051
:10F93000FEF7D2FE801B0228F0D8286810F0007F66
:10F94000F6D1D4E9070140EA010247F6C07191FA05
:10F95000A1F1606AB1FA81F100FA01F1A06A4FF0F9
:10F96000FF3303EB50004FF4403300E028E093FAFC
:10F97000A3F3B3FA83F39840084310434FF0706247
:10F9800092FAA2F2E16AB2FA82F291400843386038
:10F990000120C9F86000FEF79FFE0446286810F0B9
:10F9A000007F0DD1FEF798FE001B0228B6D828680C
:10F9B00010F0007FF6D003E0286810F0007FA8D197
:10F9C0000020BDE8F88F0120BDE8F88F083802401C
:10F9D00000004742800E47427438024040380240DF
:10F9E0000070004070380240002804BF01207047BA
:10F9F00070B5002504468562406D18B9204625651E
:10FA000000F02EF8022060652068016821F04001B6
:10FA10000160D4E901010843D4E90312114308430A
:10FA200061690843218B01F400710843E1690843CF
:10FA3000216A0843A16A084321680860A06904217B
:10FA400001EA1040616A0843216848602068C16982
:10FA500021F40061C161A56501206065002070BDD1
:10FA600000B5006887B0A0F18041B1F570511CBFAE
:10FA700007B000BD00210C48026842F40042026059
:10FA8000006800F4004005904FF4E0500090022020
:10FA9000CDE9010103200390062004906946034844
:10FAA000FEF7FEFC07B000BD4038024000080240EF
:10FAB0002DE9F84F0446006D00271E4693460D467B
:10FAC000012804BF0220BDE8F88F4FF0010AC4F8F6
:10FAD00050A0FEF701FE8046606D4FF0000901283E
:10FAE00018BF022774D1002D18BFBBF1000F71D0D1
:10FAF0004FF003006065C4F858902563A4F834B053
:10FB0000A4F836B0C4F83890A4F83C90A4F83E901D
:10FB1000C4F84490C4F84090A068B0F5004F04D1F8
:10FB20002068016841F4804101602068016811F09B
:10FB3000400F03D1016841F040010160E068B0F579
:10FB4000006F606805D000281CBFE08E01282AD015
:10FB500030E000281CBFE08E012807D1216835F86D
:10FB6000020BC860E08EA0F10100E086E08E80B359
:10FB70002068816811F0020F07D035F8021BC160C0
:10FB8000E08EA0F10100E08609E0D6B3B6F1FF3FB8
:10FB900005D0FEF7A1FDA0EB0800B04231D2E08E07
:10FBA0000028E5D124E0216815F8010B0873E08EE8
:10FBB000401EE086E08E60B12068816811F0020F7F
:10FBC00009D015F8011B0173E08E401EE0860CE0A1
:10FBD0002CE00DE029E0A6B1B6F1FF3F05D0FEF71D
:10FBE0007BFDA0EB0800B0420BD2E08E0028E3D1F1
:10FBF0003346012202212046CDF8008001F021FD8C
:10FC000008B1032712E042463146204601F008FDC4
:10FC100018B101272020A06508E0A06818B9206865
:10FC2000C16880680090A06D00B10127C4F854A09D
:10FC30003846C4F85090BDE8F88F2DE9F84F0446D7
:10FC4000006D0127DDF828809B4616460D464FF0D3
:10FC50000009012804BF0220BDE8F88F01202065BB
:10FC6000FEF73AFD8246606D6168012809D0B1F562
:10FC7000827F03BFA168002904284FF0020940F0E9
:10FC8000CB80002D1ABF002EBBF1000F4FF00109F1
:10FC900000F0C280606D012804BF0520606500206F
:10FCA000A065A663A4F83EB0A4F83CB02563A4F810
:10FCB00036B0A4F834B0206460642068016811F0A4
:10FCC000400F03D1016841F040010160E068B0F5E8
:10FCD000006F606805D000281CBFE08E01284ED060
:10FCE00081E000281CBFE08E012834D1216835F85E
:10FCF000020BC860E08EA0F10100E0862BE0002F2F
:10FD00001CBFE08E00280DD02068816811F0020F22
:10FD100008D035F8021BC160E08EA0F10100E0863A
:10FD20004FF00007E08F68B12068816811F0010F83
:10FD300008D0C06826F8020BE08FA0F10100E08730
:10FD40004FF00107B8F1FF3F05D0FEF7C5FCA0EB6F
:10FD50000A00404510D2E08E002804BFE08F002842
:10FD6000CDD143464FF001024FF002012046CDF8BD
:10FD700000A001F066FCE8B34FF003094CE02168F5
:10FD800015F8010B0873E08E401EE0862BE0002F73
:10FD90001CBFE08E00280DD02068816811F0020F92
:10FDA00008D015F8011B0173E08EA0F10100E08678
:10FDB0004FF00007E08F68B12068816811F0010FF3
:10FDC00008D0C06806F8010BE08FA0F10100E087C1
:10FDD0004FF00107B8F1FF3F05D0FEF77DFCA0EB27
:10FDE0000A004045C8D2E08E002804BFE08F0028FA
:10FDF000CDD1B6E7FFE752464146204601F010FC60
:10FE000020B120204FF00109A06505E0A06818B9D5
:10FE10002068C1688068009001206065002020652E
:10FE20004846BDE8F88F4FF0E021042808690CBF70
:10FE300040F0040020F0040008617047401EB0F15B
:10FE4000807F24BF012070474FF0E0214861054AC0
:10FE5000F02082F8140D002088610720086100203E
:10FE6000704700000FE000E070477047826B012A86
:10FE700004BF0220704701228263CA68D1F808C01B
:10FE800022F4407242EA0C02D1F804C022F48062EB
:10FE900042EA0C02D1F800C022F4006242EA0C02ED
:10FEA000D1F810C022F4805242EA0C02D1F814C0FA
:10FEB00022F4005242EA0C02896922F480420A4389
:10FEC000002322F40042114302685164836300203E
:10FED0007047826B012A04BF0220704710B40123CF
:10FEE00002228363C2630268D2F804C02CF0700C53
:10FEF000C2F804C00268D2F804C00C684CEA040CD2
:10FF0000C2F804C00268D2F808C02CF0800CC2F815
:10FF100008C00268D2F808C049684CEA0101916043
:10FF2000C3630021816310BC0846704710B50446C6
:10FF30000068042201F061FE2068416C41F4004138
:10FF400041642068016841F001010160002010BD9A
:10FF5000002804BF0120704710B50446C06B20B9CB
:10FF60000020A063204600F00BF80220E063211D72
:10FF7000206801F0D1FD0120E063002010BD0000E9
:10FF8000006881B0A0F18041B1F580311CBF01B0A3
:10FF900070470548016841F001010160006800F008
:10FFA0000100009001B07047443802400168CA68FF
:10FFB00042F00102CA600068016841F0010101607D
:10FFC00000207047826B012A0DBF0220012383634A
:10FFD000704730B40222C2630268D2F808C02CF025
:10FFE000770C2CF47F4CC2F808C00A68502A41D024
:10FFF0000CDC202A76D004DC002A74D0102A73D0BE
:020000040801F1
:10000000B1E0302A71D0402A71D0ACE0602A4DD0E6
:10001000702A0BD0B2F5805F03D0B2F5005F17D025
:10002000A1E001688A6822F007023DE00268D1F889
:1000300004C08C68C96895684CEA012125F47F45A5
:1000400021432943916001688A6842F077022BE0DE
:100050000268D1F804C08C68C96895684CEA01212F
:1000600025F47F4521432943916001688A6842F461
:10007000804219E00268D1F804C0CC68116A156AA0
:1000800025F001051562956921F00A0125F0F005BA
:1000900045EA041441EA0C019461116201688A681E
:1000A00022F0700242F057028A605CE00268D1F8E8
:1000B00004C0CC68116A21F0100111629569116ABF
:1000C00025F4704545EA043421F0A00141EA0C1101
:1000D0009461116201688A6822F0700242F067023E
:1000E0008A6040E030E01FE026E035E0FFE702688C
:1000F000D1F804C0C968146A156A25F001051562B3
:10010000956924F00A0425F0F00545EA011144EA56
:100110000C0C9161C2F820C001688A6822F070025C
:1001200042F047028A601EE001688A6822F070028D
:1001300042F007028A6016E001688A6822F07002C5
:1001400042F017028A600EE001688A6822F07002AD
:1001500042F027028A6006E001688A6822F0700295
:1001600042F037028A60C3630021816330BC0846D5
:100170007047002804BF0120704770B50446C06B6B
:100180000D4620B90020A063204600F045F802206B
:10019000E0632068816821F007018160211D2068EB
:1001A00001F0BAFC206883688169026AD5F800C052
:1001B00021F00301AE694CEA030321F4407141EAE6
:1001C0000621D5F808C0EE694CEA010121F0FC01D6
:1001D00021F47C41D5F80CC041EA06214CEA01012A
:1001E000D5F810C02E6A4FEA0C1C4CEA063C4CEACB
:1001F0000101D5F804C06D6922F0AA0242EA051295
:100200004CEA02028360206881612068026201205A
:10021000E063002070BD000010B501681B4A022396
:100220001B48A1F1804486B04FF0000CB4F5806407
:1002300019D0A1F18044B4F500641CBF06B010BD14
:10024000116841F004011160116801F00401059189
:10025000C0210091CDE9013CCDE903C36946FEF719
:100260001FF906B010BD116841F00201116011685C
:1002700001F00201059130210091CDE9013CCDE969
:1002800003C36946FEF70CF906B010BD40380240C2
:100290000004024010B504460068002908BF01228E
:1002A00012D004294FF001020ED0002101F098FC79
:1002B00001220421206801F093FC2068016841F0CC
:1002C00001010160002010BD01F08AFCF5E77047D4
:1002D00070B50446006801694FF0000511F0020F87
:1002E0001CBFC16811F0020F13D06FF00201016151
:1002F0000120A0612068806910F0030F204602D021
:10030000FFF7E5FF04E000F07FF9204600F096FAE1
:10031000A5612068016911F0040F1CBFC16811F0CC
:10032000040F13D06FF0040101610220A061206866
:10033000806910F4407F204602D0FFF7C8FF04E038
:1003400000F062F9204600F079FAA56120680169A1
:1003500011F0080F1CBFC16811F0080F13D06FF027
:10036000080101610420A0612068C06910F0030F3A
:10037000204602D0FFF7ABFF04E000F045F920462D
:1003800000F05CFAA5612068016911F0100F1CBF34
:10039000C16811F0100F13D06FF010010161082037
:1003A000A0612068C06910F4407F204602D0FFF7AA
:1003B0008EFF04E000F028F9204600F03FFAA56126
:1003C0002068016911F0010F1CBFC16811F0010F15
:1003D00005D06FF001010161204600F082FA20682B
:1003E000016911F0800F1CBFC16811F0800F05D0AA
:1003F0006FF0800101612046FFF736FD206801693A
:1004000011F0400F1CBFC16811F0400F05D06FF014
:1004100040010161204600F06DFA2068016911F089
:10042000200F1ABFC16811F0200F70BD6FF02001BE
:1004300001612046BDE87040FFF717BD2DE9F0418E
:1004400001680024022601252E4FDFF8BC80A1F1AF
:10045000804086B0B0F580302CD0B1F1804F42D0D2
:10046000A1F18040B0F582301CBF06B0BDE8F0813C
:1004700080200090CDE90164032569464046CDE91E
:100480000345FEF70DF80095CDE90164694638464D
:10049000CDE90345FEF704F84FF4E0700090CDE994
:1004A000016469461948CDE90345FDF7F9FF06B037
:1004B000BDE8F0814FF460400090CDE901646946E9
:1004C0003846CDE90345FDF7EBFF4FF4E0600090BF
:1004D000CDE9016469464046CDE90345FDF7E0FFFB
:1004E00006B0BDE8F0814FF440600090CDE90164B2
:1004F00069463846CDE90345FDF7D2FF06B0BDE8B1
:10050000F0810000000402400000024000080240A8
:100510002DE9F0410446806B012804BF0220BDE8AC
:10052000F08101250220A563E06342B1042A0AD0CC
:10053000334E344F082A0AD00C2A37D05AE02068AC
:1005400001F068FB56E0206801F094FB52E022685D
:10055000106A20F480701062106A5368D2F81CC0D0
:10056000D1F800802CF0730C48EA0C0CD1F808800C
:1005700020F4007040EA0820B24218BFBA420ED1FF
:10058000CE6820F4006040EA06204E6923F4405310
:1005900043EA06138E6920F4806043EA0613536031
:1005A000C2F81CC04968D163106223E02268106A57
:1005B00020F480501062D2F820C05068D369D1F87E
:1005C000008023F4E64343EA0823D1F808802CF4A2
:1005D000005C4CEA083CB24218BFBA4204D14E69F2
:1005E00020F4804040EA86105060D361486810646F
:1005F000C2F820C0E5634FF00000A063BDE8F081C1
:1006000000000140000401407047002804BF0120A1
:10061000704710B50446C06B20B90020A063204687
:1006200000F00AF80220E063211D206801F074FA4E
:100630000120E063002010BD704700002DE9F0416B
:100640000446806B0D46012804BF0220BDE8F081FE
:1006500001260220A663E0634AB1042A19D0DFF81C
:100660004CC1534F082A28D00C2A65D097E0206847
:1006700001F0D0FA2068816941F0080181612068A9
:10068000816921F004018161206881692A6911432F
:1006900011E0206801F0EEFA2068816941F4006100
:1006A00081612068816921F48061816120688169AC
:1006B0002A6941EA0221816171E02068016A21F41E
:1006C00080710162016A4268C369D5F8008023F035
:1006D000730348EA0303D5F8088021F4007141EA66
:1006E0000821604518BFB84211D1D5F80CC021F4DB
:1006F000006141EA0C21D5F814C022F4405242EACC
:100700000C12D5F818C021F4806142EA0C12426044
:10071000C3616A68C26301622068C16941F008016F
:10072000C1612068C16921F00401C1612068C1690B
:100730002A6941EA020131E02068016A21F480510E
:100740000162026A4168C369D5F8008023F4E64378
:1007500043EA0823D5F8088022F4005242EA08321E
:10076000604518BFB84205D1D5F814C021F48041C6
:1007700041EA8C114160C3616968016402622068CA
:10078000C16941F40061C1612068C16921F48061DF
:10079000C1612068C1692A6941EA0221C161E66339
:1007A0004FF00000A063BDE8F081000000000140B0
:1007B00000040140002804BF0120704710B5044622
:1007C000C06B20B90020A063204600F00BF8022087
:1007D000E063211D206801F09FF90120E063002003
:1007E00010BD000008B50068B0F1804F18D0A0F12E
:1007F0008041B1F5823118BF08BD0E48016841F053
:10080000020101600068002200F002000090114621
:100810002D20FEF707F8BDE808402D20FDF7F6BFB4
:100820000548016841F001010160006800F0010025
:10083000009008BD4438024040380240704710B56F
:1008400004460068012201F0CBF92168A1F1804043
:10085000B0F580301CBFA1F18040B0F5823003D1EB
:10086000486C40F4004048642068016841F0010190
:100870000160002010BD10B502680446002904BFC5
:10088000D06840F0020011D0042904BFD06840F0C5
:1008900004000BD0082904BFD06840F0080005D040
:1008A0000C2904BFD06840F0100000D1D0600122B4
:1008B000206801F095F92068A0F18041B1F5803100
:1008C0001CBFA0F18041B1F5823103D1416C41F4EC
:1008D000004141642068016841F00101016000208D
:1008E00010BD0068A0F18041B1F5005118BF7047FC
:1008F000FDF7F8BE704770B504460068C16821F482
:100900009071C1602068416921F001014161206856
:1009100041694FF0000511F0400F09D0416921F005
:1009200040014161606B18B14565606BFDF744FBA8
:10093000E58520202064002070BD704770B50268F6
:1009400004461068D168536910F00F0F4FF020056E
:1009500066D003F0010C01F490765CEA060C75D0C9
:1009600010F0010F18BF11F4807F03D0626C42F0C9
:100970000102626410F0040F18BF13F0010F03D0DE
:10098000626C42F00202626410F0020F18BF13F0B2
:10099000010F03D0626C42F00402626410F0080F91
:1009A00018BF13F0010F03D0626C42F008026264BA
:1009B000626C002A08BF70BD10F0200F1EBF11F03E
:1009C000200F204601F008FA20684169626CC1F3EB
:1009D000801112F0080F08BF002931D0C16821F43E
:1009E0009071C1602068416921F001014161256475
:1009F0002068416911F0400F1DD0416921F040018C
:100A00004161606BB8B132494165606BFDF721FB14
:100A1000002808BF70BD606B416DBDE8704008479D
:100A200010F0200F18BF11F0200F0FD02046BDE8A6
:100A3000704001F0D1B92046FFF77FFF70BD05E09F
:100A40002046FFF77AFF0020606470BD10F0800F31
:100A500018BF11F0800F2BD0E06B212818BF70BD9C
:100A6000A068B0F5805F206A16D0411C2162216821
:100A700000784860E08C401E0004000CE08418BF41
:100A800070BD2068C16821F08001C1602068C16824
:100A900041F04001C16070BD0088C0F308005060A3
:100AA00020690028206A14BF401C801C2062E1E7F6
:100AB00010F0400F14BF11F0400F70BD2046D168F8
:100AC00021F04001D160E56300F03CF970BD000009
:100AD000E91C0108002804BF0120704770B50446D6
:100AE000C06B002518B92046A56300F01FF824202C
:100AF000E0632068C16821F40051C160204601F024
:100B0000AFF92068016921F49041016120684169D1
:100B100021F02A0141612068C16841F40051C1609F
:100B200065642020E0632064002070BD2DE9F0435F
:100B30000446006887B0A0F18041B1F598411CBF20
:100B400007B0BDE8F08300262E48016841F400217B
:100B500001600068022500F4002005900120CDE925
:100B600000050327DFF8A090CDE902574FF00808F1
:100B700069464846CDF81080FDF792FC01AA009521
:100B800082E8E00169464846FDF78AFC204D1F488F
:100B90004FF000682860C5E901860715C5E90367BD
:100BA00080156E61C5E906602E6228466E62FDF70B
:100BB0004FFB18B17A2117A002F033FE6563EC6396
:100BC000194D1848C5E900084020C5E90206C5E9E5
:100BD0000476AE61EE612E6228466E62FDF738FB48
:100BE00018B18B210BA002F01CFE25630022052109
:100BF0003420EC63FDF716FE3420FDF707FE07B046
:100C0000BDE8F083403802400000024040600240EE
:100C1000080900202E2E5C5372635C757361727438
:100C20002E630000706002406C09002037B5044656
:100C3000006C82B01346202837D1039A002A11BFD6
:100C4000002B012005B030BDA06B01282DD0012064
:100C5000A262A063A3850025656422202064616BE5
:100C600013480864616B13484864616B1248086557
:100C7000606B45652068011D606BFDF791FB206886
:100C8000016841680091A563C16841F48071C16049
:100C90002068416941F0010141612068416941F0EA
:100CA0004001416105B0002030BD05B0022030BDDB
:100CB000591D0108951D0108F91C0108704770476E
:100CC00037B50446C06B202832D10199002911BFE5
:100CD000002A012003B030BDA06B012828D00120DC
:100CE0002162A063A284E284002565642120E06380
:100CF000236B11481864236B10485864236B104809
:100D00001865206B13464565206800F1040C6246A7
:100D1000206BFDF745FB21686FF040000860A5637C
:100D20002068416941F08001416103B0002030BD7D
:100D300003B0022030BD00009F1D0108CF1D010837
:100D4000F91C01080148006805F0BAB80400002049
:100D50007047FEE7F0B521488FB01F4901604FF49E
:100D600080360024C0E90164046184611C49046286
:100D7000C0E90A140125C460C56145610463FCF73C
:100D800011FF18B1592117A002F04BFD06270A9751
:100D9000CDE90B540AA91148FCF74EFE18B16321A6
:100DA00010A002F03EFDCDE900754FF480100294D2
:100DB0000890CDE90646CDE90454694607480394F6
:100DC000FCF726FD002804BF0FB0F0BD732105A07D
:100DD00002F027FD0FB0F0BD00200140C405002047
:100DE0000100000F2E2E5C5372635C6164632E63FE
:100DF0000000000070B523488EB0214901604FF417
:100E000080360024C0E9016404618461090504623C
:100E1000C1620125C460C56145614FF06061046332
:100E20008162FCF7BFFE18B18D2117A002F0F9FC1A
:100E30000D20CDE90A050AA90C941248FCF7FCFD27
:100E400018B1972110A002F0ECFC0A20CDE90005B2
:100E50004FF4801002940890CDE90646CDE9045481
:100E6000694608480394FCF7D3FC002804BF0EB081
:100E700070BDA72104A002F0D4FC0EB070BD00002C
:100E8000002101400C0600202E2E5C5372635C6131
:100E900064632E630000000070B523488EB02149C2
:100EA00001604FF480360024C0E90164046184616C
:100EB000C9040462C1620125C460C56145614FF087
:100EC000606104638162FCF76DFE18B1C12117A057
:100ED00002F0A7FC0C20CDE90A050AA90C941248DF
:100EE000FCF7AAFD18B1CB2110A002F09AFC0B2050
:100EF000CDE900054FF4801002940890CDE9064634
:100F0000CDE90454694608480394FCF781FC0028A5
:100F100004BF0EB070BDDB2104A002F082FC0EB055
:100F200070BD000000220140540600202E2E5C53AC
:100F300072635C6164632E63000000000E4810B5AC
:100F40000C4901601021416000218160C160016194
:100F500041618161C161016241628162C162FCF7EC
:100F600059FF002808BF10BD4F21BDE8104003A065
:100F700002F057BC006400409C0600202E2E5C53FB
:100F800072635C63616E2E63000000000D4808B55B
:100F9000016841F4001101600068002200F40010B3
:100FA000009005210D20FDF73DFC0D20FDF72EFCE6
:100FB000002205210F20FDF735FCBDE808400F2079
:100FC000FDF724BC3038024030B589B0002501213E
:100FD00005A8059504F061FF134C0021206004F082
:100FE00097FF012106A8069504F057FF60600121D4
:100FF00007A8079504F051FFA0600021206804F0C5
:1010000087FF012108A8089504F047FFE060074822
:1010100090E80F108DE80F100021684605F012F8D7
:10102000606209B030BD000000000020A89D0108EA
:101030002DE9F041404886B00024016841F00401E8
:101040000160016801F004010591016841F080012F
:101050000160016801F080010591016841F0010122
:101060000160016801F001010591016841F0020190
:101070000160016801F002010591016841F0080179
:10108000016000682D4D00F00800059001224FF42A
:10109000C0412846FDF71BFB00224FF402412846C1
:1010A000FDF715FB264F0022A9143846FDF70FFB6C
:1010B0004FF4624000900126CDE90164694628465C
:1010C0000394FDF7EDF91F480425CDE900500220F7
:1010D000DFF87480029069464046FDF7E1F948F276
:1010E0000800CDE90004694640460294FDF7D8F9AE
:1010F0000C20CDE90004694638460294FDF7D0F98A
:10110000A8020090CDE90164694638460394FDF7D2
:10111000C7F9CDE9005469460C480296FDF7C0F9BD
:10112000002211460820FDF77DFB0820FDF76EFB2D
:1011300006B0BDE8F08100003038024000080240EF
:10114000000402400000111000000240000C0240A8
:10115000124810B5104901604FF4827141600021BE
:101160004FF40062C0E902120122C0E904125202E7
:1011700082611822C0E90721416281620A21C162AD
:10118000FEF732FC002808BF10BD4F21BDE810401B
:1011900003A002F046BB0000003C0040E406002033
:1011A0002E2E5C5372635C7370692E630000000026
:1011B00010B5454894B043490024C0E900146021AB
:1011C000816042F2D071C0E903144461FEF7C0FEB1
:1011D00018B163213DA002F024FB4FF480500E9023
:1011E0000EA93948FEF7EEFE18B1692137A002F0CA
:1011F00018FB3548FFF7DEFA18B16E2133A002F074
:1012000010FB3148FFF701FA18B173212FA002F04B
:1012100008FB2020CDE9120412A92B48FEF759FE45
:1012200018B17A2129A002F0FCFA7020CDE900045F
:10123000029403940494059400226946224806947B
:10124000FFF7FCF918B1862120A002F0EAFA042287
:1012500069461D48FFF7F2F918B18B211BA002F077
:10126000E0FA082269461848FFF7E8F918B190211A
:1012700016A002F0D6FA0C22694613480094FFF734
:1012800047F918B1962111A002F0CBFA4FF4006093
:1012900007904010CDE908041420CDE90A044FF46A
:1012A0000050CDE90C0407A90748FEF7DFFD18B18F
:1012B000A22106A002F0B5FA0348FFF7BFF814B068
:1012C00010BD000000000140800700202E2E5C535E
:1012D00072635C74696D2E630000000010B52148D4
:1012E0008AB04FF080410024C0E900146021816081
:1012F0004FF48051C0E90314FFF75CFA18B1B5212F
:1013000019A002F08EFA089408A916480994FEF76D
:10131000E0FD18B1BC2114A002F083FA7020CDE9E1
:101320000004022002900822694604940D48FFF749
:1013300085F918B1C5210CA002F073FA41F2010041
:10134000CDE901040C2269460648FFF777F918B188
:10135000CC2105A002F065FA0248FFF76FF80AB049
:1013600010BD0000C00700202E2E5C5372635C7419
:10137000696D2E630000000010B519488CB0174944
:101380000024C0E900144FF6FF71C0E90241046176
:101390000320CDE90004012102910420CDE903409E
:1013A000CDE90541CDE9074069460D48FEF7E1FE6C
:1013B00018B1E8210BA002F034FA0A940AA90848EF
:1013C0000B94FEF786FD002804BF0CB010BDEF2182
:1013D00004A002F026FA0CB010BD0000000400408A
:1013E000000800202E2E5C5372635C74696D2E63BE
:1013F0000000000010B51A488CB018490024C0E95C
:1014000000144FF6FF71C0E9024104610320CDE9E9
:101410000004012102910420CDE90340CDE90541FA
:10142000CDE9074069460E48FEF7A3FE20B140F221
:1014300009110CA002F0F5F90A940AA908480B94C6
:10144000FEF747FD002804BF0CB010BD4FF48871B3
:1014500004A002F0E6F90CB010BD00000008004046
:10146000400800202E2E5C5372635C74696D2E63FD
:101470000000000010B5344890B032490024C0E9A3
:1014800000146021816042F2D071C0E9031444610C
:10149000FFF790F920B140F223112CA002F0C1F91E
:1014A0002020CDE90E040EA92748FEF712FD20B139
:1014B0004FF4957125A002F0B4F97020CDE9000435
:1014C0000294039404940594002269461E480694ED
:1014D000FFF7B4F820B14FF49B711CA002F0A1F902
:1014E000042269461848FFF7A9F820B140F23B11E1
:1014F00016A002F096F9082269461348FFF79EF8F5
:1015000020B14FF4A07111A002F08BF94FF40060EC
:1015100007904010CDE908041420CDE90A044FF4E7
:101520000050CDE90C0407A90748FEF79FFC20B145
:101530004FF4A67105A002F074F90348FEF77EFF90
:1015400010B010BD00040140800800202E2E5C5316
:1015500072635C74696D2E63000000000D4810B565
:101560000B4901604FF4E1314160002181600C22A0
:10157000C160C0E904128161C161FFF7ABFA0028C4
:1015800008BF10BD4C21BDE8104003A002F049B9CE
:10159000004C0040C00800202E2E5C5372635C7526
:1015A000736172742E63000010B500220849094867
:1015B00001F016F80849074801F01EFA07490548E6
:1015C00000F0C7FEBDE81040024801F029BA000053
:1015D0003C000020D00900207C0500202C000020C9
:1015E000FEE7704700B587B070210091012101919D
:1015F0000021029103910491059106910C22694604
:10160000FEF786FF07B000BD10B54320FDF7F2F8E6
:1016100002480068BDE8104004F052BC0000002001
:1016200038B50B46009204460022802100F009F8EC
:10163000002808BF38BDA06D40F02000A065032041
:1016400038BD2DE9F04104460068069E1D468068BD
:101650001746884631EA00000CBF01200020B8423E
:101660003CD0B5F1FF3F30D025B1FDF735F8801BF8
:10167000A8422AD32068416821F0E00141606068F7
:10168000B0F5827F0BD1A068B0F5004F18BFB0F560
:10169000806F04D12068016821F040010160A06AD8
:1016A000B0F5005F0AD1206801684DF6FF72114065
:1016B00001602068016841F400510160012060650B
:1016C000002020650320BDE8F0812068806838EAAA
:1016D00000000CBF01200020B842C2D10020BDE8AC
:1016E000F08100009FED721A60EE811A9FED711A71
:1016F000F5EEC00A20EE811AF1EE10FA15DBB5EE18
:10170000C00AF1EE10FA07DBB4EEE10AF1EE10FACE
:1017100028BF01231ED206E0B4EEC10AF1EE10FA92
